{
	"data": {
		"bytecode": {
			"linkReferences": {
				"StakingContractLibrary.sol": {
					"StakingContractLibrary": [
						{
							"length": 20,
							"start": 8264
						},
						{
							"length": 20,
							"start": 8460
						},
						{
							"length": 20,
							"start": 9653
						},
						{
							"length": 20,
							"start": 9793
						},
						{
							"length": 20,
							"start": 9933
						},
						{
							"length": 20,
							"start": 10073
						},
						{
							"length": 20,
							"start": 10099
						},
						{
							"length": 20,
							"start": 11311
						},
						{
							"length": 20,
							"start": 11740
						},
						{
							"length": 20,
							"start": 14257
						}
					]
				}
			},
			"object": "608060405260018060046101000a81548161ffff021916908361ffff1602179055503480156200002e57600080fd5b506040516200582b3803806200582b833981810160405281019062000054919062000519565b87600990805190602001906200006c929190620003a6565b5086600a908051906020019062000085929190620003a6565b5085600b60006101000a81548160ff021916908360ff16021790555084600160076101000a81548163ffffffff021916908363ffffffff1602179055508160ff1660028190555082600160066101000a81548160ff021916908360ff16021790555083600160006101000a81548163ffffffff021916908363ffffffff1602179055506000600860046101000a81548160ff02191690831515021790555080600360016101000a81548173ffffffffffffffffffffffffffffffffffffffff021916908373ffffffffffffffffffffffffffffffffffffffff16021790555033600860056101000a81548173ffffffffffffffffffffffffffffffffffffffff021916908373ffffffffffffffffffffffffffffffffffffffff160217905550620001b56200025e60201b60201c565b620001c86001806200026760201b60201c565b620001dc600060016200026760201b60201c565b7fba0ba0419259e3bfaacbaf85cc56102b8ddd36c370a4e35ffddc951e917fe36a30600160079054906101000a900463ffffffff16600160009054906101000a900463ffffffff16600160069054906101000a900460ff16426040516200024895949392919062000664565b60405180910390a1505050505050505062000945565b42600081905550565b600060038111156200027e576200027d62000845565b5b82600381111562000294576200029362000845565b5b1415620002b65780600860006101000a81548160ff0219169083151502179055505b60016003811115620002cd57620002cc62000845565b5b826003811115620002e357620002e262000845565b5b1415620003055780600860016101000a81548160ff0219169083151502179055505b600260038111156200031c576200031b62000845565b5b82600381111562000332576200033162000845565b5b1415620003545780600860026101000a81548160ff0219169083151502179055505b6003808111156200036a576200036962000845565b5b82600381111562000380576200037f62000845565b5b1415620003a25780600860036101000a81548160ff0219169083151502179055505b5050565b828054620003b490620007d9565b90600052602060002090601f016020900481019282620003d8576000855562000424565b82601f10620003f357805160ff191683800117855562000424565b8280016001018555821562000424579182015b828111156200042357825182559160200191906001019062000406565b5b50905062000433919062000437565b5090565b5b808211156200045257600081600090555060010162000438565b5090565b60006200046d6200046784620006ea565b620006c1565b9050828152602081018484840111156200048c576200048b620008d7565b5b62000499848285620007a3565b509392505050565b600081519050620004b281620008f7565b92915050565b600082601f830112620004d057620004cf620008d2565b5b8151620004e284826020860162000456565b91505092915050565b600081519050620004fc8162000911565b92915050565b60008151905062000513816200092b565b92915050565b600080600080600080600080610100898b0312156200053d576200053c620008e1565b5b600089015167ffffffffffffffff8111156200055e576200055d620008dc565b5b6200056c8b828c01620004b8565b985050602089015167ffffffffffffffff81111562000590576200058f620008dc565b5b6200059e8b828c01620004b8565b9750506040620005b18b828c0162000502565b9650506060620005c48b828c01620004eb565b9550506080620005d78b828c01620004eb565b94505060a0620005ea8b828c0162000502565b93505060c0620005fd8b828c0162000502565b92505060e0620006108b828c01620004a1565b9150509295985092959890939650565b6200062b8162000720565b82525050565b6200063c8162000754565b82525050565b6200064d816200077b565b82525050565b6200065e816200078f565b82525050565b600060a0820190506200067b600083018862000620565b6200068a602083018762000642565b62000699604083018662000642565b620006a8606083018562000653565b620006b7608083018462000631565b9695505050505050565b6000620006cd620006e0565b9050620006db82826200080f565b919050565b6000604051905090565b600067ffffffffffffffff821115620007085762000707620008a3565b5b6200071382620008e6565b9050602081019050919050565b60006200072d8262000734565b9050919050565b600073ffffffffffffffffffffffffffffffffffffffff82169050919050565b6000819050919050565b600063ffffffff82169050919050565b600060ff82169050919050565b600062000788826200075e565b9050919050565b60006200079c826200076e565b9050919050565b60005b83811015620007c3578082015181840152602081019050620007a6565b83811115620007d3576000848401525b50505050565b60006002820490506001821680620007f257607f821691505b6020821081141562000809576200080862000874565b5b50919050565b6200081a82620008e6565b810181811067ffffffffffffffff821117156200083c576200083b620008a3565b5b80604052505050565b7f4e487b7100000000000000000000000000000000000000000000000000000000600052602160045260246000fd5b7f4e487b7100000000000000000000000000000000000000000000000000000000600052602260045260246000fd5b7f4e487b7100000000000000000000000000000000000000000000000000000000600052604160045260246000fd5b600080fd5b600080fd5b600080fd5b600080fd5b6000601f19601f8301169050919050565b620009028162000720565b81146200090e57600080fd5b50565b6200091c816200075e565b81146200092857600080fd5b50565b62000936816200076e565b81146200094257600080fd5b50565b614ed680620009556000396000f3fe60806040526004361061021e5760003560e01c806370e9841011610123578063a9059cbb116100ab578063c51e1fce1161006f578063c51e1fce1461088d578063c55b1ab1146108a4578063d0e30db0146108cf578063dcd8bc41146108d9578063dd62ed3e14610904576102c0565b8063a9059cbb146107a4578063b3d6e119146107e1578063c1caed511461080c578063c30ea2a214610837578063c4ded0fa14610862576102c0565b806392c51d3a116100f257806392c51d3a146106aa57806395d89b41146106e857806395f3a950146107135780639aceda7d14610750578063a3c8c8801461077b576102c0565b806370e98410146106125780637dc2cd981461063d578063872f0b97146106685780638da3aba314610693576102c0565b8063313ce567116101a65780634975521b116101755780634975521b1461052b57806350456bef1461055657806353371be01461057f578063574eab01146105aa57806370a08231146105d5576102c0565b8063313ce5671461046d578063392cf7ab1461049857806339c6ea16146104c35780634213868b14610500576102c0565b8063189b61e1116101ed578063189b61e1146103955780631a9703da146103b15780631e83409a146103dc578063200d2ed21461040557806323b872dd14610430576102c0565b806306fdde03146102c5578063095ea7b3146102f05780631796b78c1461032d57806318160ddd1461036a576102c0565b366102c0576000479050600034826102369190614563565b11156102bd577faf39fd887f15b7eaba52f7e0409fdca53b51ac2360d25c933c3bdd5e5097091133343060405161026f93929190613e35565b60405180910390a161027f610941565b47106102bc576001600360006101000a81548160ff0219169083151502179055506102bb6006808111156102b6576102b56147e7565b5b61094b565b5b5b50005b600080fd5b3480156102d157600080fd5b506102da610f55565b6040516102e79190614031565b60405180910390f35b3480156102fc57600080fd5b50610317600480360381019061031291906135a7565b610fe7565b6040516103249190613ee8565b60405180910390f35b34801561033957600080fd5b50610354600480360381019061034f919061368a565b610ffe565b6040516103619190613ee8565b60405180910390f35b34801561037657600080fd5b5061037f610941565b60405161038c9190614349565b60405180910390f35b6103af60048036038101906103aa91906134e7565b611118565b005b3480156103bd57600080fd5b506103c6611363565b6040516103d39190614409565b60405180910390f35b3480156103e857600080fd5b5061040360048036038101906103fe91906134e7565b611379565b005b34801561041157600080fd5b5061041a611478565b6040516104279190613f7f565b60405180910390f35b34801561043c57600080fd5b5061045760048036038101906104529190613554565b61148b565b6040516104649190613ee8565b60405180910390f35b34801561047957600080fd5b506104826116c5565b60405161048f9190614424565b60405180910390f35b3480156104a457600080fd5b506104ad6116dc565b6040516104ba9190613ee8565b60405180910390f35b3480156104cf57600080fd5b506104ea60048036038101906104e5919061378e565b611781565b6040516104f79190613ee8565b60405180910390f35b34801561050c57600080fd5b506105156117b0565b6040516105229190613ee8565b60405180910390f35b34801561053757600080fd5b50610540611845565b60405161054d9190614313565b60405180910390f35b34801561056257600080fd5b5061057d600480360381019061057891906137fb565b611859565b005b34801561058b57600080fd5b5061059461195f565b6040516105a19190613ee8565b60405180910390f35b3480156105b657600080fd5b506105bf611972565b6040516105cc9190613ee8565b60405180910390f35b3480156105e157600080fd5b506105fc60048036038101906105f791906134e7565b611985565b6040516106099190614349565b60405180910390f35b34801561061e57600080fd5b506106276119ce565b6040516106349190613ee8565b60405180910390f35b34801561064957600080fd5b506106526119e1565b60405161065f9190614349565b60405180910390f35b34801561067457600080fd5b5061067d6119e7565b60405161068a9190613ee8565b60405180910390f35b34801561069f57600080fd5b506106a86119fa565b005b3480156106b657600080fd5b506106d160048036038101906106cc91906134e7565b611a50565b6040516106df9291906143a9565b60405180910390f35b3480156106f457600080fd5b506106fd611a74565b60405161070a9190614031565b60405180910390f35b34801561071f57600080fd5b5061073a6004803603810190610735919061365d565b611b06565b6040516107479190613ee8565b60405180910390f35b34801561075c57600080fd5b50610765611b45565b6040516107729190614424565b60405180910390f35b34801561078757600080fd5b506107a2600480360381019061079d91906136b7565b611b58565b005b3480156107b057600080fd5b506107cb60048036038101906107c691906135a7565b611fcd565b6040516107d89190613ee8565b60405180910390f35b3480156107ed57600080fd5b506107f661213c565b6040516108039190614409565b60405180910390f35b34801561081857600080fd5b50610821612152565b60405161082e9190613d4b565b60405180910390f35b34801561084357600080fd5b5061084c612178565b6040516108599190613ee8565b60405180910390f35b34801561086e57600080fd5b5061087761218b565b6040516108849190613ee8565b60405180910390f35b34801561089957600080fd5b506108a261237c565b005b3480156108b057600080fd5b506108b961246a565b6040516108c69190613ee8565b60405180910390f35b6108d7612515565b005b3480156108e557600080fd5b506108ee612756565b6040516108fb9190614349565b60405180910390f35b34801561091057600080fd5b5061092b60048036038101906109269190613514565b61275c565b6040516109389190614349565b60405180910390f35b6000600c54905090565b6000600681111561095f5761095e6147e7565b5b816006811115610972576109716147e7565b5b14156109c7576000600360156101000a81548160ff0219169083600681111561099e5761099d6147e7565b5b02179055506109ab6127e3565b6109b66001806127ec565b6109c2600060016127ec565b610f19565b600160068111156109db576109da6147e7565b5b60068111156109ed576109ec6147e7565b5b816006811115610a00576109ff6147e7565b5b1415610b2857610a0e6119fa565b6801bc16d674ec8000004714610a59576040517f08c379a0000000000000000000000000000000000000000000000000000000008152600401610a50906141b3565b60405180910390fd5b610a636000611b06565b610aa2576040517f08c379a0000000000000000000000000000000000000000000000000000000008152600401610a9990614233565b60405180910390fd5b6001600360156101000a81548160ff02191690836006811115610ac857610ac76147e7565b5b02179055507f70c726341b026231e864d364a70a9860f47181ff3ba90c5ca03b9b53c23b35ab30600160079054906101000a900463ffffffff16604051610b10929190613ebf565b60405180910390a1610b236000806127ec565b610f18565b60026006811115610b3c57610b3b6147e7565b5b6006811115610b4e57610b4d6147e7565b5b816006811115610b6157610b606147e7565b5b1415610bff57610b716001611b06565b15610b7f57610b7e6127e3565b5b60018060048282829054906101000a900461ffff16610b9e919061452b565b92506101000a81548161ffff021916908361ffff1602179055506002600360156101000a81548160ff02191690836006811115610bde57610bdd6147e7565b5b0217905550610bee6001806127ec565b610bfa600360006127ec565b610f17565b60036006811115610c1357610c126147e7565b5b6006811115610c2557610c246147e7565b5b816006811115610c3857610c376147e7565b5b1415610c8d5760038060156101000a81548160ff02191690836006811115610c6357610c626147e7565b5b0217905550610c706127e3565b610c7c600160006127ec565b610c88600360016127ec565b610f16565b60046006811115610ca157610ca06147e7565b5b6006811115610cb357610cb26147e7565b5b816006811115610cc657610cc56147e7565b5b1415610dc2576801bc16d674ec800000471015610d18576040517f08c379a0000000000000000000000000000000000000000000000000000000008152600401610d0f906141b3565b60405180910390fd5b60011515600360009054906101000a900460ff16151514610d6e576040517f08c379a0000000000000000000000000000000000000000000000000000000008152600401610d6590614293565b60405180910390fd5b6004600360156101000a81548160ff02191690836006811115610d9457610d936147e7565b5b0217905550610da5600160006127ec565b610db1600360016127ec565b610dbd600260016127ec565b610f15565b60056006811115610dd657610dd56147e7565b5b6006811115610de857610de76147e7565b5b816006811115610dfb57610dfa6147e7565b5b1415610e9157610e0b6000611b06565b610e4a576040517f08c379a0000000000000000000000000000000000000000000000000000000008152600401610e4190614273565b60405180910390fd5b6005600360156101000a81548160ff02191690836006811115610e7057610e6f6147e7565b5b0217905550610e81600260016127ec565b610e8c6000806127ec565b610f14565b600680811115610ea457610ea36147e7565b5b6006811115610eb657610eb56147e7565b5b816006811115610ec957610ec86147e7565b5b1415610f13576006600360156101000a81548160ff02191690836006811115610ef557610ef46147e7565b5b0217905550610f06600160006127ec565b610f12600260016127ec565b5b5b5b5b5b5b5b7f272c792852c947492bbac02abd3264dc153f053fc803cb10c3b4b165ef7838e48130604051610f4a929190613f9a565b60405180910390a150565b606060098054610f64906146f5565b80601f0160208091040260200160405190810160405280929190818152602001828054610f90906146f5565b8015610fdd5780601f10610fb257610100808354040283529160200191610fdd565b820191906000526020600020905b815481529060010190602001808311610fc057829003601f168201915b5050505050905090565b6000610ff433848461290f565b6001905092915050565b6000806003811115611013576110126147e7565b5b826003811115611026576110256147e7565b5b141561104357600860009054906101000a900460ff169050611113565b60016003811115611057576110566147e7565b5b82600381111561106a576110696147e7565b5b141561108757600860019054906101000a900460ff169050611113565b6002600381111561109b5761109a6147e7565b5b8260038111156110ae576110ad6147e7565b5b14156110cb57600860029054906101000a900460ff169050611113565b6003808111156110de576110dd6147e7565b5b8260038111156110f1576110f06147e7565b5b141561110e57600860039054906101000a900460ff169050611113565b600090505b919050565b6000600760008373ffffffffffffffffffffffffffffffffffffffff1673ffffffffffffffffffffffffffffffffffffffff16815260200190815260200160002060405180604001604052908160008201548152602001600182015481525050905060008160000151116111c1576040517f08c379a00000000000000000000000000000000000000000000000000000000081526004016111b890614073565b60405180910390fd5b80602001513414611207576040517f08c379a00000000000000000000000000000000000000000000000000000000081526004016111fe90614093565b60405180910390fd5b6040518060400160405280600081526020016000815250600760008473ffffffffffffffffffffffffffffffffffffffff1673ffffffffffffffffffffffffffffffffffffffff168152602001908152602001600020600082015181600001556020820151816001015590505061128382308360000151612a79565b61129282338360000151612b05565b6112a0828260200151612d22565b7f2ec5f87b83d600152a19074612f00de8fd779b7a8ab9cd96ff5469110fde271c82338330600460008873ffffffffffffffffffffffffffffffffffffffff1673ffffffffffffffffffffffffffffffffffffffff16815260200190815260200160002054600460003373ffffffffffffffffffffffffffffffffffffffff1673ffffffffffffffffffffffffffffffffffffffff1681526020019081526020016000205460405161135796959493929190613d66565b60405180910390a15050565b600160009054906101000a900463ffffffff1681565b60001515600860049054906101000a900460ff161515146113cf576040517f08c379a00000000000000000000000000000000000000000000000000000000081526004016113c690614193565b60405180910390fd5b6001600860046101000a81548160ff0219169083151502179055506113f261218b565b506113fd6003611b06565b156114105761140b81612e0e565b61145a565b61141a6004611b06565b156114365761142881612e0e565b61143181613058565b611459565b6114406005611b06565b156114535761144e81613058565b611458565b600080fd5b5b5b6000600860046101000a81548160ff02191690831515021790555050565b600360159054906101000a900460ff1681565b6000801515600860049054906101000a900460ff161515146114e2576040517f08c379a00000000000000000000000000000000000000000000000000000000081526004016114d990614193565b60405180910390fd5b6001600860046101000a81548160ff021916908315150217905550600161150881610ffe565b611547576040517f08c379a000000000000000000000000000000000000000000000000000000000815260040161153e90614153565b60405180910390fd5b600460008673ffffffffffffffffffffffffffffffffffffffff1673ffffffffffffffffffffffffffffffffffffffff168152602001908152602001600020548311156115c9576040517f08c379a00000000000000000000000000000000000000000000000000000000081526004016115c0906142b3565b60405180910390fd5b600560008673ffffffffffffffffffffffffffffffffffffffff1673ffffffffffffffffffffffffffffffffffffffff16815260200190815260200160002060003373ffffffffffffffffffffffffffffffffffffffff1673ffffffffffffffffffffffffffffffffffffffff16815260200190815260200160002054831115611688576040517f08c379a000000000000000000000000000000000000000000000000000000000815260040161167f90614253565b60405180910390fd5b611693853385612a79565b61169e858585612b05565b60019150506000600860046101000a81548160ff0219169083151502179055509392505050565b6000600b60009054906101000a900460ff16905090565b6000600160069054906101000a900460ff1660ff1673__$46833ed39fb0887158039b957a7ba92218$__63d99dfb866000546040518263ffffffff1660e01b815260040161172a919061432e565b60206040518083038186803b15801561174257600080fd5b505af4158015611756573d6000803e3d6000fd5b505050506040513d601f19601f8201168201806040525081019061177a91906137ce565b1115905090565b60066020528160005260406000206020528060005260406000206000915091509054906101000a900460ff1681565b600060025473__$46833ed39fb0887158039b957a7ba92218$__63d99dfb866000546040518263ffffffff1660e01b81526004016117ee919061432e565b60206040518083038186803b15801561180657600080fd5b505af415801561181a573d6000803e3d6000fd5b505050506040513d601f19601f8201168201806040525081019061183e91906137ce565b1115905090565b600160049054906101000a900461ffff1681565b8161186333611985565b10156118a4576040517f08c379a000000000000000000000000000000000000000000000000000000000815260040161189b90614213565b60405180910390fd5b6118ae3083610fe7565b506000604051806040016040528084815260200183815250905080600760003373ffffffffffffffffffffffffffffffffffffffff1673ffffffffffffffffffffffffffffffffffffffff16815260200190815260200160002060008201518160000155602082015181600101559050507fd9b4c66f0391b9bcb154506031791fce68dc70ddd74aef0d55af60783039088733823060405161195293929190613dfe565b60405180910390a1505050565b600860019054906101000a900460ff1681565b600860029054906101000a900460ff1681565b6000600460008373ffffffffffffffffffffffffffffffffffffffff1673ffffffffffffffffffffffffffffffffffffffff168152602001908152602001600020549050919050565b600360009054906101000a900460ff1681565b60025481565b600860039054906101000a900460ff1681565b6000479050611a07610941565b811115611a4d57611a4c600360019054906101000a900473ffffffffffffffffffffffffffffffffffffffff16611a3c610941565b83611a4791906145b9565b612d22565b5b50565b60076020528060005260406000206000915090508060000154908060010154905082565b6060600a8054611a83906146f5565b80601f0160208091040260200160405190810160405280929190818152602001828054611aaf906146f5565b8015611afc5780601f10611ad157610100808354040283529160200191611afc565b820191906000526020600020905b815481529060010190602001808311611adf57829003601f168201915b5050505050905090565b6000600360159054906101000a900460ff166006811115611b2a57611b296147e7565b5b826006811115611b3d57611b3c6147e7565b5b149050919050565b600160069054906101000a900460ff1681565b600860059054906101000a900473ffffffffffffffffffffffffffffffffffffffff1673ffffffffffffffffffffffffffffffffffffffff163373ffffffffffffffffffffffffffffffffffffffff1614611bb257600080fd5b60016006811115611bc657611bc56147e7565b5b600360159054906101000a900460ff166006811115611be857611be76147e7565b5b14611c28576040517f08c379a0000000000000000000000000000000000000000000000000000000008152600401611c1f90614133565b60405180910390fd5b6f219ab540356cbb839cbe05303d7705fa73ffffffffffffffffffffffffffffffffffffffff1663228951186801bc16d674ec80000073__$46833ed39fb0887158039b957a7ba92218$__63e0f42b57886040518263ffffffff1660e01b8152600401611c95919061400f565b60006040518083038186803b158015611cad57600080fd5b505af4158015611cc1573d6000803e3d6000fd5b505050506040513d6000823e3d601f19601f82011682018060405250810190611cea9190613614565b73__$46833ed39fb0887158039b957a7ba92218$__63e0f42b57886040518263ffffffff1660e01b8152600401611d21919061400f565b60006040518083038186803b158015611d3957600080fd5b505af4158015611d4d573d6000803e3d6000fd5b505050506040513d6000823e3d601f19601f82011682018060405250810190611d769190613614565b73__$46833ed39fb0887158039b957a7ba92218$__63e0f42b57886040518263ffffffff1660e01b8152600401611dad919061400f565b60006040518083038186803b158015611dc557600080fd5b505af4158015611dd9573d6000803e3d6000fd5b505050506040513d6000823e3d601f19601f82011682018060405250810190611e029190613614565b73__$46833ed39fb0887158039b957a7ba92218$__63bfe370d973__$46833ed39fb0887158039b957a7ba92218$__63e0f42b578a6040518263ffffffff1660e01b8152600401611e53919061400f565b60006040518083038186803b158015611e6b57600080fd5b505af4158015611e7f573d6000803e3d6000fd5b505050506040513d6000823e3d601f19601f82011682018060405250810190611ea89190613614565b6040518263ffffffff1660e01b8152600401611ec49190613f03565b60206040518083038186803b158015611edc57600080fd5b505af4158015611ef0573d6000803e3d6000fd5b505050506040513d601f19601f82011682018060405250810190611f1491906135e7565b6040518663ffffffff1660e01b8152600401611f339493929190613f25565b6000604051808303818588803b158015611f4c57600080fd5b505af1158015611f60573d6000803e3d6000fd5b5050505050611f8160026006811115611f7c57611f7b6147e7565b5b61094b565b7ff8f3bcb5f2cc3746fd305bb4cad4c06eb284d687191face4dcdf7ea524464f366801bc16d674ec800000304287604051611fbf9493929190613fc3565b60405180910390a150505050565b6000801515600860049054906101000a900460ff16151514612024576040517f08c379a000000000000000000000000000000000000000000000000000000000815260040161201b90614193565b60405180910390fd5b6001600860046101000a81548160ff021916908315150217905550600161204a81610ffe565b612089576040517f08c379a000000000000000000000000000000000000000000000000000000000815260040161208090614153565b60405180910390fd5b600460003373ffffffffffffffffffffffffffffffffffffffff1673ffffffffffffffffffffffffffffffffffffffff1681526020019081526020016000205483111561210b576040517f08c379a000000000000000000000000000000000000000000000000000000000815260040161210290614053565b60405180910390fd5b612116338585612b05565b60019150506000600860046101000a81548160ff02191690831515021790555092915050565b600160079054906101000a900463ffffffff1681565b600360019054906101000a900473ffffffffffffffffffffffffffffffffffffffff1681565b600860009054906101000a900460ff1681565b600060011515600360009054906101000a900460ff1615151480156121b757506121b56004611b06565b155b15612217576121c461246a565b15612204576040517f08c379a00000000000000000000000000000000000000000000000000000000081526004016121fb906142f3565b60405180910390fd5b61220e600461094b565b60019050612379565b6122216002611b06565b156122815761222e61246a565b1561226e576040517f08c379a0000000000000000000000000000000000000000000000000000000008152600401612265906142f3565b60405180910390fd5b612278600361094b565b60019050612379565b61228b6003611b06565b801561229c575061229a6117b0565b155b156122b4576122ab600261094b565b60019050612379565b6122be6000611b06565b80156123645750600160069054906101000a900460ff1660ff1673__$46833ed39fb0887158039b957a7ba92218$__63d99dfb866000546040518263ffffffff1660e01b8152600401612311919061432e565b60206040518083038186803b15801561232957600080fd5b505af415801561233d573d6000803e3d6000fd5b505050506040513d601f19601f8201168201806040525081019061236191906137ce565b10155b1561237457612373600561094b565b5b600090505b90565b600860059054906101000a900473ffffffffffffffffffffffffffffffffffffffff1673ffffffffffffffffffffffffffffffffffffffff163373ffffffffffffffffffffffffffffffffffffffff16146123d657600080fd5b600160068111156123ea576123e96147e7565b5b600360159054906101000a900460ff16600681111561240c5761240b6147e7565b5b1461244c576040517f08c379a000000000000000000000000000000000000000000000000000000000815260040161244390614133565b60405180910390fd5b61246860056006811115612463576124626147e7565b5b61094b565b565b6000600160079054906101000a900463ffffffff1663ffffffff1673__$46833ed39fb0887158039b957a7ba92218$__63d99dfb866000546040518263ffffffff1660e01b81526004016124be919061432e565b60206040518083038186803b1580156124d657600080fd5b505af41580156124ea573d6000803e3d6000fd5b505050506040513d601f19601f8201168201806040525081019061250e91906137ce565b1115905090565b60001515600860049054906101000a900460ff1615151461256b576040517f08c379a000000000000000000000000000000000000000000000000000000000815260040161256290614193565b60405180910390fd5b6001600860046101000a81548160ff021916908315150217905550600061259181610ffe565b6125d0576040517f08c379a00000000000000000000000000000000000000000000000000000000081526004016125c790614153565b60405180910390fd5b6000341180156125f35750600067016345785d8a0000346125f19190614758565b145b801561260857506801bc16d674ec8000004711155b612647576040517f08c379a000000000000000000000000000000000000000000000000000000000815260040161263e90614173565b60405180910390fd5b61264f6116dc565b61268e576040517f08c379a0000000000000000000000000000000000000000000000000000000008152600401612685906140f3565b60405180910390fd5b6126983334613189565b6126a06119fa565b7fcab2f015136cc0bb1fbd91fce3f8f6d63996f105a7de8a4019c5eed482a622ea343330600460003373ffffffffffffffffffffffffffffffffffffffff1673ffffffffffffffffffffffffffffffffffffffff168152602001908152602001600020546040516127149493929190614364565b60405180910390a16801bc16d674ec80000047141561273857612737600161094b565b5b506000600860046101000a81548160ff021916908315150217905550565b60005481565b6000600560008473ffffffffffffffffffffffffffffffffffffffff1673ffffffffffffffffffffffffffffffffffffffff16815260200190815260200160002060008373ffffffffffffffffffffffffffffffffffffffff1673ffffffffffffffffffffffffffffffffffffffff16815260200190815260200160002054905092915050565b42600081905550565b60006003811115612800576127ff6147e7565b5b826003811115612813576128126147e7565b5b14156128345780600860006101000a81548160ff0219169083151502179055505b60016003811115612848576128476147e7565b5b82600381111561285b5761285a6147e7565b5b141561287c5780600860016101000a81548160ff0219169083151502179055505b600260038111156128905761288f6147e7565b5b8260038111156128a3576128a26147e7565b5b14156128c45780600860026101000a81548160ff0219169083151502179055505b6003808111156128d7576128d66147e7565b5b8260038111156128ea576128e96147e7565b5b141561290b5780600860036101000a81548160ff0219169083151502179055505b5050565b600073ffffffffffffffffffffffffffffffffffffffff168373ffffffffffffffffffffffffffffffffffffffff16141580156129795750600073ffffffffffffffffffffffffffffffffffffffff168273ffffffffffffffffffffffffffffffffffffffff1614155b6129b8576040517f08c379a00000000000000000000000000000000000000000000000000000000081526004016129af906140b3565b60405180910390fd5b80600560008573ffffffffffffffffffffffffffffffffffffffff1673ffffffffffffffffffffffffffffffffffffffff16815260200190815260200160002060008473ffffffffffffffffffffffffffffffffffffffff1673ffffffffffffffffffffffffffffffffffffffff168152602001908152602001600020819055507f5c52a5f2b86fd16be577188b5a83ef1165faddc00b137b10285f16162e17792a838383604051612a6c93929190613dc7565b60405180910390a1505050565b6000612a85848461275c565b90507fffffffffffffffffffffffffffffffffffffffffffffffffffffffffffffffff8114612aff5781811015612af1576040517f08c379a0000000000000000000000000000000000000000000000000000000008152600401612ae8906140d3565b60405180910390fd5b612afe848484840361290f565b5b50505050565b6000600460008573ffffffffffffffffffffffffffffffffffffffff1673ffffffffffffffffffffffffffffffffffffffff168152602001908152602001600020549050600073ffffffffffffffffffffffffffffffffffffffff168473ffffffffffffffffffffffffffffffffffffffff1614158015612bb35750600073ffffffffffffffffffffffffffffffffffffffff168373ffffffffffffffffffffffffffffffffffffffff1614155b612bf2576040517f08c379a0000000000000000000000000000000000000000000000000000000008152600401612be9906140b3565b60405180910390fd5b81811015612c35576040517f08c379a0000000000000000000000000000000000000000000000000000000008152600401612c2c90614113565b60405180910390fd5b81600460008673ffffffffffffffffffffffffffffffffffffffff1673ffffffffffffffffffffffffffffffffffffffff1681526020019081526020016000206000828254612c8491906145b9565b9250508190555081600460008573ffffffffffffffffffffffffffffffffffffffff1673ffffffffffffffffffffffffffffffffffffffff1681526020019081526020016000206000828254612cda9190614563565b925050819055507fddf252ad1be2c89b69c2b068fc378daa952ba7f163c4a11628f55a4df523b3ef848484604051612d1493929190613dc7565b60405180910390a150505050565b60008273ffffffffffffffffffffffffffffffffffffffff1682604051612d4890613d36565b60006040518083038185875af1925050503d8060008114612d85576040519150601f19603f3d011682016040523d82523d6000602084013e612d8a565b606091505b5050905080612dce576040517f08c379a0000000000000000000000000000000000000000000000000000000008152600401612dc5906141d3565b60405180910390fd5b7f1d26cf2a5fdca5ecc05c0f48d95af2578ac2f781a85e4724bfd691c53b53442e838330604051612e0193929190613e35565b60405180910390a1505050565b6003612e1981610ffe565b612e58576040517f08c379a0000000000000000000000000000000000000000000000000000000008152600401612e4f90614153565b60405180910390fd5b600073__$46833ed39fb0887158039b957a7ba92218$__6311be17fe600460008673ffffffffffffffffffffffffffffffffffffffff1673ffffffffffffffffffffffffffffffffffffffff16815260200190815260200160002054600160079054906101000a900463ffffffff16600160009054906101000a900463ffffffff166040518463ffffffff1660e01b8152600401612ef8939291906143d2565b60206040518083038186803b158015612f1057600080fd5b505af4158015612f24573d6000803e3d6000fd5b505050506040513d601f19601f82011682018060405250810190612f4891906137ce565b9050612f548382613189565b600160066000600160049054906101000a900461ffff1661ffff1661ffff16815260200190815260200160002060008573ffffffffffffffffffffffffffffffffffffffff1673ffffffffffffffffffffffffffffffffffffffff16815260200190815260200160002060006101000a81548160ff0219169083151502179055507fce714c0213e17f4744350ed6ba6d3071314760a6307eb9d3920946cee915a397838230600460008873ffffffffffffffffffffffffffffffffffffffff1673ffffffffffffffffffffffffffffffffffffffff168152602001908152602001600020544260405161304b959493929190613e6c565b60405180910390a1505050565b600261306381610ffe565b6130a2576040517f08c379a000000000000000000000000000000000000000000000000000000000815260040161309990614153565b60405180910390fd5b60006130ad83611985565b9050600081116130f2576040517f08c379a00000000000000000000000000000000000000000000000000000000081526004016130e9906141f3565b60405180910390fd5b6130fc8382613226565b7fead0bae8a8e21910eb19e746796e621f7f72a0ca79214f63c84779f7b69e2d43838230600460008873ffffffffffffffffffffffffffffffffffffffff1673ffffffffffffffffffffffffffffffffffffffff1681526020019081526020016000205442604051613172959493929190613e6c565b60405180910390a16131848382612d22565b505050565b80600460008473ffffffffffffffffffffffffffffffffffffffff1673ffffffffffffffffffffffffffffffffffffffff1681526020019081526020016000206000828254019250508190555080600c600082825401925050819055507fddf252ad1be2c89b69c2b068fc378daa952ba7f163c4a11628f55a4df523b3ef6000838360405161321a93929190613dc7565b60405180910390a15050565b600261323181610ffe565b613270576040517f08c379a000000000000000000000000000000000000000000000000000000000815260040161326790614153565b60405180910390fd5b8161327a84611985565b10156132bb576040517f08c379a00000000000000000000000000000000000000000000000000000000081526004016132b2906142d3565b60405180910390fd5b81600460008573ffffffffffffffffffffffffffffffffffffffff1673ffffffffffffffffffffffffffffffffffffffff1681526020019081526020016000206000828254039250508190555081600c600082825403925050819055506000613322610941565b141561333357613332600661094b565b5b7fddf252ad1be2c89b69c2b068fc378daa952ba7f163c4a11628f55a4df523b3ef8360008460405161336793929190613dc7565b60405180910390a1505050565b600061338761338284614464565b61443f565b9050828152602081018484840111156133a3576133a2614879565b5b6133ae8482856146c2565b509392505050565b60006133c96133c484614495565b61443f565b9050828152602081018484840111156133e5576133e4614879565b5b6133f08482856146b3565b509392505050565b60008135905061340781614e24565b92915050565b60008151905061341c81614e3b565b92915050565b600082601f83011261343757613436614874565b5b8151613447848260208601613374565b91505092915050565b60008135905061345f81614e52565b92915050565b60008135905061347481614e62565b92915050565b600082601f83011261348f5761348e614874565b5b813561349f8482602086016133b6565b91505092915050565b6000813590506134b781614e72565b92915050565b6000813590506134cc81614e89565b92915050565b6000815190506134e181614e89565b92915050565b6000602082840312156134fd576134fc614883565b5b600061350b848285016133f8565b91505092915050565b6000806040838503121561352b5761352a614883565b5b6000613539858286016133f8565b925050602061354a858286016133f8565b9150509250929050565b60008060006060848603121561356d5761356c614883565b5b600061357b868287016133f8565b935050602061358c868287016133f8565b925050604061359d868287016134bd565b9150509250925092565b600080604083850312156135be576135bd614883565b5b60006135cc858286016133f8565b92505060206135dd858286016134bd565b9150509250929050565b6000602082840312156135fd576135fc614883565b5b600061360b8482850161340d565b91505092915050565b60006020828403121561362a57613629614883565b5b600082015167ffffffffffffffff8111156136485761364761487e565b5b61365484828501613422565b91505092915050565b60006020828403121561367357613672614883565b5b600061368184828501613450565b91505092915050565b6000602082840312156136a05761369f614883565b5b60006136ae84828501613465565b91505092915050565b600080600080608085870312156136d1576136d0614883565b5b600085013567ffffffffffffffff8111156136ef576136ee61487e565b5b6136fb8782880161347a565b945050602085013567ffffffffffffffff81111561371c5761371b61487e565b5b6137288782880161347a565b935050604085013567ffffffffffffffff8111156137495761374861487e565b5b6137558782880161347a565b925050606085013567ffffffffffffffff8111156137765761377561487e565b5b6137828782880161347a565b91505092959194509250565b600080604083850312156137a5576137a4614883565b5b60006137b3858286016134a8565b92505060206137c4858286016133f8565b9150509250929050565b6000602082840312156137e4576137e3614883565b5b60006137f2848285016134d2565b91505092915050565b6000806040838503121561381257613811614883565b5b6000613820858286016134bd565b9250506020613831858286016134bd565b9150509250929050565b613844816145ed565b82525050565b613853816145ff565b82525050565b6138628161460b565b82525050565b6000613873826144c6565b61387d81856144dc565b935061388d8185602086016146c2565b61389681614888565b840191505092915050565b60006138ac826144c6565b6138b681856144ed565b93506138c68185602086016146c2565b6138cf81614888565b840191505092915050565b6138e38161467d565b82525050565b6138f28161468f565b82525050565b6000613903826144d1565b61390d8185614509565b935061391d8185602086016146c2565b61392681614888565b840191505092915050565b600061393c826144d1565b613946818561451a565b93506139568185602086016146c2565b61395f81614888565b840191505092915050565b6000613977602183614509565b915061398282614899565b604082019050919050565b600061399a602483614509565b91506139a5826148e8565b604082019050919050565b60006139bd601a83614509565b91506139c882614937565b602082019050919050565b60006139e0601f83614509565b91506139eb82614960565b602082019050919050565b6000613a03601d83614509565b9150613a0e82614989565b602082019050919050565b6000613a26601583614509565b9150613a31826149b2565b602082019050919050565b6000613a49602483614509565b9150613a54826149db565b604082019050919050565b6000613a6c602983614509565b9150613a7782614a2a565b604082019050919050565b6000613a8f602983614509565b9150613a9a82614a79565b604082019050919050565b6000613ab2601f83614509565b9150613abd82614ac8565b602082019050919050565b6000613ad5601f83614509565b9150613ae082614af1565b602082019050919050565b6000613af8601a83614509565b9150613b0382614b1a565b602082019050919050565b6000613b1b601883614509565b9150613b2682614b43565b602082019050919050565b6000613b3e602a83614509565b9150613b4982614b6c565b604082019050919050565b6000613b61602283614509565b9150613b6c82614bbb565b604082019050919050565b6000613b84603983614509565b9150613b8f82614c0a565b604082019050919050565b6000613ba7602783614509565b9150613bb282614c59565b604082019050919050565b6000613bca6000836144fe565b9150613bd582614ca8565b600082019050919050565b6000613bed603883614509565b9150613bf882614cab565b604082019050919050565b6000613c10602483614509565b9150613c1b82614cfa565b604082019050919050565b6000613c33602083614509565b9150613c3e82614d49565b602082019050919050565b6000613c56602183614509565b9150613c6182614d72565b604082019050919050565b6000613c79602683614509565b9150613c8482614dc1565b604082019050919050565b604082016000820151613ca56000850182613ccd565b506020820151613cb86020850182613ccd565b50505050565b613cc781614628565b82525050565b613cd681614656565b82525050565b613ce581614656565b82525050565b613cf481614656565b82525050565b613d03816146a1565b82525050565b613d12816146a1565b82525050565b613d2181614660565b82525050565b613d3081614670565b82525050565b6000613d4182613bbd565b9150819050919050565b6000602082019050613d60600083018461383b565b92915050565b600060e082019050613d7b600083018961383b565b613d88602083018861383b565b613d956040830187613c8f565b613da2608083018661383b565b613daf60a0830185613cdc565b613dbc60c0830184613cdc565b979650505050505050565b6000606082019050613ddc600083018661383b565b613de9602083018561383b565b613df66040830184613cdc565b949350505050565b6000608082019050613e13600083018661383b565b613e206020830185613c8f565b613e2d606083018461383b565b949350505050565b6000606082019050613e4a600083018661383b565b613e576020830185613cdc565b613e64604083018461383b565b949350505050565b600060a082019050613e81600083018861383b565b613e8e6020830187613cdc565b613e9b604083018661383b565b613ea86060830185613cdc565b613eb56080830184613cdc565b9695505050505050565b6000604082019050613ed4600083018561383b565b613ee16020830184613cfa565b9392505050565b6000602082019050613efd600083018461384a565b92915050565b60006020820190508181036000830152613f1d81846138a1565b905092915050565b60006080820190508181036000830152613f3f8187613868565b90508181036020830152613f538186613868565b90508181036040830152613f678185613868565b9050613f766060830184613859565b95945050505050565b6000602082019050613f9460008301846138da565b92915050565b6000604082019050613faf60008301856138da565b613fbc602083018461383b565b9392505050565b6000608082019050613fd860008301876138e9565b613fe5602083018661383b565b613ff26040830185613cdc565b818103606083015261400481846138f8565b905095945050505050565b600060208201905081810360008301526140298184613931565b905092915050565b6000602082019050818103600083015261404b81846138f8565b905092915050565b6000602082019050818103600083015261406c8161396a565b9050919050565b6000602082019050818103600083015261408c8161398d565b9050919050565b600060208201905081810360008301526140ac816139b0565b9050919050565b600060208201905081810360008301526140cc816139d3565b9050919050565b600060208201905081810360008301526140ec816139f6565b9050919050565b6000602082019050818103600083015261410c81613a19565b9050919050565b6000602082019050818103600083015261412c81613a3c565b9050919050565b6000602082019050818103600083015261414c81613a5f565b9050919050565b6000602082019050818103600083015261416c81613a82565b9050919050565b6000602082019050818103600083015261418c81613aa5565b9050919050565b600060208201905081810360008301526141ac81613ac8565b9050919050565b600060208201905081810360008301526141cc81613aeb565b9050919050565b600060208201905081810360008301526141ec81613b0e565b9050919050565b6000602082019050818103600083015261420c81613b31565b9050919050565b6000602082019050818103600083015261422c81613b54565b9050919050565b6000602082019050818103600083015261424c81613b77565b9050919050565b6000602082019050818103600083015261426c81613b9a565b9050919050565b6000602082019050818103600083015261428c81613be0565b9050919050565b600060208201905081810360008301526142ac81613c03565b9050919050565b600060208201905081810360008301526142cc81613c26565b9050919050565b600060208201905081810360008301526142ec81613c49565b9050919050565b6000602082019050818103600083015261430c81613c6c565b9050919050565b60006020820190506143286000830184613cbe565b92915050565b60006020820190506143436000830184613ceb565b92915050565b600060208201905061435e6000830184613cdc565b92915050565b60006080820190506143796000830187613cdc565b614386602083018661383b565b614393604083018561383b565b6143a06060830184613cdc565b95945050505050565b60006040820190506143be6000830185613cdc565b6143cb6020830184613cdc565b9392505050565b60006060820190506143e76000830186613ceb565b6143f46020830185613d09565b6144016040830184613d09565b949350505050565b600060208201905061441e6000830184613d18565b92915050565b60006020820190506144396000830184613d27565b92915050565b600061444961445a565b90506144558282614727565b919050565b6000604051905090565b600067ffffffffffffffff82111561447f5761447e614845565b5b61448882614888565b9050602081019050919050565b600067ffffffffffffffff8211156144b0576144af614845565b5b6144b982614888565b9050602081019050919050565b600081519050919050565b600081519050919050565b600082825260208201905092915050565b600082825260208201905092915050565b600081905092915050565b600082825260208201905092915050565b600082825260208201905092915050565b600061453682614628565b915061454183614628565b92508261ffff0382111561455857614557614789565b5b828201905092915050565b600061456e82614656565b915061457983614656565b9250827fffffffffffffffffffffffffffffffffffffffffffffffffffffffffffffffff038211156145ae576145ad614789565b5b828201905092915050565b60006145c482614656565b91506145cf83614656565b9250828210156145e2576145e1614789565b5b828203905092915050565b60006145f882614636565b9050919050565b60008115159050919050565b6000819050919050565b600081905061462382614e10565b919050565b600061ffff82169050919050565b600073ffffffffffffffffffffffffffffffffffffffff82169050919050565b6000819050919050565b600063ffffffff82169050919050565b600060ff82169050919050565b600061468882614615565b9050919050565b600061469a82614656565b9050919050565b60006146ac82614660565b9050919050565b82818337600083830152505050565b60005b838110156146e05780820151818401526020810190506146c5565b838111156146ef576000848401525b50505050565b6000600282049050600182168061470d57607f821691505b6020821081141561472157614720614816565b5b50919050565b61473082614888565b810181811067ffffffffffffffff8211171561474f5761474e614845565b5b80604052505050565b600061476382614656565b915061476e83614656565b92508261477e5761477d6147b8565b5b828206905092915050565b7f4e487b7100000000000000000000000000000000000000000000000000000000600052601160045260246000fd5b7f4e487b7100000000000000000000000000000000000000000000000000000000600052601260045260246000fd5b7f4e487b7100000000000000000000000000000000000000000000000000000000600052602160045260246000fd5b7f4e487b7100000000000000000000000000000000000000000000000000000000600052602260045260246000fd5b7f4e487b7100000000000000000000000000000000000000000000000000000000600052604160045260246000fd5b600080fd5b600080fd5b600080fd5b600080fd5b6000601f19601f8301169050919050565b7f45524332303a204e6f7420656e6f7567682045746820746f207472616e73666560008201527f7200000000000000000000000000000000000000000000000000000000000000602082015250565b7f41756374696f6e3a204e6f20746f6b656e7320617265206265696e67206f666660008201527f6572656400000000000000000000000000000000000000000000000000000000602082015250565b7f41756374696f6e3a2057726f6e6720616d6f756e742070616964000000000000600082015250565b7f45524332303a2043616e6e6f7420757365207468652030206164647265737300600082015250565b7f45524332303a20696e73756666696369656e7420616c6c6f77616e6365000000600082015250565b7f4465706f7369743a20496e76616c69642074696d650000000000000000000000600082015250565b7f45524332303a204e6f7420656e6f75676820746f6b656e7320746f207472616e60008201527f7366657200000000000000000000000000000000000000000000000000000000602082015250565b7f546865207374616b6520696e7374616e6365206973206e6f742072656164792060008201527f746f20696e766573740000000000000000000000000000000000000000000000602082015250565b7f5061757365723a2046756e6374696f6e2063616e6e6f7420626520757365642060008201527f7269676874206e6f770000000000000000000000000000000000000000000000602082015250565b7f4465706f7369743a20496e76616c6964206465706f73697420616d6f756e7400600082015250565b7f5265656e7472616e63793a205265656e7472616e637920646574656374656400600082015250565b7f537769746368696e673a206e6f7420656e6f7567687420457468000000000000600082015250565b7f4661696c75726521204574686572206e6f742073656e742e0000000000000000600082015250565b7f57697468647261773a204d7573742062652061206e6f6e203020616d6f756e7460008201527f206f6620746f6b656e7300000000000000000000000000000000000000000000602082015250565b7f41756374696f6e3a204e6f7420656e6f75676820746f6b656e7320746f20736560008201527f6e64000000000000000000000000000000000000000000000000000000000000602082015250565b7f537769746368696e673a2043757272656e742073746174757320696e76616c6960008201527f6420746f2073776974636820746f204465706f736974696e6700000000000000602082015250565b7f45524332303a204f7665722074686520616c6c6f776564206c696d6974206f6660008201527f20746f6b656e7300000000000000000000000000000000000000000000000000602082015250565b50565b7f537769746368696e673a2043757272656e742073746174757320696e76616c6960008201527f6420746f2073776974636820746f20526566756e64696e670000000000000000602082015250565b7f537769746368696e673a204e6f646520686173206e6f7420636f6c617073656460008201527f2079657400000000000000000000000000000000000000000000000000000000602082015250565b7f45524332303a204e6f7420656e6f75676820746f6b656e7320746f2073656e74600082015250565b7f45524332303a204e6f7420656e6f7567687420746f6b656e7320746f2062757260008201527f6e00000000000000000000000000000000000000000000000000000000000000602082015250565b7f436c61696d3a20496e766573746d656e7420686173206e6f742066696e69736860008201527f6564207965740000000000000000000000000000000000000000000000000000602082015250565b60078110614e2157614e206147e7565b5b50565b614e2d816145ed565b8114614e3857600080fd5b50565b614e448161460b565b8114614e4f57600080fd5b50565b60078110614e5f57600080fd5b50565b60048110614e6f57600080fd5b50565b614e7b81614628565b8114614e8657600080fd5b50565b614e9281614656565b8114614e9d57600080fd5b5056fea2646970667358221220805edd830df162cafff921c666456f23d9863920972232cb9c62b2dea58ae83b64736f6c63430008070033",
			"opcodes": "PUSH1 0x80 PUSH1 0x40 MSTORE PUSH1 0x1 DUP1 PUSH1 0x4 PUSH2 0x100 EXP DUP2 SLOAD DUP2 PUSH2 0xFFFF MUL NOT AND SWAP1 DUP4 PUSH2 0xFFFF AND MUL OR SWAP1 SSTORE POP CALLVALUE DUP1 ISZERO PUSH3 0x2E JUMPI PUSH1 0x0 DUP1 REVERT JUMPDEST POP PUSH1 0x40 MLOAD PUSH3 0x582B CODESIZE SUB DUP1 PUSH3 0x582B DUP4 CODECOPY DUP2 DUP2 ADD PUSH1 0x40 MSTORE DUP2 ADD SWAP1 PUSH3 0x54 SWAP2 SWAP1 PUSH3 0x519 JUMP JUMPDEST DUP8 PUSH1 0x9 SWAP1 DUP1 MLOAD SWAP1 PUSH1 0x20 ADD SWAP1 PUSH3 0x6C SWAP3 SWAP2 SWAP1 PUSH3 0x3A6 JUMP JUMPDEST POP DUP7 PUSH1 0xA SWAP1 DUP1 MLOAD SWAP1 PUSH1 0x20 ADD SWAP1 PUSH3 0x85 SWAP3 SWAP2 SWAP1 PUSH3 0x3A6 JUMP JUMPDEST POP DUP6 PUSH1 0xB PUSH1 0x0 PUSH2 0x100 EXP DUP2 SLOAD DUP2 PUSH1 0xFF MUL NOT AND SWAP1 DUP4 PUSH1 0xFF AND MUL OR SWAP1 SSTORE POP DUP5 PUSH1 0x1 PUSH1 0x7 PUSH2 0x100 EXP DUP2 SLOAD DUP2 PUSH4 0xFFFFFFFF MUL NOT AND SWAP1 DUP4 PUSH4 0xFFFFFFFF AND MUL OR SWAP1 SSTORE POP DUP2 PUSH1 0xFF AND PUSH1 0x2 DUP2 SWAP1 SSTORE POP DUP3 PUSH1 0x1 PUSH1 0x6 PUSH2 0x100 EXP DUP2 SLOAD DUP2 PUSH1 0xFF MUL NOT AND SWAP1 DUP4 PUSH1 0xFF AND MUL OR SWAP1 SSTORE POP DUP4 PUSH1 0x1 PUSH1 0x0 PUSH2 0x100 EXP DUP2 SLOAD DUP2 PUSH4 0xFFFFFFFF MUL NOT AND SWAP1 DUP4 PUSH4 0xFFFFFFFF AND MUL OR SWAP1 SSTORE POP PUSH1 0x0 PUSH1 0x8 PUSH1 0x4 PUSH2 0x100 EXP DUP2 SLOAD DUP2 PUSH1 0xFF MUL NOT AND SWAP1 DUP4 ISZERO ISZERO MUL OR SWAP1 SSTORE POP DUP1 PUSH1 0x3 PUSH1 0x1 PUSH2 0x100 EXP DUP2 SLOAD DUP2 PUSH20 0xFFFFFFFFFFFFFFFFFFFFFFFFFFFFFFFFFFFFFFFF MUL NOT AND SWAP1 DUP4 PUSH20 0xFFFFFFFFFFFFFFFFFFFFFFFFFFFFFFFFFFFFFFFF AND MUL OR SWAP1 SSTORE POP CALLER PUSH1 0x8 PUSH1 0x5 PUSH2 0x100 EXP DUP2 SLOAD DUP2 PUSH20 0xFFFFFFFFFFFFFFFFFFFFFFFFFFFFFFFFFFFFFFFF MUL NOT AND SWAP1 DUP4 PUSH20 0xFFFFFFFFFFFFFFFFFFFFFFFFFFFFFFFFFFFFFFFF AND MUL OR SWAP1 SSTORE POP PUSH3 0x1B5 PUSH3 0x25E PUSH1 0x20 SHL PUSH1 0x20 SHR JUMP JUMPDEST PUSH3 0x1C8 PUSH1 0x1 DUP1 PUSH3 0x267 PUSH1 0x20 SHL PUSH1 0x20 SHR JUMP JUMPDEST PUSH3 0x1DC PUSH1 0x0 PUSH1 0x1 PUSH3 0x267 PUSH1 0x20 SHL PUSH1 0x20 SHR JUMP JUMPDEST PUSH32 0xBA0BA0419259E3BFAACBAF85CC56102B8DDD36C370A4E35FFDDC951E917FE36A ADDRESS PUSH1 0x1 PUSH1 0x7 SWAP1 SLOAD SWAP1 PUSH2 0x100 EXP SWAP1 DIV PUSH4 0xFFFFFFFF AND PUSH1 0x1 PUSH1 0x0 SWAP1 SLOAD SWAP1 PUSH2 0x100 EXP SWAP1 DIV PUSH4 0xFFFFFFFF AND PUSH1 0x1 PUSH1 0x6 SWAP1 SLOAD SWAP1 PUSH2 0x100 EXP SWAP1 DIV PUSH1 0xFF AND TIMESTAMP PUSH1 0x40 MLOAD PUSH3 0x248 SWAP6 SWAP5 SWAP4 SWAP3 SWAP2 SWAP1 PUSH3 0x664 JUMP JUMPDEST PUSH1 0x40 MLOAD DUP1 SWAP2 SUB SWAP1 LOG1 POP POP POP POP POP POP POP POP PUSH3 0x945 JUMP JUMPDEST TIMESTAMP PUSH1 0x0 DUP2 SWAP1 SSTORE POP JUMP JUMPDEST PUSH1 0x0 PUSH1 0x3 DUP2 GT ISZERO PUSH3 0x27E JUMPI PUSH3 0x27D PUSH3 0x845 JUMP JUMPDEST JUMPDEST DUP3 PUSH1 0x3 DUP2 GT ISZERO PUSH3 0x294 JUMPI PUSH3 0x293 PUSH3 0x845 JUMP JUMPDEST JUMPDEST EQ ISZERO PUSH3 0x2B6 JUMPI DUP1 PUSH1 0x8 PUSH1 0x0 PUSH2 0x100 EXP DUP2 SLOAD DUP2 PUSH1 0xFF MUL NOT AND SWAP1 DUP4 ISZERO ISZERO MUL OR SWAP1 SSTORE POP JUMPDEST PUSH1 0x1 PUSH1 0x3 DUP2 GT ISZERO PUSH3 0x2CD JUMPI PUSH3 0x2CC PUSH3 0x845 JUMP JUMPDEST JUMPDEST DUP3 PUSH1 0x3 DUP2 GT ISZERO PUSH3 0x2E3 JUMPI PUSH3 0x2E2 PUSH3 0x845 JUMP JUMPDEST JUMPDEST EQ ISZERO PUSH3 0x305 JUMPI DUP1 PUSH1 0x8 PUSH1 0x1 PUSH2 0x100 EXP DUP2 SLOAD DUP2 PUSH1 0xFF MUL NOT AND SWAP1 DUP4 ISZERO ISZERO MUL OR SWAP1 SSTORE POP JUMPDEST PUSH1 0x2 PUSH1 0x3 DUP2 GT ISZERO PUSH3 0x31C JUMPI PUSH3 0x31B PUSH3 0x845 JUMP JUMPDEST JUMPDEST DUP3 PUSH1 0x3 DUP2 GT ISZERO PUSH3 0x332 JUMPI PUSH3 0x331 PUSH3 0x845 JUMP JUMPDEST JUMPDEST EQ ISZERO PUSH3 0x354 JUMPI DUP1 PUSH1 0x8 PUSH1 0x2 PUSH2 0x100 EXP DUP2 SLOAD DUP2 PUSH1 0xFF MUL NOT AND SWAP1 DUP4 ISZERO ISZERO MUL OR SWAP1 SSTORE POP JUMPDEST PUSH1 0x3 DUP1 DUP2 GT ISZERO PUSH3 0x36A JUMPI PUSH3 0x369 PUSH3 0x845 JUMP JUMPDEST JUMPDEST DUP3 PUSH1 0x3 DUP2 GT ISZERO PUSH3 0x380 JUMPI PUSH3 0x37F PUSH3 0x845 JUMP JUMPDEST JUMPDEST EQ ISZERO PUSH3 0x3A2 JUMPI DUP1 PUSH1 0x8 PUSH1 0x3 PUSH2 0x100 EXP DUP2 SLOAD DUP2 PUSH1 0xFF MUL NOT AND SWAP1 DUP4 ISZERO ISZERO MUL OR SWAP1 SSTORE POP JUMPDEST POP POP JUMP JUMPDEST DUP3 DUP1 SLOAD PUSH3 0x3B4 SWAP1 PUSH3 0x7D9 JUMP JUMPDEST SWAP1 PUSH1 0x0 MSTORE PUSH1 0x20 PUSH1 0x0 KECCAK256 SWAP1 PUSH1 0x1F ADD PUSH1 0x20 SWAP1 DIV DUP2 ADD SWAP3 DUP3 PUSH3 0x3D8 JUMPI PUSH1 0x0 DUP6 SSTORE PUSH3 0x424 JUMP JUMPDEST DUP3 PUSH1 0x1F LT PUSH3 0x3F3 JUMPI DUP1 MLOAD PUSH1 0xFF NOT AND DUP4 DUP1 ADD OR DUP6 SSTORE PUSH3 0x424 JUMP JUMPDEST DUP3 DUP1 ADD PUSH1 0x1 ADD DUP6 SSTORE DUP3 ISZERO PUSH3 0x424 JUMPI SWAP2 DUP3 ADD JUMPDEST DUP3 DUP2 GT ISZERO PUSH3 0x423 JUMPI DUP3 MLOAD DUP3 SSTORE SWAP2 PUSH1 0x20 ADD SWAP2 SWAP1 PUSH1 0x1 ADD SWAP1 PUSH3 0x406 JUMP JUMPDEST JUMPDEST POP SWAP1 POP PUSH3 0x433 SWAP2 SWAP1 PUSH3 0x437 JUMP JUMPDEST POP SWAP1 JUMP JUMPDEST JUMPDEST DUP1 DUP3 GT ISZERO PUSH3 0x452 JUMPI PUSH1 0x0 DUP2 PUSH1 0x0 SWAP1 SSTORE POP PUSH1 0x1 ADD PUSH3 0x438 JUMP JUMPDEST POP SWAP1 JUMP JUMPDEST PUSH1 0x0 PUSH3 0x46D PUSH3 0x467 DUP5 PUSH3 0x6EA JUMP JUMPDEST PUSH3 0x6C1 JUMP JUMPDEST SWAP1 POP DUP3 DUP2 MSTORE PUSH1 0x20 DUP2 ADD DUP5 DUP5 DUP5 ADD GT ISZERO PUSH3 0x48C JUMPI PUSH3 0x48B PUSH3 0x8D7 JUMP JUMPDEST JUMPDEST PUSH3 0x499 DUP5 DUP3 DUP6 PUSH3 0x7A3 JUMP JUMPDEST POP SWAP4 SWAP3 POP POP POP JUMP JUMPDEST PUSH1 0x0 DUP2 MLOAD SWAP1 POP PUSH3 0x4B2 DUP2 PUSH3 0x8F7 JUMP JUMPDEST SWAP3 SWAP2 POP POP JUMP JUMPDEST PUSH1 0x0 DUP3 PUSH1 0x1F DUP4 ADD SLT PUSH3 0x4D0 JUMPI PUSH3 0x4CF PUSH3 0x8D2 JUMP JUMPDEST JUMPDEST DUP2 MLOAD PUSH3 0x4E2 DUP5 DUP3 PUSH1 0x20 DUP7 ADD PUSH3 0x456 JUMP JUMPDEST SWAP2 POP POP SWAP3 SWAP2 POP POP JUMP JUMPDEST PUSH1 0x0 DUP2 MLOAD SWAP1 POP PUSH3 0x4FC DUP2 PUSH3 0x911 JUMP JUMPDEST SWAP3 SWAP2 POP POP JUMP JUMPDEST PUSH1 0x0 DUP2 MLOAD SWAP1 POP PUSH3 0x513 DUP2 PUSH3 0x92B JUMP JUMPDEST SWAP3 SWAP2 POP POP JUMP JUMPDEST PUSH1 0x0 DUP1 PUSH1 0x0 DUP1 PUSH1 0x0 DUP1 PUSH1 0x0 DUP1 PUSH2 0x100 DUP10 DUP12 SUB SLT ISZERO PUSH3 0x53D JUMPI PUSH3 0x53C PUSH3 0x8E1 JUMP JUMPDEST JUMPDEST PUSH1 0x0 DUP10 ADD MLOAD PUSH8 0xFFFFFFFFFFFFFFFF DUP2 GT ISZERO PUSH3 0x55E JUMPI PUSH3 0x55D PUSH3 0x8DC JUMP JUMPDEST JUMPDEST PUSH3 0x56C DUP12 DUP3 DUP13 ADD PUSH3 0x4B8 JUMP JUMPDEST SWAP9 POP POP PUSH1 0x20 DUP10 ADD MLOAD PUSH8 0xFFFFFFFFFFFFFFFF DUP2 GT ISZERO PUSH3 0x590 JUMPI PUSH3 0x58F PUSH3 0x8DC JUMP JUMPDEST JUMPDEST PUSH3 0x59E DUP12 DUP3 DUP13 ADD PUSH3 0x4B8 JUMP JUMPDEST SWAP8 POP POP PUSH1 0x40 PUSH3 0x5B1 DUP12 DUP3 DUP13 ADD PUSH3 0x502 JUMP JUMPDEST SWAP7 POP POP PUSH1 0x60 PUSH3 0x5C4 DUP12 DUP3 DUP13 ADD PUSH3 0x4EB JUMP JUMPDEST SWAP6 POP POP PUSH1 0x80 PUSH3 0x5D7 DUP12 DUP3 DUP13 ADD PUSH3 0x4EB JUMP JUMPDEST SWAP5 POP POP PUSH1 0xA0 PUSH3 0x5EA DUP12 DUP3 DUP13 ADD PUSH3 0x502 JUMP JUMPDEST SWAP4 POP POP PUSH1 0xC0 PUSH3 0x5FD DUP12 DUP3 DUP13 ADD PUSH3 0x502 JUMP JUMPDEST SWAP3 POP POP PUSH1 0xE0 PUSH3 0x610 DUP12 DUP3 DUP13 ADD PUSH3 0x4A1 JUMP JUMPDEST SWAP2 POP POP SWAP3 SWAP6 SWAP9 POP SWAP3 SWAP6 SWAP9 SWAP1 SWAP4 SWAP7 POP JUMP JUMPDEST PUSH3 0x62B DUP2 PUSH3 0x720 JUMP JUMPDEST DUP3 MSTORE POP POP JUMP JUMPDEST PUSH3 0x63C DUP2 PUSH3 0x754 JUMP JUMPDEST DUP3 MSTORE POP POP JUMP JUMPDEST PUSH3 0x64D DUP2 PUSH3 0x77B JUMP JUMPDEST DUP3 MSTORE POP POP JUMP JUMPDEST PUSH3 0x65E DUP2 PUSH3 0x78F JUMP JUMPDEST DUP3 MSTORE POP POP JUMP JUMPDEST PUSH1 0x0 PUSH1 0xA0 DUP3 ADD SWAP1 POP PUSH3 0x67B PUSH1 0x0 DUP4 ADD DUP9 PUSH3 0x620 JUMP JUMPDEST PUSH3 0x68A PUSH1 0x20 DUP4 ADD DUP8 PUSH3 0x642 JUMP JUMPDEST PUSH3 0x699 PUSH1 0x40 DUP4 ADD DUP7 PUSH3 0x642 JUMP JUMPDEST PUSH3 0x6A8 PUSH1 0x60 DUP4 ADD DUP6 PUSH3 0x653 JUMP JUMPDEST PUSH3 0x6B7 PUSH1 0x80 DUP4 ADD DUP5 PUSH3 0x631 JUMP JUMPDEST SWAP7 SWAP6 POP POP POP POP POP POP JUMP JUMPDEST PUSH1 0x0 PUSH3 0x6CD PUSH3 0x6E0 JUMP JUMPDEST SWAP1 POP PUSH3 0x6DB DUP3 DUP3 PUSH3 0x80F JUMP JUMPDEST SWAP2 SWAP1 POP JUMP JUMPDEST PUSH1 0x0 PUSH1 0x40 MLOAD SWAP1 POP SWAP1 JUMP JUMPDEST PUSH1 0x0 PUSH8 0xFFFFFFFFFFFFFFFF DUP3 GT ISZERO PUSH3 0x708 JUMPI PUSH3 0x707 PUSH3 0x8A3 JUMP JUMPDEST JUMPDEST PUSH3 0x713 DUP3 PUSH3 0x8E6 JUMP JUMPDEST SWAP1 POP PUSH1 0x20 DUP2 ADD SWAP1 POP SWAP2 SWAP1 POP JUMP JUMPDEST PUSH1 0x0 PUSH3 0x72D DUP3 PUSH3 0x734 JUMP JUMPDEST SWAP1 POP SWAP2 SWAP1 POP JUMP JUMPDEST PUSH1 0x0 PUSH20 0xFFFFFFFFFFFFFFFFFFFFFFFFFFFFFFFFFFFFFFFF DUP3 AND SWAP1 POP SWAP2 SWAP1 POP JUMP JUMPDEST PUSH1 0x0 DUP2 SWAP1 POP SWAP2 SWAP1 POP JUMP JUMPDEST PUSH1 0x0 PUSH4 0xFFFFFFFF DUP3 AND SWAP1 POP SWAP2 SWAP1 POP JUMP JUMPDEST PUSH1 0x0 PUSH1 0xFF DUP3 AND SWAP1 POP SWAP2 SWAP1 POP JUMP JUMPDEST PUSH1 0x0 PUSH3 0x788 DUP3 PUSH3 0x75E JUMP JUMPDEST SWAP1 POP SWAP2 SWAP1 POP JUMP JUMPDEST PUSH1 0x0 PUSH3 0x79C DUP3 PUSH3 0x76E JUMP JUMPDEST SWAP1 POP SWAP2 SWAP1 POP JUMP JUMPDEST PUSH1 0x0 JUMPDEST DUP4 DUP2 LT ISZERO PUSH3 0x7C3 JUMPI DUP1 DUP3 ADD MLOAD DUP2 DUP5 ADD MSTORE PUSH1 0x20 DUP2 ADD SWAP1 POP PUSH3 0x7A6 JUMP JUMPDEST DUP4 DUP2 GT ISZERO PUSH3 0x7D3 JUMPI PUSH1 0x0 DUP5 DUP5 ADD MSTORE JUMPDEST POP POP POP POP JUMP JUMPDEST PUSH1 0x0 PUSH1 0x2 DUP3 DIV SWAP1 POP PUSH1 0x1 DUP3 AND DUP1 PUSH3 0x7F2 JUMPI PUSH1 0x7F DUP3 AND SWAP2 POP JUMPDEST PUSH1 0x20 DUP3 LT DUP2 EQ ISZERO PUSH3 0x809 JUMPI PUSH3 0x808 PUSH3 0x874 JUMP JUMPDEST JUMPDEST POP SWAP2 SWAP1 POP JUMP JUMPDEST PUSH3 0x81A DUP3 PUSH3 0x8E6 JUMP JUMPDEST DUP2 ADD DUP2 DUP2 LT PUSH8 0xFFFFFFFFFFFFFFFF DUP3 GT OR ISZERO PUSH3 0x83C JUMPI PUSH3 0x83B PUSH3 0x8A3 JUMP JUMPDEST JUMPDEST DUP1 PUSH1 0x40 MSTORE POP POP POP JUMP JUMPDEST PUSH32 0x4E487B7100000000000000000000000000000000000000000000000000000000 PUSH1 0x0 MSTORE PUSH1 0x21 PUSH1 0x4 MSTORE PUSH1 0x24 PUSH1 0x0 REVERT JUMPDEST PUSH32 0x4E487B7100000000000000000000000000000000000000000000000000000000 PUSH1 0x0 MSTORE PUSH1 0x22 PUSH1 0x4 MSTORE PUSH1 0x24 PUSH1 0x0 REVERT JUMPDEST PUSH32 0x4E487B7100000000000000000000000000000000000000000000000000000000 PUSH1 0x0 MSTORE PUSH1 0x41 PUSH1 0x4 MSTORE PUSH1 0x24 PUSH1 0x0 REVERT JUMPDEST PUSH1 0x0 DUP1 REVERT JUMPDEST PUSH1 0x0 DUP1 REVERT JUMPDEST PUSH1 0x0 DUP1 REVERT JUMPDEST PUSH1 0x0 DUP1 REVERT JUMPDEST PUSH1 0x0 PUSH1 0x1F NOT PUSH1 0x1F DUP4 ADD AND SWAP1 POP SWAP2 SWAP1 POP JUMP JUMPDEST PUSH3 0x902 DUP2 PUSH3 0x720 JUMP JUMPDEST DUP2 EQ PUSH3 0x90E JUMPI PUSH1 0x0 DUP1 REVERT JUMPDEST POP JUMP JUMPDEST PUSH3 0x91C DUP2 PUSH3 0x75E JUMP JUMPDEST DUP2 EQ PUSH3 0x928 JUMPI PUSH1 0x0 DUP1 REVERT JUMPDEST POP JUMP JUMPDEST PUSH3 0x936 DUP2 PUSH3 0x76E JUMP JUMPDEST DUP2 EQ PUSH3 0x942 JUMPI PUSH1 0x0 DUP1 REVERT JUMPDEST POP JUMP JUMPDEST PUSH2 0x4ED6 DUP1 PUSH3 0x955 PUSH1 0x0 CODECOPY PUSH1 0x0 RETURN INVALID PUSH1 0x80 PUSH1 0x40 MSTORE PUSH1 0x4 CALLDATASIZE LT PUSH2 0x21E JUMPI PUSH1 0x0 CALLDATALOAD PUSH1 0xE0 SHR DUP1 PUSH4 0x70E98410 GT PUSH2 0x123 JUMPI DUP1 PUSH4 0xA9059CBB GT PUSH2 0xAB JUMPI DUP1 PUSH4 0xC51E1FCE GT PUSH2 0x6F JUMPI DUP1 PUSH4 0xC51E1FCE EQ PUSH2 0x88D JUMPI DUP1 PUSH4 0xC55B1AB1 EQ PUSH2 0x8A4 JUMPI DUP1 PUSH4 0xD0E30DB0 EQ PUSH2 0x8CF JUMPI DUP1 PUSH4 0xDCD8BC41 EQ PUSH2 0x8D9 JUMPI DUP1 PUSH4 0xDD62ED3E EQ PUSH2 0x904 JUMPI PUSH2 0x2C0 JUMP JUMPDEST DUP1 PUSH4 0xA9059CBB EQ PUSH2 0x7A4 JUMPI DUP1 PUSH4 0xB3D6E119 EQ PUSH2 0x7E1 JUMPI DUP1 PUSH4 0xC1CAED51 EQ PUSH2 0x80C JUMPI DUP1 PUSH4 0xC30EA2A2 EQ PUSH2 0x837 JUMPI DUP1 PUSH4 0xC4DED0FA EQ PUSH2 0x862 JUMPI PUSH2 0x2C0 JUMP JUMPDEST DUP1 PUSH4 0x92C51D3A GT PUSH2 0xF2 JUMPI DUP1 PUSH4 0x92C51D3A EQ PUSH2 0x6AA JUMPI DUP1 PUSH4 0x95D89B41 EQ PUSH2 0x6E8 JUMPI DUP1 PUSH4 0x95F3A950 EQ PUSH2 0x713 JUMPI DUP1 PUSH4 0x9ACEDA7D EQ PUSH2 0x750 JUMPI DUP1 PUSH4 0xA3C8C880 EQ PUSH2 0x77B JUMPI PUSH2 0x2C0 JUMP JUMPDEST DUP1 PUSH4 0x70E98410 EQ PUSH2 0x612 JUMPI DUP1 PUSH4 0x7DC2CD98 EQ PUSH2 0x63D JUMPI DUP1 PUSH4 0x872F0B97 EQ PUSH2 0x668 JUMPI DUP1 PUSH4 0x8DA3ABA3 EQ PUSH2 0x693 JUMPI PUSH2 0x2C0 JUMP JUMPDEST DUP1 PUSH4 0x313CE567 GT PUSH2 0x1A6 JUMPI DUP1 PUSH4 0x4975521B GT PUSH2 0x175 JUMPI DUP1 PUSH4 0x4975521B EQ PUSH2 0x52B JUMPI DUP1 PUSH4 0x50456BEF EQ PUSH2 0x556 JUMPI DUP1 PUSH4 0x53371BE0 EQ PUSH2 0x57F JUMPI DUP1 PUSH4 0x574EAB01 EQ PUSH2 0x5AA JUMPI DUP1 PUSH4 0x70A08231 EQ PUSH2 0x5D5 JUMPI PUSH2 0x2C0 JUMP JUMPDEST DUP1 PUSH4 0x313CE567 EQ PUSH2 0x46D JUMPI DUP1 PUSH4 0x392CF7AB EQ PUSH2 0x498 JUMPI DUP1 PUSH4 0x39C6EA16 EQ PUSH2 0x4C3 JUMPI DUP1 PUSH4 0x4213868B EQ PUSH2 0x500 JUMPI PUSH2 0x2C0 JUMP JUMPDEST DUP1 PUSH4 0x189B61E1 GT PUSH2 0x1ED JUMPI DUP1 PUSH4 0x189B61E1 EQ PUSH2 0x395 JUMPI DUP1 PUSH4 0x1A9703DA EQ PUSH2 0x3B1 JUMPI DUP1 PUSH4 0x1E83409A EQ PUSH2 0x3DC JUMPI DUP1 PUSH4 0x200D2ED2 EQ PUSH2 0x405 JUMPI DUP1 PUSH4 0x23B872DD EQ PUSH2 0x430 JUMPI PUSH2 0x2C0 JUMP JUMPDEST DUP1 PUSH4 0x6FDDE03 EQ PUSH2 0x2C5 JUMPI DUP1 PUSH4 0x95EA7B3 EQ PUSH2 0x2F0 JUMPI DUP1 PUSH4 0x1796B78C EQ PUSH2 0x32D JUMPI DUP1 PUSH4 0x18160DDD EQ PUSH2 0x36A JUMPI PUSH2 0x2C0 JUMP JUMPDEST CALLDATASIZE PUSH2 0x2C0 JUMPI PUSH1 0x0 SELFBALANCE SWAP1 POP PUSH1 0x0 CALLVALUE DUP3 PUSH2 0x236 SWAP2 SWAP1 PUSH2 0x4563 JUMP JUMPDEST GT ISZERO PUSH2 0x2BD JUMPI PUSH32 0xAF39FD887F15B7EABA52F7E0409FDCA53B51AC2360D25C933C3BDD5E50970911 CALLER CALLVALUE ADDRESS PUSH1 0x40 MLOAD PUSH2 0x26F SWAP4 SWAP3 SWAP2 SWAP1 PUSH2 0x3E35 JUMP JUMPDEST PUSH1 0x40 MLOAD DUP1 SWAP2 SUB SWAP1 LOG1 PUSH2 0x27F PUSH2 0x941 JUMP JUMPDEST SELFBALANCE LT PUSH2 0x2BC JUMPI PUSH1 0x1 PUSH1 0x3 PUSH1 0x0 PUSH2 0x100 EXP DUP2 SLOAD DUP2 PUSH1 0xFF MUL NOT AND SWAP1 DUP4 ISZERO ISZERO MUL OR SWAP1 SSTORE POP PUSH2 0x2BB PUSH1 0x6 DUP1 DUP2 GT ISZERO PUSH2 0x2B6 JUMPI PUSH2 0x2B5 PUSH2 0x47E7 JUMP JUMPDEST JUMPDEST PUSH2 0x94B JUMP JUMPDEST JUMPDEST JUMPDEST POP STOP JUMPDEST PUSH1 0x0 DUP1 REVERT JUMPDEST CALLVALUE DUP1 ISZERO PUSH2 0x2D1 JUMPI PUSH1 0x0 DUP1 REVERT JUMPDEST POP PUSH2 0x2DA PUSH2 0xF55 JUMP JUMPDEST PUSH1 0x40 MLOAD PUSH2 0x2E7 SWAP2 SWAP1 PUSH2 0x4031 JUMP JUMPDEST PUSH1 0x40 MLOAD DUP1 SWAP2 SUB SWAP1 RETURN JUMPDEST CALLVALUE DUP1 ISZERO PUSH2 0x2FC JUMPI PUSH1 0x0 DUP1 REVERT JUMPDEST POP PUSH2 0x317 PUSH1 0x4 DUP1 CALLDATASIZE SUB DUP2 ADD SWAP1 PUSH2 0x312 SWAP2 SWAP1 PUSH2 0x35A7 JUMP JUMPDEST PUSH2 0xFE7 JUMP JUMPDEST PUSH1 0x40 MLOAD PUSH2 0x324 SWAP2 SWAP1 PUSH2 0x3EE8 JUMP JUMPDEST PUSH1 0x40 MLOAD DUP1 SWAP2 SUB SWAP1 RETURN JUMPDEST CALLVALUE DUP1 ISZERO PUSH2 0x339 JUMPI PUSH1 0x0 DUP1 REVERT JUMPDEST POP PUSH2 0x354 PUSH1 0x4 DUP1 CALLDATASIZE SUB DUP2 ADD SWAP1 PUSH2 0x34F SWAP2 SWAP1 PUSH2 0x368A JUMP JUMPDEST PUSH2 0xFFE JUMP JUMPDEST PUSH1 0x40 MLOAD PUSH2 0x361 SWAP2 SWAP1 PUSH2 0x3EE8 JUMP JUMPDEST PUSH1 0x40 MLOAD DUP1 SWAP2 SUB SWAP1 RETURN JUMPDEST CALLVALUE DUP1 ISZERO PUSH2 0x376 JUMPI PUSH1 0x0 DUP1 REVERT JUMPDEST POP PUSH2 0x37F PUSH2 0x941 JUMP JUMPDEST PUSH1 0x40 MLOAD PUSH2 0x38C SWAP2 SWAP1 PUSH2 0x4349 JUMP JUMPDEST PUSH1 0x40 MLOAD DUP1 SWAP2 SUB SWAP1 RETURN JUMPDEST PUSH2 0x3AF PUSH1 0x4 DUP1 CALLDATASIZE SUB DUP2 ADD SWAP1 PUSH2 0x3AA SWAP2 SWAP1 PUSH2 0x34E7 JUMP JUMPDEST PUSH2 0x1118 JUMP JUMPDEST STOP JUMPDEST CALLVALUE DUP1 ISZERO PUSH2 0x3BD JUMPI PUSH1 0x0 DUP1 REVERT JUMPDEST POP PUSH2 0x3C6 PUSH2 0x1363 JUMP JUMPDEST PUSH1 0x40 MLOAD PUSH2 0x3D3 SWAP2 SWAP1 PUSH2 0x4409 JUMP JUMPDEST PUSH1 0x40 MLOAD DUP1 SWAP2 SUB SWAP1 RETURN JUMPDEST CALLVALUE DUP1 ISZERO PUSH2 0x3E8 JUMPI PUSH1 0x0 DUP1 REVERT JUMPDEST POP PUSH2 0x403 PUSH1 0x4 DUP1 CALLDATASIZE SUB DUP2 ADD SWAP1 PUSH2 0x3FE SWAP2 SWAP1 PUSH2 0x34E7 JUMP JUMPDEST PUSH2 0x1379 JUMP JUMPDEST STOP JUMPDEST CALLVALUE DUP1 ISZERO PUSH2 0x411 JUMPI PUSH1 0x0 DUP1 REVERT JUMPDEST POP PUSH2 0x41A PUSH2 0x1478 JUMP JUMPDEST PUSH1 0x40 MLOAD PUSH2 0x427 SWAP2 SWAP1 PUSH2 0x3F7F JUMP JUMPDEST PUSH1 0x40 MLOAD DUP1 SWAP2 SUB SWAP1 RETURN JUMPDEST CALLVALUE DUP1 ISZERO PUSH2 0x43C JUMPI PUSH1 0x0 DUP1 REVERT JUMPDEST POP PUSH2 0x457 PUSH1 0x4 DUP1 CALLDATASIZE SUB DUP2 ADD SWAP1 PUSH2 0x452 SWAP2 SWAP1 PUSH2 0x3554 JUMP JUMPDEST PUSH2 0x148B JUMP JUMPDEST PUSH1 0x40 MLOAD PUSH2 0x464 SWAP2 SWAP1 PUSH2 0x3EE8 JUMP JUMPDEST PUSH1 0x40 MLOAD DUP1 SWAP2 SUB SWAP1 RETURN JUMPDEST CALLVALUE DUP1 ISZERO PUSH2 0x479 JUMPI PUSH1 0x0 DUP1 REVERT JUMPDEST POP PUSH2 0x482 PUSH2 0x16C5 JUMP JUMPDEST PUSH1 0x40 MLOAD PUSH2 0x48F SWAP2 SWAP1 PUSH2 0x4424 JUMP JUMPDEST PUSH1 0x40 MLOAD DUP1 SWAP2 SUB SWAP1 RETURN JUMPDEST CALLVALUE DUP1 ISZERO PUSH2 0x4A4 JUMPI PUSH1 0x0 DUP1 REVERT JUMPDEST POP PUSH2 0x4AD PUSH2 0x16DC JUMP JUMPDEST PUSH1 0x40 MLOAD PUSH2 0x4BA SWAP2 SWAP1 PUSH2 0x3EE8 JUMP JUMPDEST PUSH1 0x40 MLOAD DUP1 SWAP2 SUB SWAP1 RETURN JUMPDEST CALLVALUE DUP1 ISZERO PUSH2 0x4CF JUMPI PUSH1 0x0 DUP1 REVERT JUMPDEST POP PUSH2 0x4EA PUSH1 0x4 DUP1 CALLDATASIZE SUB DUP2 ADD SWAP1 PUSH2 0x4E5 SWAP2 SWAP1 PUSH2 0x378E JUMP JUMPDEST PUSH2 0x1781 JUMP JUMPDEST PUSH1 0x40 MLOAD PUSH2 0x4F7 SWAP2 SWAP1 PUSH2 0x3EE8 JUMP JUMPDEST PUSH1 0x40 MLOAD DUP1 SWAP2 SUB SWAP1 RETURN JUMPDEST CALLVALUE DUP1 ISZERO PUSH2 0x50C JUMPI PUSH1 0x0 DUP1 REVERT JUMPDEST POP PUSH2 0x515 PUSH2 0x17B0 JUMP JUMPDEST PUSH1 0x40 MLOAD PUSH2 0x522 SWAP2 SWAP1 PUSH2 0x3EE8 JUMP JUMPDEST PUSH1 0x40 MLOAD DUP1 SWAP2 SUB SWAP1 RETURN JUMPDEST CALLVALUE DUP1 ISZERO PUSH2 0x537 JUMPI PUSH1 0x0 DUP1 REVERT JUMPDEST POP PUSH2 0x540 PUSH2 0x1845 JUMP JUMPDEST PUSH1 0x40 MLOAD PUSH2 0x54D SWAP2 SWAP1 PUSH2 0x4313 JUMP JUMPDEST PUSH1 0x40 MLOAD DUP1 SWAP2 SUB SWAP1 RETURN JUMPDEST CALLVALUE DUP1 ISZERO PUSH2 0x562 JUMPI PUSH1 0x0 DUP1 REVERT JUMPDEST POP PUSH2 0x57D PUSH1 0x4 DUP1 CALLDATASIZE SUB DUP2 ADD SWAP1 PUSH2 0x578 SWAP2 SWAP1 PUSH2 0x37FB JUMP JUMPDEST PUSH2 0x1859 JUMP JUMPDEST STOP JUMPDEST CALLVALUE DUP1 ISZERO PUSH2 0x58B JUMPI PUSH1 0x0 DUP1 REVERT JUMPDEST POP PUSH2 0x594 PUSH2 0x195F JUMP JUMPDEST PUSH1 0x40 MLOAD PUSH2 0x5A1 SWAP2 SWAP1 PUSH2 0x3EE8 JUMP JUMPDEST PUSH1 0x40 MLOAD DUP1 SWAP2 SUB SWAP1 RETURN JUMPDEST CALLVALUE DUP1 ISZERO PUSH2 0x5B6 JUMPI PUSH1 0x0 DUP1 REVERT JUMPDEST POP PUSH2 0x5BF PUSH2 0x1972 JUMP JUMPDEST PUSH1 0x40 MLOAD PUSH2 0x5CC SWAP2 SWAP1 PUSH2 0x3EE8 JUMP JUMPDEST PUSH1 0x40 MLOAD DUP1 SWAP2 SUB SWAP1 RETURN JUMPDEST CALLVALUE DUP1 ISZERO PUSH2 0x5E1 JUMPI PUSH1 0x0 DUP1 REVERT JUMPDEST POP PUSH2 0x5FC PUSH1 0x4 DUP1 CALLDATASIZE SUB DUP2 ADD SWAP1 PUSH2 0x5F7 SWAP2 SWAP1 PUSH2 0x34E7 JUMP JUMPDEST PUSH2 0x1985 JUMP JUMPDEST PUSH1 0x40 MLOAD PUSH2 0x609 SWAP2 SWAP1 PUSH2 0x4349 JUMP JUMPDEST PUSH1 0x40 MLOAD DUP1 SWAP2 SUB SWAP1 RETURN JUMPDEST CALLVALUE DUP1 ISZERO PUSH2 0x61E JUMPI PUSH1 0x0 DUP1 REVERT JUMPDEST POP PUSH2 0x627 PUSH2 0x19CE JUMP JUMPDEST PUSH1 0x40 MLOAD PUSH2 0x634 SWAP2 SWAP1 PUSH2 0x3EE8 JUMP JUMPDEST PUSH1 0x40 MLOAD DUP1 SWAP2 SUB SWAP1 RETURN JUMPDEST CALLVALUE DUP1 ISZERO PUSH2 0x649 JUMPI PUSH1 0x0 DUP1 REVERT JUMPDEST POP PUSH2 0x652 PUSH2 0x19E1 JUMP JUMPDEST PUSH1 0x40 MLOAD PUSH2 0x65F SWAP2 SWAP1 PUSH2 0x4349 JUMP JUMPDEST PUSH1 0x40 MLOAD DUP1 SWAP2 SUB SWAP1 RETURN JUMPDEST CALLVALUE DUP1 ISZERO PUSH2 0x674 JUMPI PUSH1 0x0 DUP1 REVERT JUMPDEST POP PUSH2 0x67D PUSH2 0x19E7 JUMP JUMPDEST PUSH1 0x40 MLOAD PUSH2 0x68A SWAP2 SWAP1 PUSH2 0x3EE8 JUMP JUMPDEST PUSH1 0x40 MLOAD DUP1 SWAP2 SUB SWAP1 RETURN JUMPDEST CALLVALUE DUP1 ISZERO PUSH2 0x69F JUMPI PUSH1 0x0 DUP1 REVERT JUMPDEST POP PUSH2 0x6A8 PUSH2 0x19FA JUMP JUMPDEST STOP JUMPDEST CALLVALUE DUP1 ISZERO PUSH2 0x6B6 JUMPI PUSH1 0x0 DUP1 REVERT JUMPDEST POP PUSH2 0x6D1 PUSH1 0x4 DUP1 CALLDATASIZE SUB DUP2 ADD SWAP1 PUSH2 0x6CC SWAP2 SWAP1 PUSH2 0x34E7 JUMP JUMPDEST PUSH2 0x1A50 JUMP JUMPDEST PUSH1 0x40 MLOAD PUSH2 0x6DF SWAP3 SWAP2 SWAP1 PUSH2 0x43A9 JUMP JUMPDEST PUSH1 0x40 MLOAD DUP1 SWAP2 SUB SWAP1 RETURN JUMPDEST CALLVALUE DUP1 ISZERO PUSH2 0x6F4 JUMPI PUSH1 0x0 DUP1 REVERT JUMPDEST POP PUSH2 0x6FD PUSH2 0x1A74 JUMP JUMPDEST PUSH1 0x40 MLOAD PUSH2 0x70A SWAP2 SWAP1 PUSH2 0x4031 JUMP JUMPDEST PUSH1 0x40 MLOAD DUP1 SWAP2 SUB SWAP1 RETURN JUMPDEST CALLVALUE DUP1 ISZERO PUSH2 0x71F JUMPI PUSH1 0x0 DUP1 REVERT JUMPDEST POP PUSH2 0x73A PUSH1 0x4 DUP1 CALLDATASIZE SUB DUP2 ADD SWAP1 PUSH2 0x735 SWAP2 SWAP1 PUSH2 0x365D JUMP JUMPDEST PUSH2 0x1B06 JUMP JUMPDEST PUSH1 0x40 MLOAD PUSH2 0x747 SWAP2 SWAP1 PUSH2 0x3EE8 JUMP JUMPDEST PUSH1 0x40 MLOAD DUP1 SWAP2 SUB SWAP1 RETURN JUMPDEST CALLVALUE DUP1 ISZERO PUSH2 0x75C JUMPI PUSH1 0x0 DUP1 REVERT JUMPDEST POP PUSH2 0x765 PUSH2 0x1B45 JUMP JUMPDEST PUSH1 0x40 MLOAD PUSH2 0x772 SWAP2 SWAP1 PUSH2 0x4424 JUMP JUMPDEST PUSH1 0x40 MLOAD DUP1 SWAP2 SUB SWAP1 RETURN JUMPDEST CALLVALUE DUP1 ISZERO PUSH2 0x787 JUMPI PUSH1 0x0 DUP1 REVERT JUMPDEST POP PUSH2 0x7A2 PUSH1 0x4 DUP1 CALLDATASIZE SUB DUP2 ADD SWAP1 PUSH2 0x79D SWAP2 SWAP1 PUSH2 0x36B7 JUMP JUMPDEST PUSH2 0x1B58 JUMP JUMPDEST STOP JUMPDEST CALLVALUE DUP1 ISZERO PUSH2 0x7B0 JUMPI PUSH1 0x0 DUP1 REVERT JUMPDEST POP PUSH2 0x7CB PUSH1 0x4 DUP1 CALLDATASIZE SUB DUP2 ADD SWAP1 PUSH2 0x7C6 SWAP2 SWAP1 PUSH2 0x35A7 JUMP JUMPDEST PUSH2 0x1FCD JUMP JUMPDEST PUSH1 0x40 MLOAD PUSH2 0x7D8 SWAP2 SWAP1 PUSH2 0x3EE8 JUMP JUMPDEST PUSH1 0x40 MLOAD DUP1 SWAP2 SUB SWAP1 RETURN JUMPDEST CALLVALUE DUP1 ISZERO PUSH2 0x7ED JUMPI PUSH1 0x0 DUP1 REVERT JUMPDEST POP PUSH2 0x7F6 PUSH2 0x213C JUMP JUMPDEST PUSH1 0x40 MLOAD PUSH2 0x803 SWAP2 SWAP1 PUSH2 0x4409 JUMP JUMPDEST PUSH1 0x40 MLOAD DUP1 SWAP2 SUB SWAP1 RETURN JUMPDEST CALLVALUE DUP1 ISZERO PUSH2 0x818 JUMPI PUSH1 0x0 DUP1 REVERT JUMPDEST POP PUSH2 0x821 PUSH2 0x2152 JUMP JUMPDEST PUSH1 0x40 MLOAD PUSH2 0x82E SWAP2 SWAP1 PUSH2 0x3D4B JUMP JUMPDEST PUSH1 0x40 MLOAD DUP1 SWAP2 SUB SWAP1 RETURN JUMPDEST CALLVALUE DUP1 ISZERO PUSH2 0x843 JUMPI PUSH1 0x0 DUP1 REVERT JUMPDEST POP PUSH2 0x84C PUSH2 0x2178 JUMP JUMPDEST PUSH1 0x40 MLOAD PUSH2 0x859 SWAP2 SWAP1 PUSH2 0x3EE8 JUMP JUMPDEST PUSH1 0x40 MLOAD DUP1 SWAP2 SUB SWAP1 RETURN JUMPDEST CALLVALUE DUP1 ISZERO PUSH2 0x86E JUMPI PUSH1 0x0 DUP1 REVERT JUMPDEST POP PUSH2 0x877 PUSH2 0x218B JUMP JUMPDEST PUSH1 0x40 MLOAD PUSH2 0x884 SWAP2 SWAP1 PUSH2 0x3EE8 JUMP JUMPDEST PUSH1 0x40 MLOAD DUP1 SWAP2 SUB SWAP1 RETURN JUMPDEST CALLVALUE DUP1 ISZERO PUSH2 0x899 JUMPI PUSH1 0x0 DUP1 REVERT JUMPDEST POP PUSH2 0x8A2 PUSH2 0x237C JUMP JUMPDEST STOP JUMPDEST CALLVALUE DUP1 ISZERO PUSH2 0x8B0 JUMPI PUSH1 0x0 DUP1 REVERT JUMPDEST POP PUSH2 0x8B9 PUSH2 0x246A JUMP JUMPDEST PUSH1 0x40 MLOAD PUSH2 0x8C6 SWAP2 SWAP1 PUSH2 0x3EE8 JUMP JUMPDEST PUSH1 0x40 MLOAD DUP1 SWAP2 SUB SWAP1 RETURN JUMPDEST PUSH2 0x8D7 PUSH2 0x2515 JUMP JUMPDEST STOP JUMPDEST CALLVALUE DUP1 ISZERO PUSH2 0x8E5 JUMPI PUSH1 0x0 DUP1 REVERT JUMPDEST POP PUSH2 0x8EE PUSH2 0x2756 JUMP JUMPDEST PUSH1 0x40 MLOAD PUSH2 0x8FB SWAP2 SWAP1 PUSH2 0x4349 JUMP JUMPDEST PUSH1 0x40 MLOAD DUP1 SWAP2 SUB SWAP1 RETURN JUMPDEST CALLVALUE DUP1 ISZERO PUSH2 0x910 JUMPI PUSH1 0x0 DUP1 REVERT JUMPDEST POP PUSH2 0x92B PUSH1 0x4 DUP1 CALLDATASIZE SUB DUP2 ADD SWAP1 PUSH2 0x926 SWAP2 SWAP1 PUSH2 0x3514 JUMP JUMPDEST PUSH2 0x275C JUMP JUMPDEST PUSH1 0x40 MLOAD PUSH2 0x938 SWAP2 SWAP1 PUSH2 0x4349 JUMP JUMPDEST PUSH1 0x40 MLOAD DUP1 SWAP2 SUB SWAP1 RETURN JUMPDEST PUSH1 0x0 PUSH1 0xC SLOAD SWAP1 POP SWAP1 JUMP JUMPDEST PUSH1 0x0 PUSH1 0x6 DUP2 GT ISZERO PUSH2 0x95F JUMPI PUSH2 0x95E PUSH2 0x47E7 JUMP JUMPDEST JUMPDEST DUP2 PUSH1 0x6 DUP2 GT ISZERO PUSH2 0x972 JUMPI PUSH2 0x971 PUSH2 0x47E7 JUMP JUMPDEST JUMPDEST EQ ISZERO PUSH2 0x9C7 JUMPI PUSH1 0x0 PUSH1 0x3 PUSH1 0x15 PUSH2 0x100 EXP DUP2 SLOAD DUP2 PUSH1 0xFF MUL NOT AND SWAP1 DUP4 PUSH1 0x6 DUP2 GT ISZERO PUSH2 0x99E JUMPI PUSH2 0x99D PUSH2 0x47E7 JUMP JUMPDEST JUMPDEST MUL OR SWAP1 SSTORE POP PUSH2 0x9AB PUSH2 0x27E3 JUMP JUMPDEST PUSH2 0x9B6 PUSH1 0x1 DUP1 PUSH2 0x27EC JUMP JUMPDEST PUSH2 0x9C2 PUSH1 0x0 PUSH1 0x1 PUSH2 0x27EC JUMP JUMPDEST PUSH2 0xF19 JUMP JUMPDEST PUSH1 0x1 PUSH1 0x6 DUP2 GT ISZERO PUSH2 0x9DB JUMPI PUSH2 0x9DA PUSH2 0x47E7 JUMP JUMPDEST JUMPDEST PUSH1 0x6 DUP2 GT ISZERO PUSH2 0x9ED JUMPI PUSH2 0x9EC PUSH2 0x47E7 JUMP JUMPDEST JUMPDEST DUP2 PUSH1 0x6 DUP2 GT ISZERO PUSH2 0xA00 JUMPI PUSH2 0x9FF PUSH2 0x47E7 JUMP JUMPDEST JUMPDEST EQ ISZERO PUSH2 0xB28 JUMPI PUSH2 0xA0E PUSH2 0x19FA JUMP JUMPDEST PUSH9 0x1BC16D674EC800000 SELFBALANCE EQ PUSH2 0xA59 JUMPI PUSH1 0x40 MLOAD PUSH32 0x8C379A000000000000000000000000000000000000000000000000000000000 DUP2 MSTORE PUSH1 0x4 ADD PUSH2 0xA50 SWAP1 PUSH2 0x41B3 JUMP JUMPDEST PUSH1 0x40 MLOAD DUP1 SWAP2 SUB SWAP1 REVERT JUMPDEST PUSH2 0xA63 PUSH1 0x0 PUSH2 0x1B06 JUMP JUMPDEST PUSH2 0xAA2 JUMPI PUSH1 0x40 MLOAD PUSH32 0x8C379A000000000000000000000000000000000000000000000000000000000 DUP2 MSTORE PUSH1 0x4 ADD PUSH2 0xA99 SWAP1 PUSH2 0x4233 JUMP JUMPDEST PUSH1 0x40 MLOAD DUP1 SWAP2 SUB SWAP1 REVERT JUMPDEST PUSH1 0x1 PUSH1 0x3 PUSH1 0x15 PUSH2 0x100 EXP DUP2 SLOAD DUP2 PUSH1 0xFF MUL NOT AND SWAP1 DUP4 PUSH1 0x6 DUP2 GT ISZERO PUSH2 0xAC8 JUMPI PUSH2 0xAC7 PUSH2 0x47E7 JUMP JUMPDEST JUMPDEST MUL OR SWAP1 SSTORE POP PUSH32 0x70C726341B026231E864D364A70A9860F47181FF3BA90C5CA03B9B53C23B35AB ADDRESS PUSH1 0x1 PUSH1 0x7 SWAP1 SLOAD SWAP1 PUSH2 0x100 EXP SWAP1 DIV PUSH4 0xFFFFFFFF AND PUSH1 0x40 MLOAD PUSH2 0xB10 SWAP3 SWAP2 SWAP1 PUSH2 0x3EBF JUMP JUMPDEST PUSH1 0x40 MLOAD DUP1 SWAP2 SUB SWAP1 LOG1 PUSH2 0xB23 PUSH1 0x0 DUP1 PUSH2 0x27EC JUMP JUMPDEST PUSH2 0xF18 JUMP JUMPDEST PUSH1 0x2 PUSH1 0x6 DUP2 GT ISZERO PUSH2 0xB3C JUMPI PUSH2 0xB3B PUSH2 0x47E7 JUMP JUMPDEST JUMPDEST PUSH1 0x6 DUP2 GT ISZERO PUSH2 0xB4E JUMPI PUSH2 0xB4D PUSH2 0x47E7 JUMP JUMPDEST JUMPDEST DUP2 PUSH1 0x6 DUP2 GT ISZERO PUSH2 0xB61 JUMPI PUSH2 0xB60 PUSH2 0x47E7 JUMP JUMPDEST JUMPDEST EQ ISZERO PUSH2 0xBFF JUMPI PUSH2 0xB71 PUSH1 0x1 PUSH2 0x1B06 JUMP JUMPDEST ISZERO PUSH2 0xB7F JUMPI PUSH2 0xB7E PUSH2 0x27E3 JUMP JUMPDEST JUMPDEST PUSH1 0x1 DUP1 PUSH1 0x4 DUP3 DUP3 DUP3 SWAP1 SLOAD SWAP1 PUSH2 0x100 EXP SWAP1 DIV PUSH2 0xFFFF AND PUSH2 0xB9E SWAP2 SWAP1 PUSH2 0x452B JUMP JUMPDEST SWAP3 POP PUSH2 0x100 EXP DUP2 SLOAD DUP2 PUSH2 0xFFFF MUL NOT AND SWAP1 DUP4 PUSH2 0xFFFF AND MUL OR SWAP1 SSTORE POP PUSH1 0x2 PUSH1 0x3 PUSH1 0x15 PUSH2 0x100 EXP DUP2 SLOAD DUP2 PUSH1 0xFF MUL NOT AND SWAP1 DUP4 PUSH1 0x6 DUP2 GT ISZERO PUSH2 0xBDE JUMPI PUSH2 0xBDD PUSH2 0x47E7 JUMP JUMPDEST JUMPDEST MUL OR SWAP1 SSTORE POP PUSH2 0xBEE PUSH1 0x1 DUP1 PUSH2 0x27EC JUMP JUMPDEST PUSH2 0xBFA PUSH1 0x3 PUSH1 0x0 PUSH2 0x27EC JUMP JUMPDEST PUSH2 0xF17 JUMP JUMPDEST PUSH1 0x3 PUSH1 0x6 DUP2 GT ISZERO PUSH2 0xC13 JUMPI PUSH2 0xC12 PUSH2 0x47E7 JUMP JUMPDEST JUMPDEST PUSH1 0x6 DUP2 GT ISZERO PUSH2 0xC25 JUMPI PUSH2 0xC24 PUSH2 0x47E7 JUMP JUMPDEST JUMPDEST DUP2 PUSH1 0x6 DUP2 GT ISZERO PUSH2 0xC38 JUMPI PUSH2 0xC37 PUSH2 0x47E7 JUMP JUMPDEST JUMPDEST EQ ISZERO PUSH2 0xC8D JUMPI PUSH1 0x3 DUP1 PUSH1 0x15 PUSH2 0x100 EXP DUP2 SLOAD DUP2 PUSH1 0xFF MUL NOT AND SWAP1 DUP4 PUSH1 0x6 DUP2 GT ISZERO PUSH2 0xC63 JUMPI PUSH2 0xC62 PUSH2 0x47E7 JUMP JUMPDEST JUMPDEST MUL OR SWAP1 SSTORE POP PUSH2 0xC70 PUSH2 0x27E3 JUMP JUMPDEST PUSH2 0xC7C PUSH1 0x1 PUSH1 0x0 PUSH2 0x27EC JUMP JUMPDEST PUSH2 0xC88 PUSH1 0x3 PUSH1 0x1 PUSH2 0x27EC JUMP JUMPDEST PUSH2 0xF16 JUMP JUMPDEST PUSH1 0x4 PUSH1 0x6 DUP2 GT ISZERO PUSH2 0xCA1 JUMPI PUSH2 0xCA0 PUSH2 0x47E7 JUMP JUMPDEST JUMPDEST PUSH1 0x6 DUP2 GT ISZERO PUSH2 0xCB3 JUMPI PUSH2 0xCB2 PUSH2 0x47E7 JUMP JUMPDEST JUMPDEST DUP2 PUSH1 0x6 DUP2 GT ISZERO PUSH2 0xCC6 JUMPI PUSH2 0xCC5 PUSH2 0x47E7 JUMP JUMPDEST JUMPDEST EQ ISZERO PUSH2 0xDC2 JUMPI PUSH9 0x1BC16D674EC800000 SELFBALANCE LT ISZERO PUSH2 0xD18 JUMPI PUSH1 0x40 MLOAD PUSH32 0x8C379A000000000000000000000000000000000000000000000000000000000 DUP2 MSTORE PUSH1 0x4 ADD PUSH2 0xD0F SWAP1 PUSH2 0x41B3 JUMP JUMPDEST PUSH1 0x40 MLOAD DUP1 SWAP2 SUB SWAP1 REVERT JUMPDEST PUSH1 0x1 ISZERO ISZERO PUSH1 0x3 PUSH1 0x0 SWAP1 SLOAD SWAP1 PUSH2 0x100 EXP SWAP1 DIV PUSH1 0xFF AND ISZERO ISZERO EQ PUSH2 0xD6E JUMPI PUSH1 0x40 MLOAD PUSH32 0x8C379A000000000000000000000000000000000000000000000000000000000 DUP2 MSTORE PUSH1 0x4 ADD PUSH2 0xD65 SWAP1 PUSH2 0x4293 JUMP JUMPDEST PUSH1 0x40 MLOAD DUP1 SWAP2 SUB SWAP1 REVERT JUMPDEST PUSH1 0x4 PUSH1 0x3 PUSH1 0x15 PUSH2 0x100 EXP DUP2 SLOAD DUP2 PUSH1 0xFF MUL NOT AND SWAP1 DUP4 PUSH1 0x6 DUP2 GT ISZERO PUSH2 0xD94 JUMPI PUSH2 0xD93 PUSH2 0x47E7 JUMP JUMPDEST JUMPDEST MUL OR SWAP1 SSTORE POP PUSH2 0xDA5 PUSH1 0x1 PUSH1 0x0 PUSH2 0x27EC JUMP JUMPDEST PUSH2 0xDB1 PUSH1 0x3 PUSH1 0x1 PUSH2 0x27EC JUMP JUMPDEST PUSH2 0xDBD PUSH1 0x2 PUSH1 0x1 PUSH2 0x27EC JUMP JUMPDEST PUSH2 0xF15 JUMP JUMPDEST PUSH1 0x5 PUSH1 0x6 DUP2 GT ISZERO PUSH2 0xDD6 JUMPI PUSH2 0xDD5 PUSH2 0x47E7 JUMP JUMPDEST JUMPDEST PUSH1 0x6 DUP2 GT ISZERO PUSH2 0xDE8 JUMPI PUSH2 0xDE7 PUSH2 0x47E7 JUMP JUMPDEST JUMPDEST DUP2 PUSH1 0x6 DUP2 GT ISZERO PUSH2 0xDFB JUMPI PUSH2 0xDFA PUSH2 0x47E7 JUMP JUMPDEST JUMPDEST EQ ISZERO PUSH2 0xE91 JUMPI PUSH2 0xE0B PUSH1 0x0 PUSH2 0x1B06 JUMP JUMPDEST PUSH2 0xE4A JUMPI PUSH1 0x40 MLOAD PUSH32 0x8C379A000000000000000000000000000000000000000000000000000000000 DUP2 MSTORE PUSH1 0x4 ADD PUSH2 0xE41 SWAP1 PUSH2 0x4273 JUMP JUMPDEST PUSH1 0x40 MLOAD DUP1 SWAP2 SUB SWAP1 REVERT JUMPDEST PUSH1 0x5 PUSH1 0x3 PUSH1 0x15 PUSH2 0x100 EXP DUP2 SLOAD DUP2 PUSH1 0xFF MUL NOT AND SWAP1 DUP4 PUSH1 0x6 DUP2 GT ISZERO PUSH2 0xE70 JUMPI PUSH2 0xE6F PUSH2 0x47E7 JUMP JUMPDEST JUMPDEST MUL OR SWAP1 SSTORE POP PUSH2 0xE81 PUSH1 0x2 PUSH1 0x1 PUSH2 0x27EC JUMP JUMPDEST PUSH2 0xE8C PUSH1 0x0 DUP1 PUSH2 0x27EC JUMP JUMPDEST PUSH2 0xF14 JUMP JUMPDEST PUSH1 0x6 DUP1 DUP2 GT ISZERO PUSH2 0xEA4 JUMPI PUSH2 0xEA3 PUSH2 0x47E7 JUMP JUMPDEST JUMPDEST PUSH1 0x6 DUP2 GT ISZERO PUSH2 0xEB6 JUMPI PUSH2 0xEB5 PUSH2 0x47E7 JUMP JUMPDEST JUMPDEST DUP2 PUSH1 0x6 DUP2 GT ISZERO PUSH2 0xEC9 JUMPI PUSH2 0xEC8 PUSH2 0x47E7 JUMP JUMPDEST JUMPDEST EQ ISZERO PUSH2 0xF13 JUMPI PUSH1 0x6 PUSH1 0x3 PUSH1 0x15 PUSH2 0x100 EXP DUP2 SLOAD DUP2 PUSH1 0xFF MUL NOT AND SWAP1 DUP4 PUSH1 0x6 DUP2 GT ISZERO PUSH2 0xEF5 JUMPI PUSH2 0xEF4 PUSH2 0x47E7 JUMP JUMPDEST JUMPDEST MUL OR SWAP1 SSTORE POP PUSH2 0xF06 PUSH1 0x1 PUSH1 0x0 PUSH2 0x27EC JUMP JUMPDEST PUSH2 0xF12 PUSH1 0x2 PUSH1 0x1 PUSH2 0x27EC JUMP JUMPDEST JUMPDEST JUMPDEST JUMPDEST JUMPDEST JUMPDEST JUMPDEST JUMPDEST PUSH32 0x272C792852C947492BBAC02ABD3264DC153F053FC803CB10C3B4B165EF7838E4 DUP2 ADDRESS PUSH1 0x40 MLOAD PUSH2 0xF4A SWAP3 SWAP2 SWAP1 PUSH2 0x3F9A JUMP JUMPDEST PUSH1 0x40 MLOAD DUP1 SWAP2 SUB SWAP1 LOG1 POP JUMP JUMPDEST PUSH1 0x60 PUSH1 0x9 DUP1 SLOAD PUSH2 0xF64 SWAP1 PUSH2 0x46F5 JUMP JUMPDEST DUP1 PUSH1 0x1F ADD PUSH1 0x20 DUP1 SWAP2 DIV MUL PUSH1 0x20 ADD PUSH1 0x40 MLOAD SWAP1 DUP2 ADD PUSH1 0x40 MSTORE DUP1 SWAP3 SWAP2 SWAP1 DUP2 DUP2 MSTORE PUSH1 0x20 ADD DUP3 DUP1 SLOAD PUSH2 0xF90 SWAP1 PUSH2 0x46F5 JUMP JUMPDEST DUP1 ISZERO PUSH2 0xFDD JUMPI DUP1 PUSH1 0x1F LT PUSH2 0xFB2 JUMPI PUSH2 0x100 DUP1 DUP4 SLOAD DIV MUL DUP4 MSTORE SWAP2 PUSH1 0x20 ADD SWAP2 PUSH2 0xFDD JUMP JUMPDEST DUP3 ADD SWAP2 SWAP1 PUSH1 0x0 MSTORE PUSH1 0x20 PUSH1 0x0 KECCAK256 SWAP1 JUMPDEST DUP2 SLOAD DUP2 MSTORE SWAP1 PUSH1 0x1 ADD SWAP1 PUSH1 0x20 ADD DUP1 DUP4 GT PUSH2 0xFC0 JUMPI DUP3 SWAP1 SUB PUSH1 0x1F AND DUP3 ADD SWAP2 JUMPDEST POP POP POP POP POP SWAP1 POP SWAP1 JUMP JUMPDEST PUSH1 0x0 PUSH2 0xFF4 CALLER DUP5 DUP5 PUSH2 0x290F JUMP JUMPDEST PUSH1 0x1 SWAP1 POP SWAP3 SWAP2 POP POP JUMP JUMPDEST PUSH1 0x0 DUP1 PUSH1 0x3 DUP2 GT ISZERO PUSH2 0x1013 JUMPI PUSH2 0x1012 PUSH2 0x47E7 JUMP JUMPDEST JUMPDEST DUP3 PUSH1 0x3 DUP2 GT ISZERO PUSH2 0x1026 JUMPI PUSH2 0x1025 PUSH2 0x47E7 JUMP JUMPDEST JUMPDEST EQ ISZERO PUSH2 0x1043 JUMPI PUSH1 0x8 PUSH1 0x0 SWAP1 SLOAD SWAP1 PUSH2 0x100 EXP SWAP1 DIV PUSH1 0xFF AND SWAP1 POP PUSH2 0x1113 JUMP JUMPDEST PUSH1 0x1 PUSH1 0x3 DUP2 GT ISZERO PUSH2 0x1057 JUMPI PUSH2 0x1056 PUSH2 0x47E7 JUMP JUMPDEST JUMPDEST DUP3 PUSH1 0x3 DUP2 GT ISZERO PUSH2 0x106A JUMPI PUSH2 0x1069 PUSH2 0x47E7 JUMP JUMPDEST JUMPDEST EQ ISZERO PUSH2 0x1087 JUMPI PUSH1 0x8 PUSH1 0x1 SWAP1 SLOAD SWAP1 PUSH2 0x100 EXP SWAP1 DIV PUSH1 0xFF AND SWAP1 POP PUSH2 0x1113 JUMP JUMPDEST PUSH1 0x2 PUSH1 0x3 DUP2 GT ISZERO PUSH2 0x109B JUMPI PUSH2 0x109A PUSH2 0x47E7 JUMP JUMPDEST JUMPDEST DUP3 PUSH1 0x3 DUP2 GT ISZERO PUSH2 0x10AE JUMPI PUSH2 0x10AD PUSH2 0x47E7 JUMP JUMPDEST JUMPDEST EQ ISZERO PUSH2 0x10CB JUMPI PUSH1 0x8 PUSH1 0x2 SWAP1 SLOAD SWAP1 PUSH2 0x100 EXP SWAP1 DIV PUSH1 0xFF AND SWAP1 POP PUSH2 0x1113 JUMP JUMPDEST PUSH1 0x3 DUP1 DUP2 GT ISZERO PUSH2 0x10DE JUMPI PUSH2 0x10DD PUSH2 0x47E7 JUMP JUMPDEST JUMPDEST DUP3 PUSH1 0x3 DUP2 GT ISZERO PUSH2 0x10F1 JUMPI PUSH2 0x10F0 PUSH2 0x47E7 JUMP JUMPDEST JUMPDEST EQ ISZERO PUSH2 0x110E JUMPI PUSH1 0x8 PUSH1 0x3 SWAP1 SLOAD SWAP1 PUSH2 0x100 EXP SWAP1 DIV PUSH1 0xFF AND SWAP1 POP PUSH2 0x1113 JUMP JUMPDEST PUSH1 0x0 SWAP1 POP JUMPDEST SWAP2 SWAP1 POP JUMP JUMPDEST PUSH1 0x0 PUSH1 0x7 PUSH1 0x0 DUP4 PUSH20 0xFFFFFFFFFFFFFFFFFFFFFFFFFFFFFFFFFFFFFFFF AND PUSH20 0xFFFFFFFFFFFFFFFFFFFFFFFFFFFFFFFFFFFFFFFF AND DUP2 MSTORE PUSH1 0x20 ADD SWAP1 DUP2 MSTORE PUSH1 0x20 ADD PUSH1 0x0 KECCAK256 PUSH1 0x40 MLOAD DUP1 PUSH1 0x40 ADD PUSH1 0x40 MSTORE SWAP1 DUP2 PUSH1 0x0 DUP3 ADD SLOAD DUP2 MSTORE PUSH1 0x20 ADD PUSH1 0x1 DUP3 ADD SLOAD DUP2 MSTORE POP POP SWAP1 POP PUSH1 0x0 DUP2 PUSH1 0x0 ADD MLOAD GT PUSH2 0x11C1 JUMPI PUSH1 0x40 MLOAD PUSH32 0x8C379A000000000000000000000000000000000000000000000000000000000 DUP2 MSTORE PUSH1 0x4 ADD PUSH2 0x11B8 SWAP1 PUSH2 0x4073 JUMP JUMPDEST PUSH1 0x40 MLOAD DUP1 SWAP2 SUB SWAP1 REVERT JUMPDEST DUP1 PUSH1 0x20 ADD MLOAD CALLVALUE EQ PUSH2 0x1207 JUMPI PUSH1 0x40 MLOAD PUSH32 0x8C379A000000000000000000000000000000000000000000000000000000000 DUP2 MSTORE PUSH1 0x4 ADD PUSH2 0x11FE SWAP1 PUSH2 0x4093 JUMP JUMPDEST PUSH1 0x40 MLOAD DUP1 SWAP2 SUB SWAP1 REVERT JUMPDEST PUSH1 0x40 MLOAD DUP1 PUSH1 0x40 ADD PUSH1 0x40 MSTORE DUP1 PUSH1 0x0 DUP2 MSTORE PUSH1 0x20 ADD PUSH1 0x0 DUP2 MSTORE POP PUSH1 0x7 PUSH1 0x0 DUP5 PUSH20 0xFFFFFFFFFFFFFFFFFFFFFFFFFFFFFFFFFFFFFFFF AND PUSH20 0xFFFFFFFFFFFFFFFFFFFFFFFFFFFFFFFFFFFFFFFF AND DUP2 MSTORE PUSH1 0x20 ADD SWAP1 DUP2 MSTORE PUSH1 0x20 ADD PUSH1 0x0 KECCAK256 PUSH1 0x0 DUP3 ADD MLOAD DUP2 PUSH1 0x0 ADD SSTORE PUSH1 0x20 DUP3 ADD MLOAD DUP2 PUSH1 0x1 ADD SSTORE SWAP1 POP POP PUSH2 0x1283 DUP3 ADDRESS DUP4 PUSH1 0x0 ADD MLOAD PUSH2 0x2A79 JUMP JUMPDEST PUSH2 0x1292 DUP3 CALLER DUP4 PUSH1 0x0 ADD MLOAD PUSH2 0x2B05 JUMP JUMPDEST PUSH2 0x12A0 DUP3 DUP3 PUSH1 0x20 ADD MLOAD PUSH2 0x2D22 JUMP JUMPDEST PUSH32 0x2EC5F87B83D600152A19074612F00DE8FD779B7A8AB9CD96FF5469110FDE271C DUP3 CALLER DUP4 ADDRESS PUSH1 0x4 PUSH1 0x0 DUP9 PUSH20 0xFFFFFFFFFFFFFFFFFFFFFFFFFFFFFFFFFFFFFFFF AND PUSH20 0xFFFFFFFFFFFFFFFFFFFFFFFFFFFFFFFFFFFFFFFF AND DUP2 MSTORE PUSH1 0x20 ADD SWAP1 DUP2 MSTORE PUSH1 0x20 ADD PUSH1 0x0 KECCAK256 SLOAD PUSH1 0x4 PUSH1 0x0 CALLER PUSH20 0xFFFFFFFFFFFFFFFFFFFFFFFFFFFFFFFFFFFFFFFF AND PUSH20 0xFFFFFFFFFFFFFFFFFFFFFFFFFFFFFFFFFFFFFFFF AND DUP2 MSTORE PUSH1 0x20 ADD SWAP1 DUP2 MSTORE PUSH1 0x20 ADD PUSH1 0x0 KECCAK256 SLOAD PUSH1 0x40 MLOAD PUSH2 0x1357 SWAP7 SWAP6 SWAP5 SWAP4 SWAP3 SWAP2 SWAP1 PUSH2 0x3D66 JUMP JUMPDEST PUSH1 0x40 MLOAD DUP1 SWAP2 SUB SWAP1 LOG1 POP POP JUMP JUMPDEST PUSH1 0x1 PUSH1 0x0 SWAP1 SLOAD SWAP1 PUSH2 0x100 EXP SWAP1 DIV PUSH4 0xFFFFFFFF AND DUP2 JUMP JUMPDEST PUSH1 0x0 ISZERO ISZERO PUSH1 0x8 PUSH1 0x4 SWAP1 SLOAD SWAP1 PUSH2 0x100 EXP SWAP1 DIV PUSH1 0xFF AND ISZERO ISZERO EQ PUSH2 0x13CF JUMPI PUSH1 0x40 MLOAD PUSH32 0x8C379A000000000000000000000000000000000000000000000000000000000 DUP2 MSTORE PUSH1 0x4 ADD PUSH2 0x13C6 SWAP1 PUSH2 0x4193 JUMP JUMPDEST PUSH1 0x40 MLOAD DUP1 SWAP2 SUB SWAP1 REVERT JUMPDEST PUSH1 0x1 PUSH1 0x8 PUSH1 0x4 PUSH2 0x100 EXP DUP2 SLOAD DUP2 PUSH1 0xFF MUL NOT AND SWAP1 DUP4 ISZERO ISZERO MUL OR SWAP1 SSTORE POP PUSH2 0x13F2 PUSH2 0x218B JUMP JUMPDEST POP PUSH2 0x13FD PUSH1 0x3 PUSH2 0x1B06 JUMP JUMPDEST ISZERO PUSH2 0x1410 JUMPI PUSH2 0x140B DUP2 PUSH2 0x2E0E JUMP JUMPDEST PUSH2 0x145A JUMP JUMPDEST PUSH2 0x141A PUSH1 0x4 PUSH2 0x1B06 JUMP JUMPDEST ISZERO PUSH2 0x1436 JUMPI PUSH2 0x1428 DUP2 PUSH2 0x2E0E JUMP JUMPDEST PUSH2 0x1431 DUP2 PUSH2 0x3058 JUMP JUMPDEST PUSH2 0x1459 JUMP JUMPDEST PUSH2 0x1440 PUSH1 0x5 PUSH2 0x1B06 JUMP JUMPDEST ISZERO PUSH2 0x1453 JUMPI PUSH2 0x144E DUP2 PUSH2 0x3058 JUMP JUMPDEST PUSH2 0x1458 JUMP JUMPDEST PUSH1 0x0 DUP1 REVERT JUMPDEST JUMPDEST JUMPDEST PUSH1 0x0 PUSH1 0x8 PUSH1 0x4 PUSH2 0x100 EXP DUP2 SLOAD DUP2 PUSH1 0xFF MUL NOT AND SWAP1 DUP4 ISZERO ISZERO MUL OR SWAP1 SSTORE POP POP JUMP JUMPDEST PUSH1 0x3 PUSH1 0x15 SWAP1 SLOAD SWAP1 PUSH2 0x100 EXP SWAP1 DIV PUSH1 0xFF AND DUP2 JUMP JUMPDEST PUSH1 0x0 DUP1 ISZERO ISZERO PUSH1 0x8 PUSH1 0x4 SWAP1 SLOAD SWAP1 PUSH2 0x100 EXP SWAP1 DIV PUSH1 0xFF AND ISZERO ISZERO EQ PUSH2 0x14E2 JUMPI PUSH1 0x40 MLOAD PUSH32 0x8C379A000000000000000000000000000000000000000000000000000000000 DUP2 MSTORE PUSH1 0x4 ADD PUSH2 0x14D9 SWAP1 PUSH2 0x4193 JUMP JUMPDEST PUSH1 0x40 MLOAD DUP1 SWAP2 SUB SWAP1 REVERT JUMPDEST PUSH1 0x1 PUSH1 0x8 PUSH1 0x4 PUSH2 0x100 EXP DUP2 SLOAD DUP2 PUSH1 0xFF MUL NOT AND SWAP1 DUP4 ISZERO ISZERO MUL OR SWAP1 SSTORE POP PUSH1 0x1 PUSH2 0x1508 DUP2 PUSH2 0xFFE JUMP JUMPDEST PUSH2 0x1547 JUMPI PUSH1 0x40 MLOAD PUSH32 0x8C379A000000000000000000000000000000000000000000000000000000000 DUP2 MSTORE PUSH1 0x4 ADD PUSH2 0x153E SWAP1 PUSH2 0x4153 JUMP JUMPDEST PUSH1 0x40 MLOAD DUP1 SWAP2 SUB SWAP1 REVERT JUMPDEST PUSH1 0x4 PUSH1 0x0 DUP7 PUSH20 0xFFFFFFFFFFFFFFFFFFFFFFFFFFFFFFFFFFFFFFFF AND PUSH20 0xFFFFFFFFFFFFFFFFFFFFFFFFFFFFFFFFFFFFFFFF AND DUP2 MSTORE PUSH1 0x20 ADD SWAP1 DUP2 MSTORE PUSH1 0x20 ADD PUSH1 0x0 KECCAK256 SLOAD DUP4 GT ISZERO PUSH2 0x15C9 JUMPI PUSH1 0x40 MLOAD PUSH32 0x8C379A000000000000000000000000000000000000000000000000000000000 DUP2 MSTORE PUSH1 0x4 ADD PUSH2 0x15C0 SWAP1 PUSH2 0x42B3 JUMP JUMPDEST PUSH1 0x40 MLOAD DUP1 SWAP2 SUB SWAP1 REVERT JUMPDEST PUSH1 0x5 PUSH1 0x0 DUP7 PUSH20 0xFFFFFFFFFFFFFFFFFFFFFFFFFFFFFFFFFFFFFFFF AND PUSH20 0xFFFFFFFFFFFFFFFFFFFFFFFFFFFFFFFFFFFFFFFF AND DUP2 MSTORE PUSH1 0x20 ADD SWAP1 DUP2 MSTORE PUSH1 0x20 ADD PUSH1 0x0 KECCAK256 PUSH1 0x0 CALLER PUSH20 0xFFFFFFFFFFFFFFFFFFFFFFFFFFFFFFFFFFFFFFFF AND PUSH20 0xFFFFFFFFFFFFFFFFFFFFFFFFFFFFFFFFFFFFFFFF AND DUP2 MSTORE PUSH1 0x20 ADD SWAP1 DUP2 MSTORE PUSH1 0x20 ADD PUSH1 0x0 KECCAK256 SLOAD DUP4 GT ISZERO PUSH2 0x1688 JUMPI PUSH1 0x40 MLOAD PUSH32 0x8C379A000000000000000000000000000000000000000000000000000000000 DUP2 MSTORE PUSH1 0x4 ADD PUSH2 0x167F SWAP1 PUSH2 0x4253 JUMP JUMPDEST PUSH1 0x40 MLOAD DUP1 SWAP2 SUB SWAP1 REVERT JUMPDEST PUSH2 0x1693 DUP6 CALLER DUP6 PUSH2 0x2A79 JUMP JUMPDEST PUSH2 0x169E DUP6 DUP6 DUP6 PUSH2 0x2B05 JUMP JUMPDEST PUSH1 0x1 SWAP2 POP POP PUSH1 0x0 PUSH1 0x8 PUSH1 0x4 PUSH2 0x100 EXP DUP2 SLOAD DUP2 PUSH1 0xFF MUL NOT AND SWAP1 DUP4 ISZERO ISZERO MUL OR SWAP1 SSTORE POP SWAP4 SWAP3 POP POP POP JUMP JUMPDEST PUSH1 0x0 PUSH1 0xB PUSH1 0x0 SWAP1 SLOAD SWAP1 PUSH2 0x100 EXP SWAP1 DIV PUSH1 0xFF AND SWAP1 POP SWAP1 JUMP JUMPDEST PUSH1 0x0 PUSH1 0x1 PUSH1 0x6 SWAP1 SLOAD SWAP1 PUSH2 0x100 EXP SWAP1 DIV PUSH1 0xFF AND PUSH1 0xFF AND PUSH20 0x0 PUSH4 0xD99DFB86 PUSH1 0x0 SLOAD PUSH1 0x40 MLOAD DUP3 PUSH4 0xFFFFFFFF AND PUSH1 0xE0 SHL DUP2 MSTORE PUSH1 0x4 ADD PUSH2 0x172A SWAP2 SWAP1 PUSH2 0x432E JUMP JUMPDEST PUSH1 0x20 PUSH1 0x40 MLOAD DUP1 DUP4 SUB DUP2 DUP7 DUP1 EXTCODESIZE ISZERO DUP1 ISZERO PUSH2 0x1742 JUMPI PUSH1 0x0 DUP1 REVERT JUMPDEST POP GAS DELEGATECALL ISZERO DUP1 ISZERO PUSH2 0x1756 JUMPI RETURNDATASIZE PUSH1 0x0 DUP1 RETURNDATACOPY RETURNDATASIZE PUSH1 0x0 REVERT JUMPDEST POP POP POP POP PUSH1 0x40 MLOAD RETURNDATASIZE PUSH1 0x1F NOT PUSH1 0x1F DUP3 ADD AND DUP3 ADD DUP1 PUSH1 0x40 MSTORE POP DUP2 ADD SWAP1 PUSH2 0x177A SWAP2 SWAP1 PUSH2 0x37CE JUMP JUMPDEST GT ISZERO SWAP1 POP SWAP1 JUMP JUMPDEST PUSH1 0x6 PUSH1 0x20 MSTORE DUP2 PUSH1 0x0 MSTORE PUSH1 0x40 PUSH1 0x0 KECCAK256 PUSH1 0x20 MSTORE DUP1 PUSH1 0x0 MSTORE PUSH1 0x40 PUSH1 0x0 KECCAK256 PUSH1 0x0 SWAP2 POP SWAP2 POP SWAP1 SLOAD SWAP1 PUSH2 0x100 EXP SWAP1 DIV PUSH1 0xFF AND DUP2 JUMP JUMPDEST PUSH1 0x0 PUSH1 0x2 SLOAD PUSH20 0x0 PUSH4 0xD99DFB86 PUSH1 0x0 SLOAD PUSH1 0x40 MLOAD DUP3 PUSH4 0xFFFFFFFF AND PUSH1 0xE0 SHL DUP2 MSTORE PUSH1 0x4 ADD PUSH2 0x17EE SWAP2 SWAP1 PUSH2 0x432E JUMP JUMPDEST PUSH1 0x20 PUSH1 0x40 MLOAD DUP1 DUP4 SUB DUP2 DUP7 DUP1 EXTCODESIZE ISZERO DUP1 ISZERO PUSH2 0x1806 JUMPI PUSH1 0x0 DUP1 REVERT JUMPDEST POP GAS DELEGATECALL ISZERO DUP1 ISZERO PUSH2 0x181A JUMPI RETURNDATASIZE PUSH1 0x0 DUP1 RETURNDATACOPY RETURNDATASIZE PUSH1 0x0 REVERT JUMPDEST POP POP POP POP PUSH1 0x40 MLOAD RETURNDATASIZE PUSH1 0x1F NOT PUSH1 0x1F DUP3 ADD AND DUP3 ADD DUP1 PUSH1 0x40 MSTORE POP DUP2 ADD SWAP1 PUSH2 0x183E SWAP2 SWAP1 PUSH2 0x37CE JUMP JUMPDEST GT ISZERO SWAP1 POP SWAP1 JUMP JUMPDEST PUSH1 0x1 PUSH1 0x4 SWAP1 SLOAD SWAP1 PUSH2 0x100 EXP SWAP1 DIV PUSH2 0xFFFF AND DUP2 JUMP JUMPDEST DUP2 PUSH2 0x1863 CALLER PUSH2 0x1985 JUMP JUMPDEST LT ISZERO PUSH2 0x18A4 JUMPI PUSH1 0x40 MLOAD PUSH32 0x8C379A000000000000000000000000000000000000000000000000000000000 DUP2 MSTORE PUSH1 0x4 ADD PUSH2 0x189B SWAP1 PUSH2 0x4213 JUMP JUMPDEST PUSH1 0x40 MLOAD DUP1 SWAP2 SUB SWAP1 REVERT JUMPDEST PUSH2 0x18AE ADDRESS DUP4 PUSH2 0xFE7 JUMP JUMPDEST POP PUSH1 0x0 PUSH1 0x40 MLOAD DUP1 PUSH1 0x40 ADD PUSH1 0x40 MSTORE DUP1 DUP5 DUP2 MSTORE PUSH1 0x20 ADD DUP4 DUP2 MSTORE POP SWAP1 POP DUP1 PUSH1 0x7 PUSH1 0x0 CALLER PUSH20 0xFFFFFFFFFFFFFFFFFFFFFFFFFFFFFFFFFFFFFFFF AND PUSH20 0xFFFFFFFFFFFFFFFFFFFFFFFFFFFFFFFFFFFFFFFF AND DUP2 MSTORE PUSH1 0x20 ADD SWAP1 DUP2 MSTORE PUSH1 0x20 ADD PUSH1 0x0 KECCAK256 PUSH1 0x0 DUP3 ADD MLOAD DUP2 PUSH1 0x0 ADD SSTORE PUSH1 0x20 DUP3 ADD MLOAD DUP2 PUSH1 0x1 ADD SSTORE SWAP1 POP POP PUSH32 0xD9B4C66F0391B9BCB154506031791FCE68DC70DDD74AEF0D55AF607830390887 CALLER DUP3 ADDRESS PUSH1 0x40 MLOAD PUSH2 0x1952 SWAP4 SWAP3 SWAP2 SWAP1 PUSH2 0x3DFE JUMP JUMPDEST PUSH1 0x40 MLOAD DUP1 SWAP2 SUB SWAP1 LOG1 POP POP POP JUMP JUMPDEST PUSH1 0x8 PUSH1 0x1 SWAP1 SLOAD SWAP1 PUSH2 0x100 EXP SWAP1 DIV PUSH1 0xFF AND DUP2 JUMP JUMPDEST PUSH1 0x8 PUSH1 0x2 SWAP1 SLOAD SWAP1 PUSH2 0x100 EXP SWAP1 DIV PUSH1 0xFF AND DUP2 JUMP JUMPDEST PUSH1 0x0 PUSH1 0x4 PUSH1 0x0 DUP4 PUSH20 0xFFFFFFFFFFFFFFFFFFFFFFFFFFFFFFFFFFFFFFFF AND PUSH20 0xFFFFFFFFFFFFFFFFFFFFFFFFFFFFFFFFFFFFFFFF AND DUP2 MSTORE PUSH1 0x20 ADD SWAP1 DUP2 MSTORE PUSH1 0x20 ADD PUSH1 0x0 KECCAK256 SLOAD SWAP1 POP SWAP2 SWAP1 POP JUMP JUMPDEST PUSH1 0x3 PUSH1 0x0 SWAP1 SLOAD SWAP1 PUSH2 0x100 EXP SWAP1 DIV PUSH1 0xFF AND DUP2 JUMP JUMPDEST PUSH1 0x2 SLOAD DUP2 JUMP JUMPDEST PUSH1 0x8 PUSH1 0x3 SWAP1 SLOAD SWAP1 PUSH2 0x100 EXP SWAP1 DIV PUSH1 0xFF AND DUP2 JUMP JUMPDEST PUSH1 0x0 SELFBALANCE SWAP1 POP PUSH2 0x1A07 PUSH2 0x941 JUMP JUMPDEST DUP2 GT ISZERO PUSH2 0x1A4D JUMPI PUSH2 0x1A4C PUSH1 0x3 PUSH1 0x1 SWAP1 SLOAD SWAP1 PUSH2 0x100 EXP SWAP1 DIV PUSH20 0xFFFFFFFFFFFFFFFFFFFFFFFFFFFFFFFFFFFFFFFF AND PUSH2 0x1A3C PUSH2 0x941 JUMP JUMPDEST DUP4 PUSH2 0x1A47 SWAP2 SWAP1 PUSH2 0x45B9 JUMP JUMPDEST PUSH2 0x2D22 JUMP JUMPDEST JUMPDEST POP JUMP JUMPDEST PUSH1 0x7 PUSH1 0x20 MSTORE DUP1 PUSH1 0x0 MSTORE PUSH1 0x40 PUSH1 0x0 KECCAK256 PUSH1 0x0 SWAP2 POP SWAP1 POP DUP1 PUSH1 0x0 ADD SLOAD SWAP1 DUP1 PUSH1 0x1 ADD SLOAD SWAP1 POP DUP3 JUMP JUMPDEST PUSH1 0x60 PUSH1 0xA DUP1 SLOAD PUSH2 0x1A83 SWAP1 PUSH2 0x46F5 JUMP JUMPDEST DUP1 PUSH1 0x1F ADD PUSH1 0x20 DUP1 SWAP2 DIV MUL PUSH1 0x20 ADD PUSH1 0x40 MLOAD SWAP1 DUP2 ADD PUSH1 0x40 MSTORE DUP1 SWAP3 SWAP2 SWAP1 DUP2 DUP2 MSTORE PUSH1 0x20 ADD DUP3 DUP1 SLOAD PUSH2 0x1AAF SWAP1 PUSH2 0x46F5 JUMP JUMPDEST DUP1 ISZERO PUSH2 0x1AFC JUMPI DUP1 PUSH1 0x1F LT PUSH2 0x1AD1 JUMPI PUSH2 0x100 DUP1 DUP4 SLOAD DIV MUL DUP4 MSTORE SWAP2 PUSH1 0x20 ADD SWAP2 PUSH2 0x1AFC JUMP JUMPDEST DUP3 ADD SWAP2 SWAP1 PUSH1 0x0 MSTORE PUSH1 0x20 PUSH1 0x0 KECCAK256 SWAP1 JUMPDEST DUP2 SLOAD DUP2 MSTORE SWAP1 PUSH1 0x1 ADD SWAP1 PUSH1 0x20 ADD DUP1 DUP4 GT PUSH2 0x1ADF JUMPI DUP3 SWAP1 SUB PUSH1 0x1F AND DUP3 ADD SWAP2 JUMPDEST POP POP POP POP POP SWAP1 POP SWAP1 JUMP JUMPDEST PUSH1 0x0 PUSH1 0x3 PUSH1 0x15 SWAP1 SLOAD SWAP1 PUSH2 0x100 EXP SWAP1 DIV PUSH1 0xFF AND PUSH1 0x6 DUP2 GT ISZERO PUSH2 0x1B2A JUMPI PUSH2 0x1B29 PUSH2 0x47E7 JUMP JUMPDEST JUMPDEST DUP3 PUSH1 0x6 DUP2 GT ISZERO PUSH2 0x1B3D JUMPI PUSH2 0x1B3C PUSH2 0x47E7 JUMP JUMPDEST JUMPDEST EQ SWAP1 POP SWAP2 SWAP1 POP JUMP JUMPDEST PUSH1 0x1 PUSH1 0x6 SWAP1 SLOAD SWAP1 PUSH2 0x100 EXP SWAP1 DIV PUSH1 0xFF AND DUP2 JUMP JUMPDEST PUSH1 0x8 PUSH1 0x5 SWAP1 SLOAD SWAP1 PUSH2 0x100 EXP SWAP1 DIV PUSH20 0xFFFFFFFFFFFFFFFFFFFFFFFFFFFFFFFFFFFFFFFF AND PUSH20 0xFFFFFFFFFFFFFFFFFFFFFFFFFFFFFFFFFFFFFFFF AND CALLER PUSH20 0xFFFFFFFFFFFFFFFFFFFFFFFFFFFFFFFFFFFFFFFF AND EQ PUSH2 0x1BB2 JUMPI PUSH1 0x0 DUP1 REVERT JUMPDEST PUSH1 0x1 PUSH1 0x6 DUP2 GT ISZERO PUSH2 0x1BC6 JUMPI PUSH2 0x1BC5 PUSH2 0x47E7 JUMP JUMPDEST JUMPDEST PUSH1 0x3 PUSH1 0x15 SWAP1 SLOAD SWAP1 PUSH2 0x100 EXP SWAP1 DIV PUSH1 0xFF AND PUSH1 0x6 DUP2 GT ISZERO PUSH2 0x1BE8 JUMPI PUSH2 0x1BE7 PUSH2 0x47E7 JUMP JUMPDEST JUMPDEST EQ PUSH2 0x1C28 JUMPI PUSH1 0x40 MLOAD PUSH32 0x8C379A000000000000000000000000000000000000000000000000000000000 DUP2 MSTORE PUSH1 0x4 ADD PUSH2 0x1C1F SWAP1 PUSH2 0x4133 JUMP JUMPDEST PUSH1 0x40 MLOAD DUP1 SWAP2 SUB SWAP1 REVERT JUMPDEST PUSH16 0x219AB540356CBB839CBE05303D7705FA PUSH20 0xFFFFFFFFFFFFFFFFFFFFFFFFFFFFFFFFFFFFFFFF AND PUSH4 0x22895118 PUSH9 0x1BC16D674EC800000 PUSH20 0x0 PUSH4 0xE0F42B57 DUP9 PUSH1 0x40 MLOAD DUP3 PUSH4 0xFFFFFFFF AND PUSH1 0xE0 SHL DUP2 MSTORE PUSH1 0x4 ADD PUSH2 0x1C95 SWAP2 SWAP1 PUSH2 0x400F JUMP JUMPDEST PUSH1 0x0 PUSH1 0x40 MLOAD DUP1 DUP4 SUB DUP2 DUP7 DUP1 EXTCODESIZE ISZERO DUP1 ISZERO PUSH2 0x1CAD JUMPI PUSH1 0x0 DUP1 REVERT JUMPDEST POP GAS DELEGATECALL ISZERO DUP1 ISZERO PUSH2 0x1CC1 JUMPI RETURNDATASIZE PUSH1 0x0 DUP1 RETURNDATACOPY RETURNDATASIZE PUSH1 0x0 REVERT JUMPDEST POP POP POP POP PUSH1 0x40 MLOAD RETURNDATASIZE PUSH1 0x0 DUP3 RETURNDATACOPY RETURNDATASIZE PUSH1 0x1F NOT PUSH1 0x1F DUP3 ADD AND DUP3 ADD DUP1 PUSH1 0x40 MSTORE POP DUP2 ADD SWAP1 PUSH2 0x1CEA SWAP2 SWAP1 PUSH2 0x3614 JUMP JUMPDEST PUSH20 0x0 PUSH4 0xE0F42B57 DUP9 PUSH1 0x40 MLOAD DUP3 PUSH4 0xFFFFFFFF AND PUSH1 0xE0 SHL DUP2 MSTORE PUSH1 0x4 ADD PUSH2 0x1D21 SWAP2 SWAP1 PUSH2 0x400F JUMP JUMPDEST PUSH1 0x0 PUSH1 0x40 MLOAD DUP1 DUP4 SUB DUP2 DUP7 DUP1 EXTCODESIZE ISZERO DUP1 ISZERO PUSH2 0x1D39 JUMPI PUSH1 0x0 DUP1 REVERT JUMPDEST POP GAS DELEGATECALL ISZERO DUP1 ISZERO PUSH2 0x1D4D JUMPI RETURNDATASIZE PUSH1 0x0 DUP1 RETURNDATACOPY RETURNDATASIZE PUSH1 0x0 REVERT JUMPDEST POP POP POP POP PUSH1 0x40 MLOAD RETURNDATASIZE PUSH1 0x0 DUP3 RETURNDATACOPY RETURNDATASIZE PUSH1 0x1F NOT PUSH1 0x1F DUP3 ADD AND DUP3 ADD DUP1 PUSH1 0x40 MSTORE POP DUP2 ADD SWAP1 PUSH2 0x1D76 SWAP2 SWAP1 PUSH2 0x3614 JUMP JUMPDEST PUSH20 0x0 PUSH4 0xE0F42B57 DUP9 PUSH1 0x40 MLOAD DUP3 PUSH4 0xFFFFFFFF AND PUSH1 0xE0 SHL DUP2 MSTORE PUSH1 0x4 ADD PUSH2 0x1DAD SWAP2 SWAP1 PUSH2 0x400F JUMP JUMPDEST PUSH1 0x0 PUSH1 0x40 MLOAD DUP1 DUP4 SUB DUP2 DUP7 DUP1 EXTCODESIZE ISZERO DUP1 ISZERO PUSH2 0x1DC5 JUMPI PUSH1 0x0 DUP1 REVERT JUMPDEST POP GAS DELEGATECALL ISZERO DUP1 ISZERO PUSH2 0x1DD9 JUMPI RETURNDATASIZE PUSH1 0x0 DUP1 RETURNDATACOPY RETURNDATASIZE PUSH1 0x0 REVERT JUMPDEST POP POP POP POP PUSH1 0x40 MLOAD RETURNDATASIZE PUSH1 0x0 DUP3 RETURNDATACOPY RETURNDATASIZE PUSH1 0x1F NOT PUSH1 0x1F DUP3 ADD AND DUP3 ADD DUP1 PUSH1 0x40 MSTORE POP DUP2 ADD SWAP1 PUSH2 0x1E02 SWAP2 SWAP1 PUSH2 0x3614 JUMP JUMPDEST PUSH20 0x0 PUSH4 0xBFE370D9 PUSH20 0x0 PUSH4 0xE0F42B57 DUP11 PUSH1 0x40 MLOAD DUP3 PUSH4 0xFFFFFFFF AND PUSH1 0xE0 SHL DUP2 MSTORE PUSH1 0x4 ADD PUSH2 0x1E53 SWAP2 SWAP1 PUSH2 0x400F JUMP JUMPDEST PUSH1 0x0 PUSH1 0x40 MLOAD DUP1 DUP4 SUB DUP2 DUP7 DUP1 EXTCODESIZE ISZERO DUP1 ISZERO PUSH2 0x1E6B JUMPI PUSH1 0x0 DUP1 REVERT JUMPDEST POP GAS DELEGATECALL ISZERO DUP1 ISZERO PUSH2 0x1E7F JUMPI RETURNDATASIZE PUSH1 0x0 DUP1 RETURNDATACOPY RETURNDATASIZE PUSH1 0x0 REVERT JUMPDEST POP POP POP POP PUSH1 0x40 MLOAD RETURNDATASIZE PUSH1 0x0 DUP3 RETURNDATACOPY RETURNDATASIZE PUSH1 0x1F NOT PUSH1 0x1F DUP3 ADD AND DUP3 ADD DUP1 PUSH1 0x40 MSTORE POP DUP2 ADD SWAP1 PUSH2 0x1EA8 SWAP2 SWAP1 PUSH2 0x3614 JUMP JUMPDEST PUSH1 0x40 MLOAD DUP3 PUSH4 0xFFFFFFFF AND PUSH1 0xE0 SHL DUP2 MSTORE PUSH1 0x4 ADD PUSH2 0x1EC4 SWAP2 SWAP1 PUSH2 0x3F03 JUMP JUMPDEST PUSH1 0x20 PUSH1 0x40 MLOAD DUP1 DUP4 SUB DUP2 DUP7 DUP1 EXTCODESIZE ISZERO DUP1 ISZERO PUSH2 0x1EDC JUMPI PUSH1 0x0 DUP1 REVERT JUMPDEST POP GAS DELEGATECALL ISZERO DUP1 ISZERO PUSH2 0x1EF0 JUMPI RETURNDATASIZE PUSH1 0x0 DUP1 RETURNDATACOPY RETURNDATASIZE PUSH1 0x0 REVERT JUMPDEST POP POP POP POP PUSH1 0x40 MLOAD RETURNDATASIZE PUSH1 0x1F NOT PUSH1 0x1F DUP3 ADD AND DUP3 ADD DUP1 PUSH1 0x40 MSTORE POP DUP2 ADD SWAP1 PUSH2 0x1F14 SWAP2 SWAP1 PUSH2 0x35E7 JUMP JUMPDEST PUSH1 0x40 MLOAD DUP7 PUSH4 0xFFFFFFFF AND PUSH1 0xE0 SHL DUP2 MSTORE PUSH1 0x4 ADD PUSH2 0x1F33 SWAP5 SWAP4 SWAP3 SWAP2 SWAP1 PUSH2 0x3F25 JUMP JUMPDEST PUSH1 0x0 PUSH1 0x40 MLOAD DUP1 DUP4 SUB DUP2 DUP6 DUP9 DUP1 EXTCODESIZE ISZERO DUP1 ISZERO PUSH2 0x1F4C JUMPI PUSH1 0x0 DUP1 REVERT JUMPDEST POP GAS CALL ISZERO DUP1 ISZERO PUSH2 0x1F60 JUMPI RETURNDATASIZE PUSH1 0x0 DUP1 RETURNDATACOPY RETURNDATASIZE PUSH1 0x0 REVERT JUMPDEST POP POP POP POP POP PUSH2 0x1F81 PUSH1 0x2 PUSH1 0x6 DUP2 GT ISZERO PUSH2 0x1F7C JUMPI PUSH2 0x1F7B PUSH2 0x47E7 JUMP JUMPDEST JUMPDEST PUSH2 0x94B JUMP JUMPDEST PUSH32 0xF8F3BCB5F2CC3746FD305BB4CAD4C06EB284D687191FACE4DCDF7EA524464F36 PUSH9 0x1BC16D674EC800000 ADDRESS TIMESTAMP DUP8 PUSH1 0x40 MLOAD PUSH2 0x1FBF SWAP5 SWAP4 SWAP3 SWAP2 SWAP1 PUSH2 0x3FC3 JUMP JUMPDEST PUSH1 0x40 MLOAD DUP1 SWAP2 SUB SWAP1 LOG1 POP POP POP POP JUMP JUMPDEST PUSH1 0x0 DUP1 ISZERO ISZERO PUSH1 0x8 PUSH1 0x4 SWAP1 SLOAD SWAP1 PUSH2 0x100 EXP SWAP1 DIV PUSH1 0xFF AND ISZERO ISZERO EQ PUSH2 0x2024 JUMPI PUSH1 0x40 MLOAD PUSH32 0x8C379A000000000000000000000000000000000000000000000000000000000 DUP2 MSTORE PUSH1 0x4 ADD PUSH2 0x201B SWAP1 PUSH2 0x4193 JUMP JUMPDEST PUSH1 0x40 MLOAD DUP1 SWAP2 SUB SWAP1 REVERT JUMPDEST PUSH1 0x1 PUSH1 0x8 PUSH1 0x4 PUSH2 0x100 EXP DUP2 SLOAD DUP2 PUSH1 0xFF MUL NOT AND SWAP1 DUP4 ISZERO ISZERO MUL OR SWAP1 SSTORE POP PUSH1 0x1 PUSH2 0x204A DUP2 PUSH2 0xFFE JUMP JUMPDEST PUSH2 0x2089 JUMPI PUSH1 0x40 MLOAD PUSH32 0x8C379A000000000000000000000000000000000000000000000000000000000 DUP2 MSTORE PUSH1 0x4 ADD PUSH2 0x2080 SWAP1 PUSH2 0x4153 JUMP JUMPDEST PUSH1 0x40 MLOAD DUP1 SWAP2 SUB SWAP1 REVERT JUMPDEST PUSH1 0x4 PUSH1 0x0 CALLER PUSH20 0xFFFFFFFFFFFFFFFFFFFFFFFFFFFFFFFFFFFFFFFF AND PUSH20 0xFFFFFFFFFFFFFFFFFFFFFFFFFFFFFFFFFFFFFFFF AND DUP2 MSTORE PUSH1 0x20 ADD SWAP1 DUP2 MSTORE PUSH1 0x20 ADD PUSH1 0x0 KECCAK256 SLOAD DUP4 GT ISZERO PUSH2 0x210B JUMPI PUSH1 0x40 MLOAD PUSH32 0x8C379A000000000000000000000000000000000000000000000000000000000 DUP2 MSTORE PUSH1 0x4 ADD PUSH2 0x2102 SWAP1 PUSH2 0x4053 JUMP JUMPDEST PUSH1 0x40 MLOAD DUP1 SWAP2 SUB SWAP1 REVERT JUMPDEST PUSH2 0x2116 CALLER DUP6 DUP6 PUSH2 0x2B05 JUMP JUMPDEST PUSH1 0x1 SWAP2 POP POP PUSH1 0x0 PUSH1 0x8 PUSH1 0x4 PUSH2 0x100 EXP DUP2 SLOAD DUP2 PUSH1 0xFF MUL NOT AND SWAP1 DUP4 ISZERO ISZERO MUL OR SWAP1 SSTORE POP SWAP3 SWAP2 POP POP JUMP JUMPDEST PUSH1 0x1 PUSH1 0x7 SWAP1 SLOAD SWAP1 PUSH2 0x100 EXP SWAP1 DIV PUSH4 0xFFFFFFFF AND DUP2 JUMP JUMPDEST PUSH1 0x3 PUSH1 0x1 SWAP1 SLOAD SWAP1 PUSH2 0x100 EXP SWAP1 DIV PUSH20 0xFFFFFFFFFFFFFFFFFFFFFFFFFFFFFFFFFFFFFFFF AND DUP2 JUMP JUMPDEST PUSH1 0x8 PUSH1 0x0 SWAP1 SLOAD SWAP1 PUSH2 0x100 EXP SWAP1 DIV PUSH1 0xFF AND DUP2 JUMP JUMPDEST PUSH1 0x0 PUSH1 0x1 ISZERO ISZERO PUSH1 0x3 PUSH1 0x0 SWAP1 SLOAD SWAP1 PUSH2 0x100 EXP SWAP1 DIV PUSH1 0xFF AND ISZERO ISZERO EQ DUP1 ISZERO PUSH2 0x21B7 JUMPI POP PUSH2 0x21B5 PUSH1 0x4 PUSH2 0x1B06 JUMP JUMPDEST ISZERO JUMPDEST ISZERO PUSH2 0x2217 JUMPI PUSH2 0x21C4 PUSH2 0x246A JUMP JUMPDEST ISZERO PUSH2 0x2204 JUMPI PUSH1 0x40 MLOAD PUSH32 0x8C379A000000000000000000000000000000000000000000000000000000000 DUP2 MSTORE PUSH1 0x4 ADD PUSH2 0x21FB SWAP1 PUSH2 0x42F3 JUMP JUMPDEST PUSH1 0x40 MLOAD DUP1 SWAP2 SUB SWAP1 REVERT JUMPDEST PUSH2 0x220E PUSH1 0x4 PUSH2 0x94B JUMP JUMPDEST PUSH1 0x1 SWAP1 POP PUSH2 0x2379 JUMP JUMPDEST PUSH2 0x2221 PUSH1 0x2 PUSH2 0x1B06 JUMP JUMPDEST ISZERO PUSH2 0x2281 JUMPI PUSH2 0x222E PUSH2 0x246A JUMP JUMPDEST ISZERO PUSH2 0x226E JUMPI PUSH1 0x40 MLOAD PUSH32 0x8C379A000000000000000000000000000000000000000000000000000000000 DUP2 MSTORE PUSH1 0x4 ADD PUSH2 0x2265 SWAP1 PUSH2 0x42F3 JUMP JUMPDEST PUSH1 0x40 MLOAD DUP1 SWAP2 SUB SWAP1 REVERT JUMPDEST PUSH2 0x2278 PUSH1 0x3 PUSH2 0x94B JUMP JUMPDEST PUSH1 0x1 SWAP1 POP PUSH2 0x2379 JUMP JUMPDEST PUSH2 0x228B PUSH1 0x3 PUSH2 0x1B06 JUMP JUMPDEST DUP1 ISZERO PUSH2 0x229C JUMPI POP PUSH2 0x229A PUSH2 0x17B0 JUMP JUMPDEST ISZERO JUMPDEST ISZERO PUSH2 0x22B4 JUMPI PUSH2 0x22AB PUSH1 0x2 PUSH2 0x94B JUMP JUMPDEST PUSH1 0x1 SWAP1 POP PUSH2 0x2379 JUMP JUMPDEST PUSH2 0x22BE PUSH1 0x0 PUSH2 0x1B06 JUMP JUMPDEST DUP1 ISZERO PUSH2 0x2364 JUMPI POP PUSH1 0x1 PUSH1 0x6 SWAP1 SLOAD SWAP1 PUSH2 0x100 EXP SWAP1 DIV PUSH1 0xFF AND PUSH1 0xFF AND PUSH20 0x0 PUSH4 0xD99DFB86 PUSH1 0x0 SLOAD PUSH1 0x40 MLOAD DUP3 PUSH4 0xFFFFFFFF AND PUSH1 0xE0 SHL DUP2 MSTORE PUSH1 0x4 ADD PUSH2 0x2311 SWAP2 SWAP1 PUSH2 0x432E JUMP JUMPDEST PUSH1 0x20 PUSH1 0x40 MLOAD DUP1 DUP4 SUB DUP2 DUP7 DUP1 EXTCODESIZE ISZERO DUP1 ISZERO PUSH2 0x2329 JUMPI PUSH1 0x0 DUP1 REVERT JUMPDEST POP GAS DELEGATECALL ISZERO DUP1 ISZERO PUSH2 0x233D JUMPI RETURNDATASIZE PUSH1 0x0 DUP1 RETURNDATACOPY RETURNDATASIZE PUSH1 0x0 REVERT JUMPDEST POP POP POP POP PUSH1 0x40 MLOAD RETURNDATASIZE PUSH1 0x1F NOT PUSH1 0x1F DUP3 ADD AND DUP3 ADD DUP1 PUSH1 0x40 MSTORE POP DUP2 ADD SWAP1 PUSH2 0x2361 SWAP2 SWAP1 PUSH2 0x37CE JUMP JUMPDEST LT ISZERO JUMPDEST ISZERO PUSH2 0x2374 JUMPI PUSH2 0x2373 PUSH1 0x5 PUSH2 0x94B JUMP JUMPDEST JUMPDEST PUSH1 0x0 SWAP1 POP JUMPDEST SWAP1 JUMP JUMPDEST PUSH1 0x8 PUSH1 0x5 SWAP1 SLOAD SWAP1 PUSH2 0x100 EXP SWAP1 DIV PUSH20 0xFFFFFFFFFFFFFFFFFFFFFFFFFFFFFFFFFFFFFFFF AND PUSH20 0xFFFFFFFFFFFFFFFFFFFFFFFFFFFFFFFFFFFFFFFF AND CALLER PUSH20 0xFFFFFFFFFFFFFFFFFFFFFFFFFFFFFFFFFFFFFFFF AND EQ PUSH2 0x23D6 JUMPI PUSH1 0x0 DUP1 REVERT JUMPDEST PUSH1 0x1 PUSH1 0x6 DUP2 GT ISZERO PUSH2 0x23EA JUMPI PUSH2 0x23E9 PUSH2 0x47E7 JUMP JUMPDEST JUMPDEST PUSH1 0x3 PUSH1 0x15 SWAP1 SLOAD SWAP1 PUSH2 0x100 EXP SWAP1 DIV PUSH1 0xFF AND PUSH1 0x6 DUP2 GT ISZERO PUSH2 0x240C JUMPI PUSH2 0x240B PUSH2 0x47E7 JUMP JUMPDEST JUMPDEST EQ PUSH2 0x244C JUMPI PUSH1 0x40 MLOAD PUSH32 0x8C379A000000000000000000000000000000000000000000000000000000000 DUP2 MSTORE PUSH1 0x4 ADD PUSH2 0x2443 SWAP1 PUSH2 0x4133 JUMP JUMPDEST PUSH1 0x40 MLOAD DUP1 SWAP2 SUB SWAP1 REVERT JUMPDEST PUSH2 0x2468 PUSH1 0x5 PUSH1 0x6 DUP2 GT ISZERO PUSH2 0x2463 JUMPI PUSH2 0x2462 PUSH2 0x47E7 JUMP JUMPDEST JUMPDEST PUSH2 0x94B JUMP JUMPDEST JUMP JUMPDEST PUSH1 0x0 PUSH1 0x1 PUSH1 0x7 SWAP1 SLOAD SWAP1 PUSH2 0x100 EXP SWAP1 DIV PUSH4 0xFFFFFFFF AND PUSH4 0xFFFFFFFF AND PUSH20 0x0 PUSH4 0xD99DFB86 PUSH1 0x0 SLOAD PUSH1 0x40 MLOAD DUP3 PUSH4 0xFFFFFFFF AND PUSH1 0xE0 SHL DUP2 MSTORE PUSH1 0x4 ADD PUSH2 0x24BE SWAP2 SWAP1 PUSH2 0x432E JUMP JUMPDEST PUSH1 0x20 PUSH1 0x40 MLOAD DUP1 DUP4 SUB DUP2 DUP7 DUP1 EXTCODESIZE ISZERO DUP1 ISZERO PUSH2 0x24D6 JUMPI PUSH1 0x0 DUP1 REVERT JUMPDEST POP GAS DELEGATECALL ISZERO DUP1 ISZERO PUSH2 0x24EA JUMPI RETURNDATASIZE PUSH1 0x0 DUP1 RETURNDATACOPY RETURNDATASIZE PUSH1 0x0 REVERT JUMPDEST POP POP POP POP PUSH1 0x40 MLOAD RETURNDATASIZE PUSH1 0x1F NOT PUSH1 0x1F DUP3 ADD AND DUP3 ADD DUP1 PUSH1 0x40 MSTORE POP DUP2 ADD SWAP1 PUSH2 0x250E SWAP2 SWAP1 PUSH2 0x37CE JUMP JUMPDEST GT ISZERO SWAP1 POP SWAP1 JUMP JUMPDEST PUSH1 0x0 ISZERO ISZERO PUSH1 0x8 PUSH1 0x4 SWAP1 SLOAD SWAP1 PUSH2 0x100 EXP SWAP1 DIV PUSH1 0xFF AND ISZERO ISZERO EQ PUSH2 0x256B JUMPI PUSH1 0x40 MLOAD PUSH32 0x8C379A000000000000000000000000000000000000000000000000000000000 DUP2 MSTORE PUSH1 0x4 ADD PUSH2 0x2562 SWAP1 PUSH2 0x4193 JUMP JUMPDEST PUSH1 0x40 MLOAD DUP1 SWAP2 SUB SWAP1 REVERT JUMPDEST PUSH1 0x1 PUSH1 0x8 PUSH1 0x4 PUSH2 0x100 EXP DUP2 SLOAD DUP2 PUSH1 0xFF MUL NOT AND SWAP1 DUP4 ISZERO ISZERO MUL OR SWAP1 SSTORE POP PUSH1 0x0 PUSH2 0x2591 DUP2 PUSH2 0xFFE JUMP JUMPDEST PUSH2 0x25D0 JUMPI PUSH1 0x40 MLOAD PUSH32 0x8C379A000000000000000000000000000000000000000000000000000000000 DUP2 MSTORE PUSH1 0x4 ADD PUSH2 0x25C7 SWAP1 PUSH2 0x4153 JUMP JUMPDEST PUSH1 0x40 MLOAD DUP1 SWAP2 SUB SWAP1 REVERT JUMPDEST PUSH1 0x0 CALLVALUE GT DUP1 ISZERO PUSH2 0x25F3 JUMPI POP PUSH1 0x0 PUSH8 0x16345785D8A0000 CALLVALUE PUSH2 0x25F1 SWAP2 SWAP1 PUSH2 0x4758 JUMP JUMPDEST EQ JUMPDEST DUP1 ISZERO PUSH2 0x2608 JUMPI POP PUSH9 0x1BC16D674EC800000 SELFBALANCE GT ISZERO JUMPDEST PUSH2 0x2647 JUMPI PUSH1 0x40 MLOAD PUSH32 0x8C379A000000000000000000000000000000000000000000000000000000000 DUP2 MSTORE PUSH1 0x4 ADD PUSH2 0x263E SWAP1 PUSH2 0x4173 JUMP JUMPDEST PUSH1 0x40 MLOAD DUP1 SWAP2 SUB SWAP1 REVERT JUMPDEST PUSH2 0x264F PUSH2 0x16DC JUMP JUMPDEST PUSH2 0x268E JUMPI PUSH1 0x40 MLOAD PUSH32 0x8C379A000000000000000000000000000000000000000000000000000000000 DUP2 MSTORE PUSH1 0x4 ADD PUSH2 0x2685 SWAP1 PUSH2 0x40F3 JUMP JUMPDEST PUSH1 0x40 MLOAD DUP1 SWAP2 SUB SWAP1 REVERT JUMPDEST PUSH2 0x2698 CALLER CALLVALUE PUSH2 0x3189 JUMP JUMPDEST PUSH2 0x26A0 PUSH2 0x19FA JUMP JUMPDEST PUSH32 0xCAB2F015136CC0BB1FBD91FCE3F8F6D63996F105A7DE8A4019C5EED482A622EA CALLVALUE CALLER ADDRESS PUSH1 0x4 PUSH1 0x0 CALLER PUSH20 0xFFFFFFFFFFFFFFFFFFFFFFFFFFFFFFFFFFFFFFFF AND PUSH20 0xFFFFFFFFFFFFFFFFFFFFFFFFFFFFFFFFFFFFFFFF AND DUP2 MSTORE PUSH1 0x20 ADD SWAP1 DUP2 MSTORE PUSH1 0x20 ADD PUSH1 0x0 KECCAK256 SLOAD PUSH1 0x40 MLOAD PUSH2 0x2714 SWAP5 SWAP4 SWAP3 SWAP2 SWAP1 PUSH2 0x4364 JUMP JUMPDEST PUSH1 0x40 MLOAD DUP1 SWAP2 SUB SWAP1 LOG1 PUSH9 0x1BC16D674EC800000 SELFBALANCE EQ ISZERO PUSH2 0x2738 JUMPI PUSH2 0x2737 PUSH1 0x1 PUSH2 0x94B JUMP JUMPDEST JUMPDEST POP PUSH1 0x0 PUSH1 0x8 PUSH1 0x4 PUSH2 0x100 EXP DUP2 SLOAD DUP2 PUSH1 0xFF MUL NOT AND SWAP1 DUP4 ISZERO ISZERO MUL OR SWAP1 SSTORE POP JUMP JUMPDEST PUSH1 0x0 SLOAD DUP2 JUMP JUMPDEST PUSH1 0x0 PUSH1 0x5 PUSH1 0x0 DUP5 PUSH20 0xFFFFFFFFFFFFFFFFFFFFFFFFFFFFFFFFFFFFFFFF AND PUSH20 0xFFFFFFFFFFFFFFFFFFFFFFFFFFFFFFFFFFFFFFFF AND DUP2 MSTORE PUSH1 0x20 ADD SWAP1 DUP2 MSTORE PUSH1 0x20 ADD PUSH1 0x0 KECCAK256 PUSH1 0x0 DUP4 PUSH20 0xFFFFFFFFFFFFFFFFFFFFFFFFFFFFFFFFFFFFFFFF AND PUSH20 0xFFFFFFFFFFFFFFFFFFFFFFFFFFFFFFFFFFFFFFFF AND DUP2 MSTORE PUSH1 0x20 ADD SWAP1 DUP2 MSTORE PUSH1 0x20 ADD PUSH1 0x0 KECCAK256 SLOAD SWAP1 POP SWAP3 SWAP2 POP POP JUMP JUMPDEST TIMESTAMP PUSH1 0x0 DUP2 SWAP1 SSTORE POP JUMP JUMPDEST PUSH1 0x0 PUSH1 0x3 DUP2 GT ISZERO PUSH2 0x2800 JUMPI PUSH2 0x27FF PUSH2 0x47E7 JUMP JUMPDEST JUMPDEST DUP3 PUSH1 0x3 DUP2 GT ISZERO PUSH2 0x2813 JUMPI PUSH2 0x2812 PUSH2 0x47E7 JUMP JUMPDEST JUMPDEST EQ ISZERO PUSH2 0x2834 JUMPI DUP1 PUSH1 0x8 PUSH1 0x0 PUSH2 0x100 EXP DUP2 SLOAD DUP2 PUSH1 0xFF MUL NOT AND SWAP1 DUP4 ISZERO ISZERO MUL OR SWAP1 SSTORE POP JUMPDEST PUSH1 0x1 PUSH1 0x3 DUP2 GT ISZERO PUSH2 0x2848 JUMPI PUSH2 0x2847 PUSH2 0x47E7 JUMP JUMPDEST JUMPDEST DUP3 PUSH1 0x3 DUP2 GT ISZERO PUSH2 0x285B JUMPI PUSH2 0x285A PUSH2 0x47E7 JUMP JUMPDEST JUMPDEST EQ ISZERO PUSH2 0x287C JUMPI DUP1 PUSH1 0x8 PUSH1 0x1 PUSH2 0x100 EXP DUP2 SLOAD DUP2 PUSH1 0xFF MUL NOT AND SWAP1 DUP4 ISZERO ISZERO MUL OR SWAP1 SSTORE POP JUMPDEST PUSH1 0x2 PUSH1 0x3 DUP2 GT ISZERO PUSH2 0x2890 JUMPI PUSH2 0x288F PUSH2 0x47E7 JUMP JUMPDEST JUMPDEST DUP3 PUSH1 0x3 DUP2 GT ISZERO PUSH2 0x28A3 JUMPI PUSH2 0x28A2 PUSH2 0x47E7 JUMP JUMPDEST JUMPDEST EQ ISZERO PUSH2 0x28C4 JUMPI DUP1 PUSH1 0x8 PUSH1 0x2 PUSH2 0x100 EXP DUP2 SLOAD DUP2 PUSH1 0xFF MUL NOT AND SWAP1 DUP4 ISZERO ISZERO MUL OR SWAP1 SSTORE POP JUMPDEST PUSH1 0x3 DUP1 DUP2 GT ISZERO PUSH2 0x28D7 JUMPI PUSH2 0x28D6 PUSH2 0x47E7 JUMP JUMPDEST JUMPDEST DUP3 PUSH1 0x3 DUP2 GT ISZERO PUSH2 0x28EA JUMPI PUSH2 0x28E9 PUSH2 0x47E7 JUMP JUMPDEST JUMPDEST EQ ISZERO PUSH2 0x290B JUMPI DUP1 PUSH1 0x8 PUSH1 0x3 PUSH2 0x100 EXP DUP2 SLOAD DUP2 PUSH1 0xFF MUL NOT AND SWAP1 DUP4 ISZERO ISZERO MUL OR SWAP1 SSTORE POP JUMPDEST POP POP JUMP JUMPDEST PUSH1 0x0 PUSH20 0xFFFFFFFFFFFFFFFFFFFFFFFFFFFFFFFFFFFFFFFF AND DUP4 PUSH20 0xFFFFFFFFFFFFFFFFFFFFFFFFFFFFFFFFFFFFFFFF AND EQ ISZERO DUP1 ISZERO PUSH2 0x2979 JUMPI POP PUSH1 0x0 PUSH20 0xFFFFFFFFFFFFFFFFFFFFFFFFFFFFFFFFFFFFFFFF AND DUP3 PUSH20 0xFFFFFFFFFFFFFFFFFFFFFFFFFFFFFFFFFFFFFFFF AND EQ ISZERO JUMPDEST PUSH2 0x29B8 JUMPI PUSH1 0x40 MLOAD PUSH32 0x8C379A000000000000000000000000000000000000000000000000000000000 DUP2 MSTORE PUSH1 0x4 ADD PUSH2 0x29AF SWAP1 PUSH2 0x40B3 JUMP JUMPDEST PUSH1 0x40 MLOAD DUP1 SWAP2 SUB SWAP1 REVERT JUMPDEST DUP1 PUSH1 0x5 PUSH1 0x0 DUP6 PUSH20 0xFFFFFFFFFFFFFFFFFFFFFFFFFFFFFFFFFFFFFFFF AND PUSH20 0xFFFFFFFFFFFFFFFFFFFFFFFFFFFFFFFFFFFFFFFF AND DUP2 MSTORE PUSH1 0x20 ADD SWAP1 DUP2 MSTORE PUSH1 0x20 ADD PUSH1 0x0 KECCAK256 PUSH1 0x0 DUP5 PUSH20 0xFFFFFFFFFFFFFFFFFFFFFFFFFFFFFFFFFFFFFFFF AND PUSH20 0xFFFFFFFFFFFFFFFFFFFFFFFFFFFFFFFFFFFFFFFF AND DUP2 MSTORE PUSH1 0x20 ADD SWAP1 DUP2 MSTORE PUSH1 0x20 ADD PUSH1 0x0 KECCAK256 DUP2 SWAP1 SSTORE POP PUSH32 0x5C52A5F2B86FD16BE577188B5A83EF1165FADDC00B137B10285F16162E17792A DUP4 DUP4 DUP4 PUSH1 0x40 MLOAD PUSH2 0x2A6C SWAP4 SWAP3 SWAP2 SWAP1 PUSH2 0x3DC7 JUMP JUMPDEST PUSH1 0x40 MLOAD DUP1 SWAP2 SUB SWAP1 LOG1 POP POP POP JUMP JUMPDEST PUSH1 0x0 PUSH2 0x2A85 DUP5 DUP5 PUSH2 0x275C JUMP JUMPDEST SWAP1 POP PUSH32 0xFFFFFFFFFFFFFFFFFFFFFFFFFFFFFFFFFFFFFFFFFFFFFFFFFFFFFFFFFFFFFFFF DUP2 EQ PUSH2 0x2AFF JUMPI DUP2 DUP2 LT ISZERO PUSH2 0x2AF1 JUMPI PUSH1 0x40 MLOAD PUSH32 0x8C379A000000000000000000000000000000000000000000000000000000000 DUP2 MSTORE PUSH1 0x4 ADD PUSH2 0x2AE8 SWAP1 PUSH2 0x40D3 JUMP JUMPDEST PUSH1 0x40 MLOAD DUP1 SWAP2 SUB SWAP1 REVERT JUMPDEST PUSH2 0x2AFE DUP5 DUP5 DUP5 DUP5 SUB PUSH2 0x290F JUMP JUMPDEST JUMPDEST POP POP POP POP JUMP JUMPDEST PUSH1 0x0 PUSH1 0x4 PUSH1 0x0 DUP6 PUSH20 0xFFFFFFFFFFFFFFFFFFFFFFFFFFFFFFFFFFFFFFFF AND PUSH20 0xFFFFFFFFFFFFFFFFFFFFFFFFFFFFFFFFFFFFFFFF AND DUP2 MSTORE PUSH1 0x20 ADD SWAP1 DUP2 MSTORE PUSH1 0x20 ADD PUSH1 0x0 KECCAK256 SLOAD SWAP1 POP PUSH1 0x0 PUSH20 0xFFFFFFFFFFFFFFFFFFFFFFFFFFFFFFFFFFFFFFFF AND DUP5 PUSH20 0xFFFFFFFFFFFFFFFFFFFFFFFFFFFFFFFFFFFFFFFF AND EQ ISZERO DUP1 ISZERO PUSH2 0x2BB3 JUMPI POP PUSH1 0x0 PUSH20 0xFFFFFFFFFFFFFFFFFFFFFFFFFFFFFFFFFFFFFFFF AND DUP4 PUSH20 0xFFFFFFFFFFFFFFFFFFFFFFFFFFFFFFFFFFFFFFFF AND EQ ISZERO JUMPDEST PUSH2 0x2BF2 JUMPI PUSH1 0x40 MLOAD PUSH32 0x8C379A000000000000000000000000000000000000000000000000000000000 DUP2 MSTORE PUSH1 0x4 ADD PUSH2 0x2BE9 SWAP1 PUSH2 0x40B3 JUMP JUMPDEST PUSH1 0x40 MLOAD DUP1 SWAP2 SUB SWAP1 REVERT JUMPDEST DUP2 DUP2 LT ISZERO PUSH2 0x2C35 JUMPI PUSH1 0x40 MLOAD PUSH32 0x8C379A000000000000000000000000000000000000000000000000000000000 DUP2 MSTORE PUSH1 0x4 ADD PUSH2 0x2C2C SWAP1 PUSH2 0x4113 JUMP JUMPDEST PUSH1 0x40 MLOAD DUP1 SWAP2 SUB SWAP1 REVERT JUMPDEST DUP2 PUSH1 0x4 PUSH1 0x0 DUP7 PUSH20 0xFFFFFFFFFFFFFFFFFFFFFFFFFFFFFFFFFFFFFFFF AND PUSH20 0xFFFFFFFFFFFFFFFFFFFFFFFFFFFFFFFFFFFFFFFF AND DUP2 MSTORE PUSH1 0x20 ADD SWAP1 DUP2 MSTORE PUSH1 0x20 ADD PUSH1 0x0 KECCAK256 PUSH1 0x0 DUP3 DUP3 SLOAD PUSH2 0x2C84 SWAP2 SWAP1 PUSH2 0x45B9 JUMP JUMPDEST SWAP3 POP POP DUP2 SWAP1 SSTORE POP DUP2 PUSH1 0x4 PUSH1 0x0 DUP6 PUSH20 0xFFFFFFFFFFFFFFFFFFFFFFFFFFFFFFFFFFFFFFFF AND PUSH20 0xFFFFFFFFFFFFFFFFFFFFFFFFFFFFFFFFFFFFFFFF AND DUP2 MSTORE PUSH1 0x20 ADD SWAP1 DUP2 MSTORE PUSH1 0x20 ADD PUSH1 0x0 KECCAK256 PUSH1 0x0 DUP3 DUP3 SLOAD PUSH2 0x2CDA SWAP2 SWAP1 PUSH2 0x4563 JUMP JUMPDEST SWAP3 POP POP DUP2 SWAP1 SSTORE POP PUSH32 0xDDF252AD1BE2C89B69C2B068FC378DAA952BA7F163C4A11628F55A4DF523B3EF DUP5 DUP5 DUP5 PUSH1 0x40 MLOAD PUSH2 0x2D14 SWAP4 SWAP3 SWAP2 SWAP1 PUSH2 0x3DC7 JUMP JUMPDEST PUSH1 0x40 MLOAD DUP1 SWAP2 SUB SWAP1 LOG1 POP POP POP POP JUMP JUMPDEST PUSH1 0x0 DUP3 PUSH20 0xFFFFFFFFFFFFFFFFFFFFFFFFFFFFFFFFFFFFFFFF AND DUP3 PUSH1 0x40 MLOAD PUSH2 0x2D48 SWAP1 PUSH2 0x3D36 JUMP JUMPDEST PUSH1 0x0 PUSH1 0x40 MLOAD DUP1 DUP4 SUB DUP2 DUP6 DUP8 GAS CALL SWAP3 POP POP POP RETURNDATASIZE DUP1 PUSH1 0x0 DUP2 EQ PUSH2 0x2D85 JUMPI PUSH1 0x40 MLOAD SWAP2 POP PUSH1 0x1F NOT PUSH1 0x3F RETURNDATASIZE ADD AND DUP3 ADD PUSH1 0x40 MSTORE RETURNDATASIZE DUP3 MSTORE RETURNDATASIZE PUSH1 0x0 PUSH1 0x20 DUP5 ADD RETURNDATACOPY PUSH2 0x2D8A JUMP JUMPDEST PUSH1 0x60 SWAP2 POP JUMPDEST POP POP SWAP1 POP DUP1 PUSH2 0x2DCE JUMPI PUSH1 0x40 MLOAD PUSH32 0x8C379A000000000000000000000000000000000000000000000000000000000 DUP2 MSTORE PUSH1 0x4 ADD PUSH2 0x2DC5 SWAP1 PUSH2 0x41D3 JUMP JUMPDEST PUSH1 0x40 MLOAD DUP1 SWAP2 SUB SWAP1 REVERT JUMPDEST PUSH32 0x1D26CF2A5FDCA5ECC05C0F48D95AF2578AC2F781A85E4724BFD691C53B53442E DUP4 DUP4 ADDRESS PUSH1 0x40 MLOAD PUSH2 0x2E01 SWAP4 SWAP3 SWAP2 SWAP1 PUSH2 0x3E35 JUMP JUMPDEST PUSH1 0x40 MLOAD DUP1 SWAP2 SUB SWAP1 LOG1 POP POP POP JUMP JUMPDEST PUSH1 0x3 PUSH2 0x2E19 DUP2 PUSH2 0xFFE JUMP JUMPDEST PUSH2 0x2E58 JUMPI PUSH1 0x40 MLOAD PUSH32 0x8C379A000000000000000000000000000000000000000000000000000000000 DUP2 MSTORE PUSH1 0x4 ADD PUSH2 0x2E4F SWAP1 PUSH2 0x4153 JUMP JUMPDEST PUSH1 0x40 MLOAD DUP1 SWAP2 SUB SWAP1 REVERT JUMPDEST PUSH1 0x0 PUSH20 0x0 PUSH4 0x11BE17FE PUSH1 0x4 PUSH1 0x0 DUP7 PUSH20 0xFFFFFFFFFFFFFFFFFFFFFFFFFFFFFFFFFFFFFFFF AND PUSH20 0xFFFFFFFFFFFFFFFFFFFFFFFFFFFFFFFFFFFFFFFF AND DUP2 MSTORE PUSH1 0x20 ADD SWAP1 DUP2 MSTORE PUSH1 0x20 ADD PUSH1 0x0 KECCAK256 SLOAD PUSH1 0x1 PUSH1 0x7 SWAP1 SLOAD SWAP1 PUSH2 0x100 EXP SWAP1 DIV PUSH4 0xFFFFFFFF AND PUSH1 0x1 PUSH1 0x0 SWAP1 SLOAD SWAP1 PUSH2 0x100 EXP SWAP1 DIV PUSH4 0xFFFFFFFF AND PUSH1 0x40 MLOAD DUP5 PUSH4 0xFFFFFFFF AND PUSH1 0xE0 SHL DUP2 MSTORE PUSH1 0x4 ADD PUSH2 0x2EF8 SWAP4 SWAP3 SWAP2 SWAP1 PUSH2 0x43D2 JUMP JUMPDEST PUSH1 0x20 PUSH1 0x40 MLOAD DUP1 DUP4 SUB DUP2 DUP7 DUP1 EXTCODESIZE ISZERO DUP1 ISZERO PUSH2 0x2F10 JUMPI PUSH1 0x0 DUP1 REVERT JUMPDEST POP GAS DELEGATECALL ISZERO DUP1 ISZERO PUSH2 0x2F24 JUMPI RETURNDATASIZE PUSH1 0x0 DUP1 RETURNDATACOPY RETURNDATASIZE PUSH1 0x0 REVERT JUMPDEST POP POP POP POP PUSH1 0x40 MLOAD RETURNDATASIZE PUSH1 0x1F NOT PUSH1 0x1F DUP3 ADD AND DUP3 ADD DUP1 PUSH1 0x40 MSTORE POP DUP2 ADD SWAP1 PUSH2 0x2F48 SWAP2 SWAP1 PUSH2 0x37CE JUMP JUMPDEST SWAP1 POP PUSH2 0x2F54 DUP4 DUP3 PUSH2 0x3189 JUMP JUMPDEST PUSH1 0x1 PUSH1 0x6 PUSH1 0x0 PUSH1 0x1 PUSH1 0x4 SWAP1 SLOAD SWAP1 PUSH2 0x100 EXP SWAP1 DIV PUSH2 0xFFFF AND PUSH2 0xFFFF AND PUSH2 0xFFFF AND DUP2 MSTORE PUSH1 0x20 ADD SWAP1 DUP2 MSTORE PUSH1 0x20 ADD PUSH1 0x0 KECCAK256 PUSH1 0x0 DUP6 PUSH20 0xFFFFFFFFFFFFFFFFFFFFFFFFFFFFFFFFFFFFFFFF AND PUSH20 0xFFFFFFFFFFFFFFFFFFFFFFFFFFFFFFFFFFFFFFFF AND DUP2 MSTORE PUSH1 0x20 ADD SWAP1 DUP2 MSTORE PUSH1 0x20 ADD PUSH1 0x0 KECCAK256 PUSH1 0x0 PUSH2 0x100 EXP DUP2 SLOAD DUP2 PUSH1 0xFF MUL NOT AND SWAP1 DUP4 ISZERO ISZERO MUL OR SWAP1 SSTORE POP PUSH32 0xCE714C0213E17F4744350ED6BA6D3071314760A6307EB9D3920946CEE915A397 DUP4 DUP3 ADDRESS PUSH1 0x4 PUSH1 0x0 DUP9 PUSH20 0xFFFFFFFFFFFFFFFFFFFFFFFFFFFFFFFFFFFFFFFF AND PUSH20 0xFFFFFFFFFFFFFFFFFFFFFFFFFFFFFFFFFFFFFFFF AND DUP2 MSTORE PUSH1 0x20 ADD SWAP1 DUP2 MSTORE PUSH1 0x20 ADD PUSH1 0x0 KECCAK256 SLOAD TIMESTAMP PUSH1 0x40 MLOAD PUSH2 0x304B SWAP6 SWAP5 SWAP4 SWAP3 SWAP2 SWAP1 PUSH2 0x3E6C JUMP JUMPDEST PUSH1 0x40 MLOAD DUP1 SWAP2 SUB SWAP1 LOG1 POP POP POP JUMP JUMPDEST PUSH1 0x2 PUSH2 0x3063 DUP2 PUSH2 0xFFE JUMP JUMPDEST PUSH2 0x30A2 JUMPI PUSH1 0x40 MLOAD PUSH32 0x8C379A000000000000000000000000000000000000000000000000000000000 DUP2 MSTORE PUSH1 0x4 ADD PUSH2 0x3099 SWAP1 PUSH2 0x4153 JUMP JUMPDEST PUSH1 0x40 MLOAD DUP1 SWAP2 SUB SWAP1 REVERT JUMPDEST PUSH1 0x0 PUSH2 0x30AD DUP4 PUSH2 0x1985 JUMP JUMPDEST SWAP1 POP PUSH1 0x0 DUP2 GT PUSH2 0x30F2 JUMPI PUSH1 0x40 MLOAD PUSH32 0x8C379A000000000000000000000000000000000000000000000000000000000 DUP2 MSTORE PUSH1 0x4 ADD PUSH2 0x30E9 SWAP1 PUSH2 0x41F3 JUMP JUMPDEST PUSH1 0x40 MLOAD DUP1 SWAP2 SUB SWAP1 REVERT JUMPDEST PUSH2 0x30FC DUP4 DUP3 PUSH2 0x3226 JUMP JUMPDEST PUSH32 0xEAD0BAE8A8E21910EB19E746796E621F7F72A0CA79214F63C84779F7B69E2D43 DUP4 DUP3 ADDRESS PUSH1 0x4 PUSH1 0x0 DUP9 PUSH20 0xFFFFFFFFFFFFFFFFFFFFFFFFFFFFFFFFFFFFFFFF AND PUSH20 0xFFFFFFFFFFFFFFFFFFFFFFFFFFFFFFFFFFFFFFFF AND DUP2 MSTORE PUSH1 0x20 ADD SWAP1 DUP2 MSTORE PUSH1 0x20 ADD PUSH1 0x0 KECCAK256 SLOAD TIMESTAMP PUSH1 0x40 MLOAD PUSH2 0x3172 SWAP6 SWAP5 SWAP4 SWAP3 SWAP2 SWAP1 PUSH2 0x3E6C JUMP JUMPDEST PUSH1 0x40 MLOAD DUP1 SWAP2 SUB SWAP1 LOG1 PUSH2 0x3184 DUP4 DUP3 PUSH2 0x2D22 JUMP JUMPDEST POP POP POP JUMP JUMPDEST DUP1 PUSH1 0x4 PUSH1 0x0 DUP5 PUSH20 0xFFFFFFFFFFFFFFFFFFFFFFFFFFFFFFFFFFFFFFFF AND PUSH20 0xFFFFFFFFFFFFFFFFFFFFFFFFFFFFFFFFFFFFFFFF AND DUP2 MSTORE PUSH1 0x20 ADD SWAP1 DUP2 MSTORE PUSH1 0x20 ADD PUSH1 0x0 KECCAK256 PUSH1 0x0 DUP3 DUP3 SLOAD ADD SWAP3 POP POP DUP2 SWAP1 SSTORE POP DUP1 PUSH1 0xC PUSH1 0x0 DUP3 DUP3 SLOAD ADD SWAP3 POP POP DUP2 SWAP1 SSTORE POP PUSH32 0xDDF252AD1BE2C89B69C2B068FC378DAA952BA7F163C4A11628F55A4DF523B3EF PUSH1 0x0 DUP4 DUP4 PUSH1 0x40 MLOAD PUSH2 0x321A SWAP4 SWAP3 SWAP2 SWAP1 PUSH2 0x3DC7 JUMP JUMPDEST PUSH1 0x40 MLOAD DUP1 SWAP2 SUB SWAP1 LOG1 POP POP JUMP JUMPDEST PUSH1 0x2 PUSH2 0x3231 DUP2 PUSH2 0xFFE JUMP JUMPDEST PUSH2 0x3270 JUMPI PUSH1 0x40 MLOAD PUSH32 0x8C379A000000000000000000000000000000000000000000000000000000000 DUP2 MSTORE PUSH1 0x4 ADD PUSH2 0x3267 SWAP1 PUSH2 0x4153 JUMP JUMPDEST PUSH1 0x40 MLOAD DUP1 SWAP2 SUB SWAP1 REVERT JUMPDEST DUP2 PUSH2 0x327A DUP5 PUSH2 0x1985 JUMP JUMPDEST LT ISZERO PUSH2 0x32BB JUMPI PUSH1 0x40 MLOAD PUSH32 0x8C379A000000000000000000000000000000000000000000000000000000000 DUP2 MSTORE PUSH1 0x4 ADD PUSH2 0x32B2 SWAP1 PUSH2 0x42D3 JUMP JUMPDEST PUSH1 0x40 MLOAD DUP1 SWAP2 SUB SWAP1 REVERT JUMPDEST DUP2 PUSH1 0x4 PUSH1 0x0 DUP6 PUSH20 0xFFFFFFFFFFFFFFFFFFFFFFFFFFFFFFFFFFFFFFFF AND PUSH20 0xFFFFFFFFFFFFFFFFFFFFFFFFFFFFFFFFFFFFFFFF AND DUP2 MSTORE PUSH1 0x20 ADD SWAP1 DUP2 MSTORE PUSH1 0x20 ADD PUSH1 0x0 KECCAK256 PUSH1 0x0 DUP3 DUP3 SLOAD SUB SWAP3 POP POP DUP2 SWAP1 SSTORE POP DUP2 PUSH1 0xC PUSH1 0x0 DUP3 DUP3 SLOAD SUB SWAP3 POP POP DUP2 SWAP1 SSTORE POP PUSH1 0x0 PUSH2 0x3322 PUSH2 0x941 JUMP JUMPDEST EQ ISZERO PUSH2 0x3333 JUMPI PUSH2 0x3332 PUSH1 0x6 PUSH2 0x94B JUMP JUMPDEST JUMPDEST PUSH32 0xDDF252AD1BE2C89B69C2B068FC378DAA952BA7F163C4A11628F55A4DF523B3EF DUP4 PUSH1 0x0 DUP5 PUSH1 0x40 MLOAD PUSH2 0x3367 SWAP4 SWAP3 SWAP2 SWAP1 PUSH2 0x3DC7 JUMP JUMPDEST PUSH1 0x40 MLOAD DUP1 SWAP2 SUB SWAP1 LOG1 POP POP POP JUMP JUMPDEST PUSH1 0x0 PUSH2 0x3387 PUSH2 0x3382 DUP5 PUSH2 0x4464 JUMP JUMPDEST PUSH2 0x443F JUMP JUMPDEST SWAP1 POP DUP3 DUP2 MSTORE PUSH1 0x20 DUP2 ADD DUP5 DUP5 DUP5 ADD GT ISZERO PUSH2 0x33A3 JUMPI PUSH2 0x33A2 PUSH2 0x4879 JUMP JUMPDEST JUMPDEST PUSH2 0x33AE DUP5 DUP3 DUP6 PUSH2 0x46C2 JUMP JUMPDEST POP SWAP4 SWAP3 POP POP POP JUMP JUMPDEST PUSH1 0x0 PUSH2 0x33C9 PUSH2 0x33C4 DUP5 PUSH2 0x4495 JUMP JUMPDEST PUSH2 0x443F JUMP JUMPDEST SWAP1 POP DUP3 DUP2 MSTORE PUSH1 0x20 DUP2 ADD DUP5 DUP5 DUP5 ADD GT ISZERO PUSH2 0x33E5 JUMPI PUSH2 0x33E4 PUSH2 0x4879 JUMP JUMPDEST JUMPDEST PUSH2 0x33F0 DUP5 DUP3 DUP6 PUSH2 0x46B3 JUMP JUMPDEST POP SWAP4 SWAP3 POP POP POP JUMP JUMPDEST PUSH1 0x0 DUP2 CALLDATALOAD SWAP1 POP PUSH2 0x3407 DUP2 PUSH2 0x4E24 JUMP JUMPDEST SWAP3 SWAP2 POP POP JUMP JUMPDEST PUSH1 0x0 DUP2 MLOAD SWAP1 POP PUSH2 0x341C DUP2 PUSH2 0x4E3B JUMP JUMPDEST SWAP3 SWAP2 POP POP JUMP JUMPDEST PUSH1 0x0 DUP3 PUSH1 0x1F DUP4 ADD SLT PUSH2 0x3437 JUMPI PUSH2 0x3436 PUSH2 0x4874 JUMP JUMPDEST JUMPDEST DUP2 MLOAD PUSH2 0x3447 DUP5 DUP3 PUSH1 0x20 DUP7 ADD PUSH2 0x3374 JUMP JUMPDEST SWAP2 POP POP SWAP3 SWAP2 POP POP JUMP JUMPDEST PUSH1 0x0 DUP2 CALLDATALOAD SWAP1 POP PUSH2 0x345F DUP2 PUSH2 0x4E52 JUMP JUMPDEST SWAP3 SWAP2 POP POP JUMP JUMPDEST PUSH1 0x0 DUP2 CALLDATALOAD SWAP1 POP PUSH2 0x3474 DUP2 PUSH2 0x4E62 JUMP JUMPDEST SWAP3 SWAP2 POP POP JUMP JUMPDEST PUSH1 0x0 DUP3 PUSH1 0x1F DUP4 ADD SLT PUSH2 0x348F JUMPI PUSH2 0x348E PUSH2 0x4874 JUMP JUMPDEST JUMPDEST DUP2 CALLDATALOAD PUSH2 0x349F DUP5 DUP3 PUSH1 0x20 DUP7 ADD PUSH2 0x33B6 JUMP JUMPDEST SWAP2 POP POP SWAP3 SWAP2 POP POP JUMP JUMPDEST PUSH1 0x0 DUP2 CALLDATALOAD SWAP1 POP PUSH2 0x34B7 DUP2 PUSH2 0x4E72 JUMP JUMPDEST SWAP3 SWAP2 POP POP JUMP JUMPDEST PUSH1 0x0 DUP2 CALLDATALOAD SWAP1 POP PUSH2 0x34CC DUP2 PUSH2 0x4E89 JUMP JUMPDEST SWAP3 SWAP2 POP POP JUMP JUMPDEST PUSH1 0x0 DUP2 MLOAD SWAP1 POP PUSH2 0x34E1 DUP2 PUSH2 0x4E89 JUMP JUMPDEST SWAP3 SWAP2 POP POP JUMP JUMPDEST PUSH1 0x0 PUSH1 0x20 DUP3 DUP5 SUB SLT ISZERO PUSH2 0x34FD JUMPI PUSH2 0x34FC PUSH2 0x4883 JUMP JUMPDEST JUMPDEST PUSH1 0x0 PUSH2 0x350B DUP5 DUP3 DUP6 ADD PUSH2 0x33F8 JUMP JUMPDEST SWAP2 POP POP SWAP3 SWAP2 POP POP JUMP JUMPDEST PUSH1 0x0 DUP1 PUSH1 0x40 DUP4 DUP6 SUB SLT ISZERO PUSH2 0x352B JUMPI PUSH2 0x352A PUSH2 0x4883 JUMP JUMPDEST JUMPDEST PUSH1 0x0 PUSH2 0x3539 DUP6 DUP3 DUP7 ADD PUSH2 0x33F8 JUMP JUMPDEST SWAP3 POP POP PUSH1 0x20 PUSH2 0x354A DUP6 DUP3 DUP7 ADD PUSH2 0x33F8 JUMP JUMPDEST SWAP2 POP POP SWAP3 POP SWAP3 SWAP1 POP JUMP JUMPDEST PUSH1 0x0 DUP1 PUSH1 0x0 PUSH1 0x60 DUP5 DUP7 SUB SLT ISZERO PUSH2 0x356D JUMPI PUSH2 0x356C PUSH2 0x4883 JUMP JUMPDEST JUMPDEST PUSH1 0x0 PUSH2 0x357B DUP7 DUP3 DUP8 ADD PUSH2 0x33F8 JUMP JUMPDEST SWAP4 POP POP PUSH1 0x20 PUSH2 0x358C DUP7 DUP3 DUP8 ADD PUSH2 0x33F8 JUMP JUMPDEST SWAP3 POP POP PUSH1 0x40 PUSH2 0x359D DUP7 DUP3 DUP8 ADD PUSH2 0x34BD JUMP JUMPDEST SWAP2 POP POP SWAP3 POP SWAP3 POP SWAP3 JUMP JUMPDEST PUSH1 0x0 DUP1 PUSH1 0x40 DUP4 DUP6 SUB SLT ISZERO PUSH2 0x35BE JUMPI PUSH2 0x35BD PUSH2 0x4883 JUMP JUMPDEST JUMPDEST PUSH1 0x0 PUSH2 0x35CC DUP6 DUP3 DUP7 ADD PUSH2 0x33F8 JUMP JUMPDEST SWAP3 POP POP PUSH1 0x20 PUSH2 0x35DD DUP6 DUP3 DUP7 ADD PUSH2 0x34BD JUMP JUMPDEST SWAP2 POP POP SWAP3 POP SWAP3 SWAP1 POP JUMP JUMPDEST PUSH1 0x0 PUSH1 0x20 DUP3 DUP5 SUB SLT ISZERO PUSH2 0x35FD JUMPI PUSH2 0x35FC PUSH2 0x4883 JUMP JUMPDEST JUMPDEST PUSH1 0x0 PUSH2 0x360B DUP5 DUP3 DUP6 ADD PUSH2 0x340D JUMP JUMPDEST SWAP2 POP POP SWAP3 SWAP2 POP POP JUMP JUMPDEST PUSH1 0x0 PUSH1 0x20 DUP3 DUP5 SUB SLT ISZERO PUSH2 0x362A JUMPI PUSH2 0x3629 PUSH2 0x4883 JUMP JUMPDEST JUMPDEST PUSH1 0x0 DUP3 ADD MLOAD PUSH8 0xFFFFFFFFFFFFFFFF DUP2 GT ISZERO PUSH2 0x3648 JUMPI PUSH2 0x3647 PUSH2 0x487E JUMP JUMPDEST JUMPDEST PUSH2 0x3654 DUP5 DUP3 DUP6 ADD PUSH2 0x3422 JUMP JUMPDEST SWAP2 POP POP SWAP3 SWAP2 POP POP JUMP JUMPDEST PUSH1 0x0 PUSH1 0x20 DUP3 DUP5 SUB SLT ISZERO PUSH2 0x3673 JUMPI PUSH2 0x3672 PUSH2 0x4883 JUMP JUMPDEST JUMPDEST PUSH1 0x0 PUSH2 0x3681 DUP5 DUP3 DUP6 ADD PUSH2 0x3450 JUMP JUMPDEST SWAP2 POP POP SWAP3 SWAP2 POP POP JUMP JUMPDEST PUSH1 0x0 PUSH1 0x20 DUP3 DUP5 SUB SLT ISZERO PUSH2 0x36A0 JUMPI PUSH2 0x369F PUSH2 0x4883 JUMP JUMPDEST JUMPDEST PUSH1 0x0 PUSH2 0x36AE DUP5 DUP3 DUP6 ADD PUSH2 0x3465 JUMP JUMPDEST SWAP2 POP POP SWAP3 SWAP2 POP POP JUMP JUMPDEST PUSH1 0x0 DUP1 PUSH1 0x0 DUP1 PUSH1 0x80 DUP6 DUP8 SUB SLT ISZERO PUSH2 0x36D1 JUMPI PUSH2 0x36D0 PUSH2 0x4883 JUMP JUMPDEST JUMPDEST PUSH1 0x0 DUP6 ADD CALLDATALOAD PUSH8 0xFFFFFFFFFFFFFFFF DUP2 GT ISZERO PUSH2 0x36EF JUMPI PUSH2 0x36EE PUSH2 0x487E JUMP JUMPDEST JUMPDEST PUSH2 0x36FB DUP8 DUP3 DUP9 ADD PUSH2 0x347A JUMP JUMPDEST SWAP5 POP POP PUSH1 0x20 DUP6 ADD CALLDATALOAD PUSH8 0xFFFFFFFFFFFFFFFF DUP2 GT ISZERO PUSH2 0x371C JUMPI PUSH2 0x371B PUSH2 0x487E JUMP JUMPDEST JUMPDEST PUSH2 0x3728 DUP8 DUP3 DUP9 ADD PUSH2 0x347A JUMP JUMPDEST SWAP4 POP POP PUSH1 0x40 DUP6 ADD CALLDATALOAD PUSH8 0xFFFFFFFFFFFFFFFF DUP2 GT ISZERO PUSH2 0x3749 JUMPI PUSH2 0x3748 PUSH2 0x487E JUMP JUMPDEST JUMPDEST PUSH2 0x3755 DUP8 DUP3 DUP9 ADD PUSH2 0x347A JUMP JUMPDEST SWAP3 POP POP PUSH1 0x60 DUP6 ADD CALLDATALOAD PUSH8 0xFFFFFFFFFFFFFFFF DUP2 GT ISZERO PUSH2 0x3776 JUMPI PUSH2 0x3775 PUSH2 0x487E JUMP JUMPDEST JUMPDEST PUSH2 0x3782 DUP8 DUP3 DUP9 ADD PUSH2 0x347A JUMP JUMPDEST SWAP2 POP POP SWAP3 SWAP6 SWAP2 SWAP5 POP SWAP3 POP JUMP JUMPDEST PUSH1 0x0 DUP1 PUSH1 0x40 DUP4 DUP6 SUB SLT ISZERO PUSH2 0x37A5 JUMPI PUSH2 0x37A4 PUSH2 0x4883 JUMP JUMPDEST JUMPDEST PUSH1 0x0 PUSH2 0x37B3 DUP6 DUP3 DUP7 ADD PUSH2 0x34A8 JUMP JUMPDEST SWAP3 POP POP PUSH1 0x20 PUSH2 0x37C4 DUP6 DUP3 DUP7 ADD PUSH2 0x33F8 JUMP JUMPDEST SWAP2 POP POP SWAP3 POP SWAP3 SWAP1 POP JUMP JUMPDEST PUSH1 0x0 PUSH1 0x20 DUP3 DUP5 SUB SLT ISZERO PUSH2 0x37E4 JUMPI PUSH2 0x37E3 PUSH2 0x4883 JUMP JUMPDEST JUMPDEST PUSH1 0x0 PUSH2 0x37F2 DUP5 DUP3 DUP6 ADD PUSH2 0x34D2 JUMP JUMPDEST SWAP2 POP POP SWAP3 SWAP2 POP POP JUMP JUMPDEST PUSH1 0x0 DUP1 PUSH1 0x40 DUP4 DUP6 SUB SLT ISZERO PUSH2 0x3812 JUMPI PUSH2 0x3811 PUSH2 0x4883 JUMP JUMPDEST JUMPDEST PUSH1 0x0 PUSH2 0x3820 DUP6 DUP3 DUP7 ADD PUSH2 0x34BD JUMP JUMPDEST SWAP3 POP POP PUSH1 0x20 PUSH2 0x3831 DUP6 DUP3 DUP7 ADD PUSH2 0x34BD JUMP JUMPDEST SWAP2 POP POP SWAP3 POP SWAP3 SWAP1 POP JUMP JUMPDEST PUSH2 0x3844 DUP2 PUSH2 0x45ED JUMP JUMPDEST DUP3 MSTORE POP POP JUMP JUMPDEST PUSH2 0x3853 DUP2 PUSH2 0x45FF JUMP JUMPDEST DUP3 MSTORE POP POP JUMP JUMPDEST PUSH2 0x3862 DUP2 PUSH2 0x460B JUMP JUMPDEST DUP3 MSTORE POP POP JUMP JUMPDEST PUSH1 0x0 PUSH2 0x3873 DUP3 PUSH2 0x44C6 JUMP JUMPDEST PUSH2 0x387D DUP2 DUP6 PUSH2 0x44DC JUMP JUMPDEST SWAP4 POP PUSH2 0x388D DUP2 DUP6 PUSH1 0x20 DUP7 ADD PUSH2 0x46C2 JUMP JUMPDEST PUSH2 0x3896 DUP2 PUSH2 0x4888 JUMP JUMPDEST DUP5 ADD SWAP2 POP POP SWAP3 SWAP2 POP POP JUMP JUMPDEST PUSH1 0x0 PUSH2 0x38AC DUP3 PUSH2 0x44C6 JUMP JUMPDEST PUSH2 0x38B6 DUP2 DUP6 PUSH2 0x44ED JUMP JUMPDEST SWAP4 POP PUSH2 0x38C6 DUP2 DUP6 PUSH1 0x20 DUP7 ADD PUSH2 0x46C2 JUMP JUMPDEST PUSH2 0x38CF DUP2 PUSH2 0x4888 JUMP JUMPDEST DUP5 ADD SWAP2 POP POP SWAP3 SWAP2 POP POP JUMP JUMPDEST PUSH2 0x38E3 DUP2 PUSH2 0x467D JUMP JUMPDEST DUP3 MSTORE POP POP JUMP JUMPDEST PUSH2 0x38F2 DUP2 PUSH2 0x468F JUMP JUMPDEST DUP3 MSTORE POP POP JUMP JUMPDEST PUSH1 0x0 PUSH2 0x3903 DUP3 PUSH2 0x44D1 JUMP JUMPDEST PUSH2 0x390D DUP2 DUP6 PUSH2 0x4509 JUMP JUMPDEST SWAP4 POP PUSH2 0x391D DUP2 DUP6 PUSH1 0x20 DUP7 ADD PUSH2 0x46C2 JUMP JUMPDEST PUSH2 0x3926 DUP2 PUSH2 0x4888 JUMP JUMPDEST DUP5 ADD SWAP2 POP POP SWAP3 SWAP2 POP POP JUMP JUMPDEST PUSH1 0x0 PUSH2 0x393C DUP3 PUSH2 0x44D1 JUMP JUMPDEST PUSH2 0x3946 DUP2 DUP6 PUSH2 0x451A JUMP JUMPDEST SWAP4 POP PUSH2 0x3956 DUP2 DUP6 PUSH1 0x20 DUP7 ADD PUSH2 0x46C2 JUMP JUMPDEST PUSH2 0x395F DUP2 PUSH2 0x4888 JUMP JUMPDEST DUP5 ADD SWAP2 POP POP SWAP3 SWAP2 POP POP JUMP JUMPDEST PUSH1 0x0 PUSH2 0x3977 PUSH1 0x21 DUP4 PUSH2 0x4509 JUMP JUMPDEST SWAP2 POP PUSH2 0x3982 DUP3 PUSH2 0x4899 JUMP JUMPDEST PUSH1 0x40 DUP3 ADD SWAP1 POP SWAP2 SWAP1 POP JUMP JUMPDEST PUSH1 0x0 PUSH2 0x399A PUSH1 0x24 DUP4 PUSH2 0x4509 JUMP JUMPDEST SWAP2 POP PUSH2 0x39A5 DUP3 PUSH2 0x48E8 JUMP JUMPDEST PUSH1 0x40 DUP3 ADD SWAP1 POP SWAP2 SWAP1 POP JUMP JUMPDEST PUSH1 0x0 PUSH2 0x39BD PUSH1 0x1A DUP4 PUSH2 0x4509 JUMP JUMPDEST SWAP2 POP PUSH2 0x39C8 DUP3 PUSH2 0x4937 JUMP JUMPDEST PUSH1 0x20 DUP3 ADD SWAP1 POP SWAP2 SWAP1 POP JUMP JUMPDEST PUSH1 0x0 PUSH2 0x39E0 PUSH1 0x1F DUP4 PUSH2 0x4509 JUMP JUMPDEST SWAP2 POP PUSH2 0x39EB DUP3 PUSH2 0x4960 JUMP JUMPDEST PUSH1 0x20 DUP3 ADD SWAP1 POP SWAP2 SWAP1 POP JUMP JUMPDEST PUSH1 0x0 PUSH2 0x3A03 PUSH1 0x1D DUP4 PUSH2 0x4509 JUMP JUMPDEST SWAP2 POP PUSH2 0x3A0E DUP3 PUSH2 0x4989 JUMP JUMPDEST PUSH1 0x20 DUP3 ADD SWAP1 POP SWAP2 SWAP1 POP JUMP JUMPDEST PUSH1 0x0 PUSH2 0x3A26 PUSH1 0x15 DUP4 PUSH2 0x4509 JUMP JUMPDEST SWAP2 POP PUSH2 0x3A31 DUP3 PUSH2 0x49B2 JUMP JUMPDEST PUSH1 0x20 DUP3 ADD SWAP1 POP SWAP2 SWAP1 POP JUMP JUMPDEST PUSH1 0x0 PUSH2 0x3A49 PUSH1 0x24 DUP4 PUSH2 0x4509 JUMP JUMPDEST SWAP2 POP PUSH2 0x3A54 DUP3 PUSH2 0x49DB JUMP JUMPDEST PUSH1 0x40 DUP3 ADD SWAP1 POP SWAP2 SWAP1 POP JUMP JUMPDEST PUSH1 0x0 PUSH2 0x3A6C PUSH1 0x29 DUP4 PUSH2 0x4509 JUMP JUMPDEST SWAP2 POP PUSH2 0x3A77 DUP3 PUSH2 0x4A2A JUMP JUMPDEST PUSH1 0x40 DUP3 ADD SWAP1 POP SWAP2 SWAP1 POP JUMP JUMPDEST PUSH1 0x0 PUSH2 0x3A8F PUSH1 0x29 DUP4 PUSH2 0x4509 JUMP JUMPDEST SWAP2 POP PUSH2 0x3A9A DUP3 PUSH2 0x4A79 JUMP JUMPDEST PUSH1 0x40 DUP3 ADD SWAP1 POP SWAP2 SWAP1 POP JUMP JUMPDEST PUSH1 0x0 PUSH2 0x3AB2 PUSH1 0x1F DUP4 PUSH2 0x4509 JUMP JUMPDEST SWAP2 POP PUSH2 0x3ABD DUP3 PUSH2 0x4AC8 JUMP JUMPDEST PUSH1 0x20 DUP3 ADD SWAP1 POP SWAP2 SWAP1 POP JUMP JUMPDEST PUSH1 0x0 PUSH2 0x3AD5 PUSH1 0x1F DUP4 PUSH2 0x4509 JUMP JUMPDEST SWAP2 POP PUSH2 0x3AE0 DUP3 PUSH2 0x4AF1 JUMP JUMPDEST PUSH1 0x20 DUP3 ADD SWAP1 POP SWAP2 SWAP1 POP JUMP JUMPDEST PUSH1 0x0 PUSH2 0x3AF8 PUSH1 0x1A DUP4 PUSH2 0x4509 JUMP JUMPDEST SWAP2 POP PUSH2 0x3B03 DUP3 PUSH2 0x4B1A JUMP JUMPDEST PUSH1 0x20 DUP3 ADD SWAP1 POP SWAP2 SWAP1 POP JUMP JUMPDEST PUSH1 0x0 PUSH2 0x3B1B PUSH1 0x18 DUP4 PUSH2 0x4509 JUMP JUMPDEST SWAP2 POP PUSH2 0x3B26 DUP3 PUSH2 0x4B43 JUMP JUMPDEST PUSH1 0x20 DUP3 ADD SWAP1 POP SWAP2 SWAP1 POP JUMP JUMPDEST PUSH1 0x0 PUSH2 0x3B3E PUSH1 0x2A DUP4 PUSH2 0x4509 JUMP JUMPDEST SWAP2 POP PUSH2 0x3B49 DUP3 PUSH2 0x4B6C JUMP JUMPDEST PUSH1 0x40 DUP3 ADD SWAP1 POP SWAP2 SWAP1 POP JUMP JUMPDEST PUSH1 0x0 PUSH2 0x3B61 PUSH1 0x22 DUP4 PUSH2 0x4509 JUMP JUMPDEST SWAP2 POP PUSH2 0x3B6C DUP3 PUSH2 0x4BBB JUMP JUMPDEST PUSH1 0x40 DUP3 ADD SWAP1 POP SWAP2 SWAP1 POP JUMP JUMPDEST PUSH1 0x0 PUSH2 0x3B84 PUSH1 0x39 DUP4 PUSH2 0x4509 JUMP JUMPDEST SWAP2 POP PUSH2 0x3B8F DUP3 PUSH2 0x4C0A JUMP JUMPDEST PUSH1 0x40 DUP3 ADD SWAP1 POP SWAP2 SWAP1 POP JUMP JUMPDEST PUSH1 0x0 PUSH2 0x3BA7 PUSH1 0x27 DUP4 PUSH2 0x4509 JUMP JUMPDEST SWAP2 POP PUSH2 0x3BB2 DUP3 PUSH2 0x4C59 JUMP JUMPDEST PUSH1 0x40 DUP3 ADD SWAP1 POP SWAP2 SWAP1 POP JUMP JUMPDEST PUSH1 0x0 PUSH2 0x3BCA PUSH1 0x0 DUP4 PUSH2 0x44FE JUMP JUMPDEST SWAP2 POP PUSH2 0x3BD5 DUP3 PUSH2 0x4CA8 JUMP JUMPDEST PUSH1 0x0 DUP3 ADD SWAP1 POP SWAP2 SWAP1 POP JUMP JUMPDEST PUSH1 0x0 PUSH2 0x3BED PUSH1 0x38 DUP4 PUSH2 0x4509 JUMP JUMPDEST SWAP2 POP PUSH2 0x3BF8 DUP3 PUSH2 0x4CAB JUMP JUMPDEST PUSH1 0x40 DUP3 ADD SWAP1 POP SWAP2 SWAP1 POP JUMP JUMPDEST PUSH1 0x0 PUSH2 0x3C10 PUSH1 0x24 DUP4 PUSH2 0x4509 JUMP JUMPDEST SWAP2 POP PUSH2 0x3C1B DUP3 PUSH2 0x4CFA JUMP JUMPDEST PUSH1 0x40 DUP3 ADD SWAP1 POP SWAP2 SWAP1 POP JUMP JUMPDEST PUSH1 0x0 PUSH2 0x3C33 PUSH1 0x20 DUP4 PUSH2 0x4509 JUMP JUMPDEST SWAP2 POP PUSH2 0x3C3E DUP3 PUSH2 0x4D49 JUMP JUMPDEST PUSH1 0x20 DUP3 ADD SWAP1 POP SWAP2 SWAP1 POP JUMP JUMPDEST PUSH1 0x0 PUSH2 0x3C56 PUSH1 0x21 DUP4 PUSH2 0x4509 JUMP JUMPDEST SWAP2 POP PUSH2 0x3C61 DUP3 PUSH2 0x4D72 JUMP JUMPDEST PUSH1 0x40 DUP3 ADD SWAP1 POP SWAP2 SWAP1 POP JUMP JUMPDEST PUSH1 0x0 PUSH2 0x3C79 PUSH1 0x26 DUP4 PUSH2 0x4509 JUMP JUMPDEST SWAP2 POP PUSH2 0x3C84 DUP3 PUSH2 0x4DC1 JUMP JUMPDEST PUSH1 0x40 DUP3 ADD SWAP1 POP SWAP2 SWAP1 POP JUMP JUMPDEST PUSH1 0x40 DUP3 ADD PUSH1 0x0 DUP3 ADD MLOAD PUSH2 0x3CA5 PUSH1 0x0 DUP6 ADD DUP3 PUSH2 0x3CCD JUMP JUMPDEST POP PUSH1 0x20 DUP3 ADD MLOAD PUSH2 0x3CB8 PUSH1 0x20 DUP6 ADD DUP3 PUSH2 0x3CCD JUMP JUMPDEST POP POP POP POP JUMP JUMPDEST PUSH2 0x3CC7 DUP2 PUSH2 0x4628 JUMP JUMPDEST DUP3 MSTORE POP POP JUMP JUMPDEST PUSH2 0x3CD6 DUP2 PUSH2 0x4656 JUMP JUMPDEST DUP3 MSTORE POP POP JUMP JUMPDEST PUSH2 0x3CE5 DUP2 PUSH2 0x4656 JUMP JUMPDEST DUP3 MSTORE POP POP JUMP JUMPDEST PUSH2 0x3CF4 DUP2 PUSH2 0x4656 JUMP JUMPDEST DUP3 MSTORE POP POP JUMP JUMPDEST PUSH2 0x3D03 DUP2 PUSH2 0x46A1 JUMP JUMPDEST DUP3 MSTORE POP POP JUMP JUMPDEST PUSH2 0x3D12 DUP2 PUSH2 0x46A1 JUMP JUMPDEST DUP3 MSTORE POP POP JUMP JUMPDEST PUSH2 0x3D21 DUP2 PUSH2 0x4660 JUMP JUMPDEST DUP3 MSTORE POP POP JUMP JUMPDEST PUSH2 0x3D30 DUP2 PUSH2 0x4670 JUMP JUMPDEST DUP3 MSTORE POP POP JUMP JUMPDEST PUSH1 0x0 PUSH2 0x3D41 DUP3 PUSH2 0x3BBD JUMP JUMPDEST SWAP2 POP DUP2 SWAP1 POP SWAP2 SWAP1 POP JUMP JUMPDEST PUSH1 0x0 PUSH1 0x20 DUP3 ADD SWAP1 POP PUSH2 0x3D60 PUSH1 0x0 DUP4 ADD DUP5 PUSH2 0x383B JUMP JUMPDEST SWAP3 SWAP2 POP POP JUMP JUMPDEST PUSH1 0x0 PUSH1 0xE0 DUP3 ADD SWAP1 POP PUSH2 0x3D7B PUSH1 0x0 DUP4 ADD DUP10 PUSH2 0x383B JUMP JUMPDEST PUSH2 0x3D88 PUSH1 0x20 DUP4 ADD DUP9 PUSH2 0x383B JUMP JUMPDEST PUSH2 0x3D95 PUSH1 0x40 DUP4 ADD DUP8 PUSH2 0x3C8F JUMP JUMPDEST PUSH2 0x3DA2 PUSH1 0x80 DUP4 ADD DUP7 PUSH2 0x383B JUMP JUMPDEST PUSH2 0x3DAF PUSH1 0xA0 DUP4 ADD DUP6 PUSH2 0x3CDC JUMP JUMPDEST PUSH2 0x3DBC PUSH1 0xC0 DUP4 ADD DUP5 PUSH2 0x3CDC JUMP JUMPDEST SWAP8 SWAP7 POP POP POP POP POP POP POP JUMP JUMPDEST PUSH1 0x0 PUSH1 0x60 DUP3 ADD SWAP1 POP PUSH2 0x3DDC PUSH1 0x0 DUP4 ADD DUP7 PUSH2 0x383B JUMP JUMPDEST PUSH2 0x3DE9 PUSH1 0x20 DUP4 ADD DUP6 PUSH2 0x383B JUMP JUMPDEST PUSH2 0x3DF6 PUSH1 0x40 DUP4 ADD DUP5 PUSH2 0x3CDC JUMP JUMPDEST SWAP5 SWAP4 POP POP POP POP JUMP JUMPDEST PUSH1 0x0 PUSH1 0x80 DUP3 ADD SWAP1 POP PUSH2 0x3E13 PUSH1 0x0 DUP4 ADD DUP7 PUSH2 0x383B JUMP JUMPDEST PUSH2 0x3E20 PUSH1 0x20 DUP4 ADD DUP6 PUSH2 0x3C8F JUMP JUMPDEST PUSH2 0x3E2D PUSH1 0x60 DUP4 ADD DUP5 PUSH2 0x383B JUMP JUMPDEST SWAP5 SWAP4 POP POP POP POP JUMP JUMPDEST PUSH1 0x0 PUSH1 0x60 DUP3 ADD SWAP1 POP PUSH2 0x3E4A PUSH1 0x0 DUP4 ADD DUP7 PUSH2 0x383B JUMP JUMPDEST PUSH2 0x3E57 PUSH1 0x20 DUP4 ADD DUP6 PUSH2 0x3CDC JUMP JUMPDEST PUSH2 0x3E64 PUSH1 0x40 DUP4 ADD DUP5 PUSH2 0x383B JUMP JUMPDEST SWAP5 SWAP4 POP POP POP POP JUMP JUMPDEST PUSH1 0x0 PUSH1 0xA0 DUP3 ADD SWAP1 POP PUSH2 0x3E81 PUSH1 0x0 DUP4 ADD DUP9 PUSH2 0x383B JUMP JUMPDEST PUSH2 0x3E8E PUSH1 0x20 DUP4 ADD DUP8 PUSH2 0x3CDC JUMP JUMPDEST PUSH2 0x3E9B PUSH1 0x40 DUP4 ADD DUP7 PUSH2 0x383B JUMP JUMPDEST PUSH2 0x3EA8 PUSH1 0x60 DUP4 ADD DUP6 PUSH2 0x3CDC JUMP JUMPDEST PUSH2 0x3EB5 PUSH1 0x80 DUP4 ADD DUP5 PUSH2 0x3CDC JUMP JUMPDEST SWAP7 SWAP6 POP POP POP POP POP POP JUMP JUMPDEST PUSH1 0x0 PUSH1 0x40 DUP3 ADD SWAP1 POP PUSH2 0x3ED4 PUSH1 0x0 DUP4 ADD DUP6 PUSH2 0x383B JUMP JUMPDEST PUSH2 0x3EE1 PUSH1 0x20 DUP4 ADD DUP5 PUSH2 0x3CFA JUMP JUMPDEST SWAP4 SWAP3 POP POP POP JUMP JUMPDEST PUSH1 0x0 PUSH1 0x20 DUP3 ADD SWAP1 POP PUSH2 0x3EFD PUSH1 0x0 DUP4 ADD DUP5 PUSH2 0x384A JUMP JUMPDEST SWAP3 SWAP2 POP POP JUMP JUMPDEST PUSH1 0x0 PUSH1 0x20 DUP3 ADD SWAP1 POP DUP2 DUP2 SUB PUSH1 0x0 DUP4 ADD MSTORE PUSH2 0x3F1D DUP2 DUP5 PUSH2 0x38A1 JUMP JUMPDEST SWAP1 POP SWAP3 SWAP2 POP POP JUMP JUMPDEST PUSH1 0x0 PUSH1 0x80 DUP3 ADD SWAP1 POP DUP2 DUP2 SUB PUSH1 0x0 DUP4 ADD MSTORE PUSH2 0x3F3F DUP2 DUP8 PUSH2 0x3868 JUMP JUMPDEST SWAP1 POP DUP2 DUP2 SUB PUSH1 0x20 DUP4 ADD MSTORE PUSH2 0x3F53 DUP2 DUP7 PUSH2 0x3868 JUMP JUMPDEST SWAP1 POP DUP2 DUP2 SUB PUSH1 0x40 DUP4 ADD MSTORE PUSH2 0x3F67 DUP2 DUP6 PUSH2 0x3868 JUMP JUMPDEST SWAP1 POP PUSH2 0x3F76 PUSH1 0x60 DUP4 ADD DUP5 PUSH2 0x3859 JUMP JUMPDEST SWAP6 SWAP5 POP POP POP POP POP JUMP JUMPDEST PUSH1 0x0 PUSH1 0x20 DUP3 ADD SWAP1 POP PUSH2 0x3F94 PUSH1 0x0 DUP4 ADD DUP5 PUSH2 0x38DA JUMP JUMPDEST SWAP3 SWAP2 POP POP JUMP JUMPDEST PUSH1 0x0 PUSH1 0x40 DUP3 ADD SWAP1 POP PUSH2 0x3FAF PUSH1 0x0 DUP4 ADD DUP6 PUSH2 0x38DA JUMP JUMPDEST PUSH2 0x3FBC PUSH1 0x20 DUP4 ADD DUP5 PUSH2 0x383B JUMP JUMPDEST SWAP4 SWAP3 POP POP POP JUMP JUMPDEST PUSH1 0x0 PUSH1 0x80 DUP3 ADD SWAP1 POP PUSH2 0x3FD8 PUSH1 0x0 DUP4 ADD DUP8 PUSH2 0x38E9 JUMP JUMPDEST PUSH2 0x3FE5 PUSH1 0x20 DUP4 ADD DUP7 PUSH2 0x383B JUMP JUMPDEST PUSH2 0x3FF2 PUSH1 0x40 DUP4 ADD DUP6 PUSH2 0x3CDC JUMP JUMPDEST DUP2 DUP2 SUB PUSH1 0x60 DUP4 ADD MSTORE PUSH2 0x4004 DUP2 DUP5 PUSH2 0x38F8 JUMP JUMPDEST SWAP1 POP SWAP6 SWAP5 POP POP POP POP POP JUMP JUMPDEST PUSH1 0x0 PUSH1 0x20 DUP3 ADD SWAP1 POP DUP2 DUP2 SUB PUSH1 0x0 DUP4 ADD MSTORE PUSH2 0x4029 DUP2 DUP5 PUSH2 0x3931 JUMP JUMPDEST SWAP1 POP SWAP3 SWAP2 POP POP JUMP JUMPDEST PUSH1 0x0 PUSH1 0x20 DUP3 ADD SWAP1 POP DUP2 DUP2 SUB PUSH1 0x0 DUP4 ADD MSTORE PUSH2 0x404B DUP2 DUP5 PUSH2 0x38F8 JUMP JUMPDEST SWAP1 POP SWAP3 SWAP2 POP POP JUMP JUMPDEST PUSH1 0x0 PUSH1 0x20 DUP3 ADD SWAP1 POP DUP2 DUP2 SUB PUSH1 0x0 DUP4 ADD MSTORE PUSH2 0x406C DUP2 PUSH2 0x396A JUMP JUMPDEST SWAP1 POP SWAP2 SWAP1 POP JUMP JUMPDEST PUSH1 0x0 PUSH1 0x20 DUP3 ADD SWAP1 POP DUP2 DUP2 SUB PUSH1 0x0 DUP4 ADD MSTORE PUSH2 0x408C DUP2 PUSH2 0x398D JUMP JUMPDEST SWAP1 POP SWAP2 SWAP1 POP JUMP JUMPDEST PUSH1 0x0 PUSH1 0x20 DUP3 ADD SWAP1 POP DUP2 DUP2 SUB PUSH1 0x0 DUP4 ADD MSTORE PUSH2 0x40AC DUP2 PUSH2 0x39B0 JUMP JUMPDEST SWAP1 POP SWAP2 SWAP1 POP JUMP JUMPDEST PUSH1 0x0 PUSH1 0x20 DUP3 ADD SWAP1 POP DUP2 DUP2 SUB PUSH1 0x0 DUP4 ADD MSTORE PUSH2 0x40CC DUP2 PUSH2 0x39D3 JUMP JUMPDEST SWAP1 POP SWAP2 SWAP1 POP JUMP JUMPDEST PUSH1 0x0 PUSH1 0x20 DUP3 ADD SWAP1 POP DUP2 DUP2 SUB PUSH1 0x0 DUP4 ADD MSTORE PUSH2 0x40EC DUP2 PUSH2 0x39F6 JUMP JUMPDEST SWAP1 POP SWAP2 SWAP1 POP JUMP JUMPDEST PUSH1 0x0 PUSH1 0x20 DUP3 ADD SWAP1 POP DUP2 DUP2 SUB PUSH1 0x0 DUP4 ADD MSTORE PUSH2 0x410C DUP2 PUSH2 0x3A19 JUMP JUMPDEST SWAP1 POP SWAP2 SWAP1 POP JUMP JUMPDEST PUSH1 0x0 PUSH1 0x20 DUP3 ADD SWAP1 POP DUP2 DUP2 SUB PUSH1 0x0 DUP4 ADD MSTORE PUSH2 0x412C DUP2 PUSH2 0x3A3C JUMP JUMPDEST SWAP1 POP SWAP2 SWAP1 POP JUMP JUMPDEST PUSH1 0x0 PUSH1 0x20 DUP3 ADD SWAP1 POP DUP2 DUP2 SUB PUSH1 0x0 DUP4 ADD MSTORE PUSH2 0x414C DUP2 PUSH2 0x3A5F JUMP JUMPDEST SWAP1 POP SWAP2 SWAP1 POP JUMP JUMPDEST PUSH1 0x0 PUSH1 0x20 DUP3 ADD SWAP1 POP DUP2 DUP2 SUB PUSH1 0x0 DUP4 ADD MSTORE PUSH2 0x416C DUP2 PUSH2 0x3A82 JUMP JUMPDEST SWAP1 POP SWAP2 SWAP1 POP JUMP JUMPDEST PUSH1 0x0 PUSH1 0x20 DUP3 ADD SWAP1 POP DUP2 DUP2 SUB PUSH1 0x0 DUP4 ADD MSTORE PUSH2 0x418C DUP2 PUSH2 0x3AA5 JUMP JUMPDEST SWAP1 POP SWAP2 SWAP1 POP JUMP JUMPDEST PUSH1 0x0 PUSH1 0x20 DUP3 ADD SWAP1 POP DUP2 DUP2 SUB PUSH1 0x0 DUP4 ADD MSTORE PUSH2 0x41AC DUP2 PUSH2 0x3AC8 JUMP JUMPDEST SWAP1 POP SWAP2 SWAP1 POP JUMP JUMPDEST PUSH1 0x0 PUSH1 0x20 DUP3 ADD SWAP1 POP DUP2 DUP2 SUB PUSH1 0x0 DUP4 ADD MSTORE PUSH2 0x41CC DUP2 PUSH2 0x3AEB JUMP JUMPDEST SWAP1 POP SWAP2 SWAP1 POP JUMP JUMPDEST PUSH1 0x0 PUSH1 0x20 DUP3 ADD SWAP1 POP DUP2 DUP2 SUB PUSH1 0x0 DUP4 ADD MSTORE PUSH2 0x41EC DUP2 PUSH2 0x3B0E JUMP JUMPDEST SWAP1 POP SWAP2 SWAP1 POP JUMP JUMPDEST PUSH1 0x0 PUSH1 0x20 DUP3 ADD SWAP1 POP DUP2 DUP2 SUB PUSH1 0x0 DUP4 ADD MSTORE PUSH2 0x420C DUP2 PUSH2 0x3B31 JUMP JUMPDEST SWAP1 POP SWAP2 SWAP1 POP JUMP JUMPDEST PUSH1 0x0 PUSH1 0x20 DUP3 ADD SWAP1 POP DUP2 DUP2 SUB PUSH1 0x0 DUP4 ADD MSTORE PUSH2 0x422C DUP2 PUSH2 0x3B54 JUMP JUMPDEST SWAP1 POP SWAP2 SWAP1 POP JUMP JUMPDEST PUSH1 0x0 PUSH1 0x20 DUP3 ADD SWAP1 POP DUP2 DUP2 SUB PUSH1 0x0 DUP4 ADD MSTORE PUSH2 0x424C DUP2 PUSH2 0x3B77 JUMP JUMPDEST SWAP1 POP SWAP2 SWAP1 POP JUMP JUMPDEST PUSH1 0x0 PUSH1 0x20 DUP3 ADD SWAP1 POP DUP2 DUP2 SUB PUSH1 0x0 DUP4 ADD MSTORE PUSH2 0x426C DUP2 PUSH2 0x3B9A JUMP JUMPDEST SWAP1 POP SWAP2 SWAP1 POP JUMP JUMPDEST PUSH1 0x0 PUSH1 0x20 DUP3 ADD SWAP1 POP DUP2 DUP2 SUB PUSH1 0x0 DUP4 ADD MSTORE PUSH2 0x428C DUP2 PUSH2 0x3BE0 JUMP JUMPDEST SWAP1 POP SWAP2 SWAP1 POP JUMP JUMPDEST PUSH1 0x0 PUSH1 0x20 DUP3 ADD SWAP1 POP DUP2 DUP2 SUB PUSH1 0x0 DUP4 ADD MSTORE PUSH2 0x42AC DUP2 PUSH2 0x3C03 JUMP JUMPDEST SWAP1 POP SWAP2 SWAP1 POP JUMP JUMPDEST PUSH1 0x0 PUSH1 0x20 DUP3 ADD SWAP1 POP DUP2 DUP2 SUB PUSH1 0x0 DUP4 ADD MSTORE PUSH2 0x42CC DUP2 PUSH2 0x3C26 JUMP JUMPDEST SWAP1 POP SWAP2 SWAP1 POP JUMP JUMPDEST PUSH1 0x0 PUSH1 0x20 DUP3 ADD SWAP1 POP DUP2 DUP2 SUB PUSH1 0x0 DUP4 ADD MSTORE PUSH2 0x42EC DUP2 PUSH2 0x3C49 JUMP JUMPDEST SWAP1 POP SWAP2 SWAP1 POP JUMP JUMPDEST PUSH1 0x0 PUSH1 0x20 DUP3 ADD SWAP1 POP DUP2 DUP2 SUB PUSH1 0x0 DUP4 ADD MSTORE PUSH2 0x430C DUP2 PUSH2 0x3C6C JUMP JUMPDEST SWAP1 POP SWAP2 SWAP1 POP JUMP JUMPDEST PUSH1 0x0 PUSH1 0x20 DUP3 ADD SWAP1 POP PUSH2 0x4328 PUSH1 0x0 DUP4 ADD DUP5 PUSH2 0x3CBE JUMP JUMPDEST SWAP3 SWAP2 POP POP JUMP JUMPDEST PUSH1 0x0 PUSH1 0x20 DUP3 ADD SWAP1 POP PUSH2 0x4343 PUSH1 0x0 DUP4 ADD DUP5 PUSH2 0x3CEB JUMP JUMPDEST SWAP3 SWAP2 POP POP JUMP JUMPDEST PUSH1 0x0 PUSH1 0x20 DUP3 ADD SWAP1 POP PUSH2 0x435E PUSH1 0x0 DUP4 ADD DUP5 PUSH2 0x3CDC JUMP JUMPDEST SWAP3 SWAP2 POP POP JUMP JUMPDEST PUSH1 0x0 PUSH1 0x80 DUP3 ADD SWAP1 POP PUSH2 0x4379 PUSH1 0x0 DUP4 ADD DUP8 PUSH2 0x3CDC JUMP JUMPDEST PUSH2 0x4386 PUSH1 0x20 DUP4 ADD DUP7 PUSH2 0x383B JUMP JUMPDEST PUSH2 0x4393 PUSH1 0x40 DUP4 ADD DUP6 PUSH2 0x383B JUMP JUMPDEST PUSH2 0x43A0 PUSH1 0x60 DUP4 ADD DUP5 PUSH2 0x3CDC JUMP JUMPDEST SWAP6 SWAP5 POP POP POP POP POP JUMP JUMPDEST PUSH1 0x0 PUSH1 0x40 DUP3 ADD SWAP1 POP PUSH2 0x43BE PUSH1 0x0 DUP4 ADD DUP6 PUSH2 0x3CDC JUMP JUMPDEST PUSH2 0x43CB PUSH1 0x20 DUP4 ADD DUP5 PUSH2 0x3CDC JUMP JUMPDEST SWAP4 SWAP3 POP POP POP JUMP JUMPDEST PUSH1 0x0 PUSH1 0x60 DUP3 ADD SWAP1 POP PUSH2 0x43E7 PUSH1 0x0 DUP4 ADD DUP7 PUSH2 0x3CEB JUMP JUMPDEST PUSH2 0x43F4 PUSH1 0x20 DUP4 ADD DUP6 PUSH2 0x3D09 JUMP JUMPDEST PUSH2 0x4401 PUSH1 0x40 DUP4 ADD DUP5 PUSH2 0x3D09 JUMP JUMPDEST SWAP5 SWAP4 POP POP POP POP JUMP JUMPDEST PUSH1 0x0 PUSH1 0x20 DUP3 ADD SWAP1 POP PUSH2 0x441E PUSH1 0x0 DUP4 ADD DUP5 PUSH2 0x3D18 JUMP JUMPDEST SWAP3 SWAP2 POP POP JUMP JUMPDEST PUSH1 0x0 PUSH1 0x20 DUP3 ADD SWAP1 POP PUSH2 0x4439 PUSH1 0x0 DUP4 ADD DUP5 PUSH2 0x3D27 JUMP JUMPDEST SWAP3 SWAP2 POP POP JUMP JUMPDEST PUSH1 0x0 PUSH2 0x4449 PUSH2 0x445A JUMP JUMPDEST SWAP1 POP PUSH2 0x4455 DUP3 DUP3 PUSH2 0x4727 JUMP JUMPDEST SWAP2 SWAP1 POP JUMP JUMPDEST PUSH1 0x0 PUSH1 0x40 MLOAD SWAP1 POP SWAP1 JUMP JUMPDEST PUSH1 0x0 PUSH8 0xFFFFFFFFFFFFFFFF DUP3 GT ISZERO PUSH2 0x447F JUMPI PUSH2 0x447E PUSH2 0x4845 JUMP JUMPDEST JUMPDEST PUSH2 0x4488 DUP3 PUSH2 0x4888 JUMP JUMPDEST SWAP1 POP PUSH1 0x20 DUP2 ADD SWAP1 POP SWAP2 SWAP1 POP JUMP JUMPDEST PUSH1 0x0 PUSH8 0xFFFFFFFFFFFFFFFF DUP3 GT ISZERO PUSH2 0x44B0 JUMPI PUSH2 0x44AF PUSH2 0x4845 JUMP JUMPDEST JUMPDEST PUSH2 0x44B9 DUP3 PUSH2 0x4888 JUMP JUMPDEST SWAP1 POP PUSH1 0x20 DUP2 ADD SWAP1 POP SWAP2 SWAP1 POP JUMP JUMPDEST PUSH1 0x0 DUP2 MLOAD SWAP1 POP SWAP2 SWAP1 POP JUMP JUMPDEST PUSH1 0x0 DUP2 MLOAD SWAP1 POP SWAP2 SWAP1 POP JUMP JUMPDEST PUSH1 0x0 DUP3 DUP3 MSTORE PUSH1 0x20 DUP3 ADD SWAP1 POP SWAP3 SWAP2 POP POP JUMP JUMPDEST PUSH1 0x0 DUP3 DUP3 MSTORE PUSH1 0x20 DUP3 ADD SWAP1 POP SWAP3 SWAP2 POP POP JUMP JUMPDEST PUSH1 0x0 DUP2 SWAP1 POP SWAP3 SWAP2 POP POP JUMP JUMPDEST PUSH1 0x0 DUP3 DUP3 MSTORE PUSH1 0x20 DUP3 ADD SWAP1 POP SWAP3 SWAP2 POP POP JUMP JUMPDEST PUSH1 0x0 DUP3 DUP3 MSTORE PUSH1 0x20 DUP3 ADD SWAP1 POP SWAP3 SWAP2 POP POP JUMP JUMPDEST PUSH1 0x0 PUSH2 0x4536 DUP3 PUSH2 0x4628 JUMP JUMPDEST SWAP2 POP PUSH2 0x4541 DUP4 PUSH2 0x4628 JUMP JUMPDEST SWAP3 POP DUP3 PUSH2 0xFFFF SUB DUP3 GT ISZERO PUSH2 0x4558 JUMPI PUSH2 0x4557 PUSH2 0x4789 JUMP JUMPDEST JUMPDEST DUP3 DUP3 ADD SWAP1 POP SWAP3 SWAP2 POP POP JUMP JUMPDEST PUSH1 0x0 PUSH2 0x456E DUP3 PUSH2 0x4656 JUMP JUMPDEST SWAP2 POP PUSH2 0x4579 DUP4 PUSH2 0x4656 JUMP JUMPDEST SWAP3 POP DUP3 PUSH32 0xFFFFFFFFFFFFFFFFFFFFFFFFFFFFFFFFFFFFFFFFFFFFFFFFFFFFFFFFFFFFFFFF SUB DUP3 GT ISZERO PUSH2 0x45AE JUMPI PUSH2 0x45AD PUSH2 0x4789 JUMP JUMPDEST JUMPDEST DUP3 DUP3 ADD SWAP1 POP SWAP3 SWAP2 POP POP JUMP JUMPDEST PUSH1 0x0 PUSH2 0x45C4 DUP3 PUSH2 0x4656 JUMP JUMPDEST SWAP2 POP PUSH2 0x45CF DUP4 PUSH2 0x4656 JUMP JUMPDEST SWAP3 POP DUP3 DUP3 LT ISZERO PUSH2 0x45E2 JUMPI PUSH2 0x45E1 PUSH2 0x4789 JUMP JUMPDEST JUMPDEST DUP3 DUP3 SUB SWAP1 POP SWAP3 SWAP2 POP POP JUMP JUMPDEST PUSH1 0x0 PUSH2 0x45F8 DUP3 PUSH2 0x4636 JUMP JUMPDEST SWAP1 POP SWAP2 SWAP1 POP JUMP JUMPDEST PUSH1 0x0 DUP2 ISZERO ISZERO SWAP1 POP SWAP2 SWAP1 POP JUMP JUMPDEST PUSH1 0x0 DUP2 SWAP1 POP SWAP2 SWAP1 POP JUMP JUMPDEST PUSH1 0x0 DUP2 SWAP1 POP PUSH2 0x4623 DUP3 PUSH2 0x4E10 JUMP JUMPDEST SWAP2 SWAP1 POP JUMP JUMPDEST PUSH1 0x0 PUSH2 0xFFFF DUP3 AND SWAP1 POP SWAP2 SWAP1 POP JUMP JUMPDEST PUSH1 0x0 PUSH20 0xFFFFFFFFFFFFFFFFFFFFFFFFFFFFFFFFFFFFFFFF DUP3 AND SWAP1 POP SWAP2 SWAP1 POP JUMP JUMPDEST PUSH1 0x0 DUP2 SWAP1 POP SWAP2 SWAP1 POP JUMP JUMPDEST PUSH1 0x0 PUSH4 0xFFFFFFFF DUP3 AND SWAP1 POP SWAP2 SWAP1 POP JUMP JUMPDEST PUSH1 0x0 PUSH1 0xFF DUP3 AND SWAP1 POP SWAP2 SWAP1 POP JUMP JUMPDEST PUSH1 0x0 PUSH2 0x4688 DUP3 PUSH2 0x4615 JUMP JUMPDEST SWAP1 POP SWAP2 SWAP1 POP JUMP JUMPDEST PUSH1 0x0 PUSH2 0x469A DUP3 PUSH2 0x4656 JUMP JUMPDEST SWAP1 POP SWAP2 SWAP1 POP JUMP JUMPDEST PUSH1 0x0 PUSH2 0x46AC DUP3 PUSH2 0x4660 JUMP JUMPDEST SWAP1 POP SWAP2 SWAP1 POP JUMP JUMPDEST DUP3 DUP2 DUP4 CALLDATACOPY PUSH1 0x0 DUP4 DUP4 ADD MSTORE POP POP POP JUMP JUMPDEST PUSH1 0x0 JUMPDEST DUP4 DUP2 LT ISZERO PUSH2 0x46E0 JUMPI DUP1 DUP3 ADD MLOAD DUP2 DUP5 ADD MSTORE PUSH1 0x20 DUP2 ADD SWAP1 POP PUSH2 0x46C5 JUMP JUMPDEST DUP4 DUP2 GT ISZERO PUSH2 0x46EF JUMPI PUSH1 0x0 DUP5 DUP5 ADD MSTORE JUMPDEST POP POP POP POP JUMP JUMPDEST PUSH1 0x0 PUSH1 0x2 DUP3 DIV SWAP1 POP PUSH1 0x1 DUP3 AND DUP1 PUSH2 0x470D JUMPI PUSH1 0x7F DUP3 AND SWAP2 POP JUMPDEST PUSH1 0x20 DUP3 LT DUP2 EQ ISZERO PUSH2 0x4721 JUMPI PUSH2 0x4720 PUSH2 0x4816 JUMP JUMPDEST JUMPDEST POP SWAP2 SWAP1 POP JUMP JUMPDEST PUSH2 0x4730 DUP3 PUSH2 0x4888 JUMP JUMPDEST DUP2 ADD DUP2 DUP2 LT PUSH8 0xFFFFFFFFFFFFFFFF DUP3 GT OR ISZERO PUSH2 0x474F JUMPI PUSH2 0x474E PUSH2 0x4845 JUMP JUMPDEST JUMPDEST DUP1 PUSH1 0x40 MSTORE POP POP POP JUMP JUMPDEST PUSH1 0x0 PUSH2 0x4763 DUP3 PUSH2 0x4656 JUMP JUMPDEST SWAP2 POP PUSH2 0x476E DUP4 PUSH2 0x4656 JUMP JUMPDEST SWAP3 POP DUP3 PUSH2 0x477E JUMPI PUSH2 0x477D PUSH2 0x47B8 JUMP JUMPDEST JUMPDEST DUP3 DUP3 MOD SWAP1 POP SWAP3 SWAP2 POP POP JUMP JUMPDEST PUSH32 0x4E487B7100000000000000000000000000000000000000000000000000000000 PUSH1 0x0 MSTORE PUSH1 0x11 PUSH1 0x4 MSTORE PUSH1 0x24 PUSH1 0x0 REVERT JUMPDEST PUSH32 0x4E487B7100000000000000000000000000000000000000000000000000000000 PUSH1 0x0 MSTORE PUSH1 0x12 PUSH1 0x4 MSTORE PUSH1 0x24 PUSH1 0x0 REVERT JUMPDEST PUSH32 0x4E487B7100000000000000000000000000000000000000000000000000000000 PUSH1 0x0 MSTORE PUSH1 0x21 PUSH1 0x4 MSTORE PUSH1 0x24 PUSH1 0x0 REVERT JUMPDEST PUSH32 0x4E487B7100000000000000000000000000000000000000000000000000000000 PUSH1 0x0 MSTORE PUSH1 0x22 PUSH1 0x4 MSTORE PUSH1 0x24 PUSH1 0x0 REVERT JUMPDEST PUSH32 0x4E487B7100000000000000000000000000000000000000000000000000000000 PUSH1 0x0 MSTORE PUSH1 0x41 PUSH1 0x4 MSTORE PUSH1 0x24 PUSH1 0x0 REVERT JUMPDEST PUSH1 0x0 DUP1 REVERT JUMPDEST PUSH1 0x0 DUP1 REVERT JUMPDEST PUSH1 0x0 DUP1 REVERT JUMPDEST PUSH1 0x0 DUP1 REVERT JUMPDEST PUSH1 0x0 PUSH1 0x1F NOT PUSH1 0x1F DUP4 ADD AND SWAP1 POP SWAP2 SWAP1 POP JUMP JUMPDEST PUSH32 0x45524332303A204E6F7420656E6F7567682045746820746F207472616E736665 PUSH1 0x0 DUP3 ADD MSTORE PUSH32 0x7200000000000000000000000000000000000000000000000000000000000000 PUSH1 0x20 DUP3 ADD MSTORE POP JUMP JUMPDEST PUSH32 0x41756374696F6E3A204E6F20746F6B656E7320617265206265696E67206F6666 PUSH1 0x0 DUP3 ADD MSTORE PUSH32 0x6572656400000000000000000000000000000000000000000000000000000000 PUSH1 0x20 DUP3 ADD MSTORE POP JUMP JUMPDEST PUSH32 0x41756374696F6E3A2057726F6E6720616D6F756E742070616964000000000000 PUSH1 0x0 DUP3 ADD MSTORE POP JUMP JUMPDEST PUSH32 0x45524332303A2043616E6E6F7420757365207468652030206164647265737300 PUSH1 0x0 DUP3 ADD MSTORE POP JUMP JUMPDEST PUSH32 0x45524332303A20696E73756666696369656E7420616C6C6F77616E6365000000 PUSH1 0x0 DUP3 ADD MSTORE POP JUMP JUMPDEST PUSH32 0x4465706F7369743A20496E76616C69642074696D650000000000000000000000 PUSH1 0x0 DUP3 ADD MSTORE POP JUMP JUMPDEST PUSH32 0x45524332303A204E6F7420656E6F75676820746F6B656E7320746F207472616E PUSH1 0x0 DUP3 ADD MSTORE PUSH32 0x7366657200000000000000000000000000000000000000000000000000000000 PUSH1 0x20 DUP3 ADD MSTORE POP JUMP JUMPDEST PUSH32 0x546865207374616B6520696E7374616E6365206973206E6F7420726561647920 PUSH1 0x0 DUP3 ADD MSTORE PUSH32 0x746F20696E766573740000000000000000000000000000000000000000000000 PUSH1 0x20 DUP3 ADD MSTORE POP JUMP JUMPDEST PUSH32 0x5061757365723A2046756E6374696F6E2063616E6E6F74206265207573656420 PUSH1 0x0 DUP3 ADD MSTORE PUSH32 0x7269676874206E6F770000000000000000000000000000000000000000000000 PUSH1 0x20 DUP3 ADD MSTORE POP JUMP JUMPDEST PUSH32 0x4465706F7369743A20496E76616C6964206465706F73697420616D6F756E7400 PUSH1 0x0 DUP3 ADD MSTORE POP JUMP JUMPDEST PUSH32 0x5265656E7472616E63793A205265656E7472616E637920646574656374656400 PUSH1 0x0 DUP3 ADD MSTORE POP JUMP JUMPDEST PUSH32 0x537769746368696E673A206E6F7420656E6F7567687420457468000000000000 PUSH1 0x0 DUP3 ADD MSTORE POP JUMP JUMPDEST PUSH32 0x4661696C75726521204574686572206E6F742073656E742E0000000000000000 PUSH1 0x0 DUP3 ADD MSTORE POP JUMP JUMPDEST PUSH32 0x57697468647261773A204D7573742062652061206E6F6E203020616D6F756E74 PUSH1 0x0 DUP3 ADD MSTORE PUSH32 0x206F6620746F6B656E7300000000000000000000000000000000000000000000 PUSH1 0x20 DUP3 ADD MSTORE POP JUMP JUMPDEST PUSH32 0x41756374696F6E3A204E6F7420656E6F75676820746F6B656E7320746F207365 PUSH1 0x0 DUP3 ADD MSTORE PUSH32 0x6E64000000000000000000000000000000000000000000000000000000000000 PUSH1 0x20 DUP3 ADD MSTORE POP JUMP JUMPDEST PUSH32 0x537769746368696E673A2043757272656E742073746174757320696E76616C69 PUSH1 0x0 DUP3 ADD MSTORE PUSH32 0x6420746F2073776974636820746F204465706F736974696E6700000000000000 PUSH1 0x20 DUP3 ADD MSTORE POP JUMP JUMPDEST PUSH32 0x45524332303A204F7665722074686520616C6C6F776564206C696D6974206F66 PUSH1 0x0 DUP3 ADD MSTORE PUSH32 0x20746F6B656E7300000000000000000000000000000000000000000000000000 PUSH1 0x20 DUP3 ADD MSTORE POP JUMP JUMPDEST POP JUMP JUMPDEST PUSH32 0x537769746368696E673A2043757272656E742073746174757320696E76616C69 PUSH1 0x0 DUP3 ADD MSTORE PUSH32 0x6420746F2073776974636820746F20526566756E64696E670000000000000000 PUSH1 0x20 DUP3 ADD MSTORE POP JUMP JUMPDEST PUSH32 0x537769746368696E673A204E6F646520686173206E6F7420636F6C6170736564 PUSH1 0x0 DUP3 ADD MSTORE PUSH32 0x2079657400000000000000000000000000000000000000000000000000000000 PUSH1 0x20 DUP3 ADD MSTORE POP JUMP JUMPDEST PUSH32 0x45524332303A204E6F7420656E6F75676820746F6B656E7320746F2073656E74 PUSH1 0x0 DUP3 ADD MSTORE POP JUMP JUMPDEST PUSH32 0x45524332303A204E6F7420656E6F7567687420746F6B656E7320746F20627572 PUSH1 0x0 DUP3 ADD MSTORE PUSH32 0x6E00000000000000000000000000000000000000000000000000000000000000 PUSH1 0x20 DUP3 ADD MSTORE POP JUMP JUMPDEST PUSH32 0x436C61696D3A20496E766573746D656E7420686173206E6F742066696E697368 PUSH1 0x0 DUP3 ADD MSTORE PUSH32 0x6564207965740000000000000000000000000000000000000000000000000000 PUSH1 0x20 DUP3 ADD MSTORE POP JUMP JUMPDEST PUSH1 0x7 DUP2 LT PUSH2 0x4E21 JUMPI PUSH2 0x4E20 PUSH2 0x47E7 JUMP JUMPDEST JUMPDEST POP JUMP JUMPDEST PUSH2 0x4E2D DUP2 PUSH2 0x45ED JUMP JUMPDEST DUP2 EQ PUSH2 0x4E38 JUMPI PUSH1 0x0 DUP1 REVERT JUMPDEST POP JUMP JUMPDEST PUSH2 0x4E44 DUP2 PUSH2 0x460B JUMP JUMPDEST DUP2 EQ PUSH2 0x4E4F JUMPI PUSH1 0x0 DUP1 REVERT JUMPDEST POP JUMP JUMPDEST PUSH1 0x7 DUP2 LT PUSH2 0x4E5F JUMPI PUSH1 0x0 DUP1 REVERT JUMPDEST POP JUMP JUMPDEST PUSH1 0x4 DUP2 LT PUSH2 0x4E6F JUMPI PUSH1 0x0 DUP1 REVERT JUMPDEST POP JUMP JUMPDEST PUSH2 0x4E7B DUP2 PUSH2 0x4628 JUMP JUMPDEST DUP2 EQ PUSH2 0x4E86 JUMPI PUSH1 0x0 DUP1 REVERT JUMPDEST POP JUMP JUMPDEST PUSH2 0x4E92 DUP2 PUSH2 0x4656 JUMP JUMPDEST DUP2 EQ PUSH2 0x4E9D JUMPI PUSH1 0x0 DUP1 REVERT JUMPDEST POP JUMP INVALID LOG2 PUSH5 0x6970667358 0x22 SLT KECCAK256 DUP1 0x5E 0xDD DUP4 0xD CALL PUSH3 0xCAFFF9 0x21 0xC6 PUSH7 0x456F23D9863920 SWAP8 0x22 ORIGIN 0xCB SWAP13 PUSH3 0xB2DEA5 DUP11 0xE8 EXTCODESIZE PUSH5 0x736F6C6343 STOP ADDMOD SMOD STOP CALLER "
		},
		"gasEstimates": {
			"creation": {
				"codeDepositCost": "4036400",
				"executionCost": "infinite",
				"totalCost": "infinite"
			},
			"external": {
				"allowance(address,address)": "infinite",
				"annualInterestRate()": "2539",
				"approve(address,uint256)": "infinite",
				"balanceOf(address)": "2974",
				"buyUserOffer(address)": "infinite",
				"claim(address)": "infinite",
				"claimAllowed()": "2611",
				"claimPeriod()": "2497",
				"claimedRewards(uint16,address)": "3183",
				"decimals()": "2525",
				"deposit()": "infinite",
				"depositAllowed()": "2582",
				"depositExpirationDays()": "2632",
				"depositToStakingContract(string,string,string,string)": "infinite",
				"hasNodeColapsed()": "2517",
				"investmentPhase()": "2566",
				"investmentStartTime()": "2539",
				"isAllowed(uint8)": "3165",
				"isClaimPeriod()": "infinite",
				"isDepositPeriod()": "infinite",
				"isInvestmentPeriod()": "infinite",
				"isStatus(uint8)": "2898",
				"lockedPeriod()": "2588",
				"manageClaimPeriod()": "infinite",
				"name()": "infinite",
				"offerTokens(uint256,uint256)": "infinite",
				"refundFullInvestment()": "infinite",
				"skimAddress()": "2653",
				"skimEth()": "infinite",
				"status()": "2722",
				"symbol()": "infinite",
				"toSell(address)": "infinite",
				"totalSupply()": "2550",
				"tradingAllowed()": "2610",
				"transfer(address,uint256)": "infinite",
				"transferFrom(address,address,uint256)": "infinite",
				"withdrawAllowed()": "2632"
			},
			"internal": {
				"allowPause(enum StakingContract.pausers,bool)": "97543",
				"burn(address,uint256)": "infinite",
				"changeTokenAllowance(address,address,uint256)": "infinite",
				"giveTokenRewards(address)": "infinite",
				"mint(address,uint256)": "infinite",
				"moveTokens(address,address,uint256)": "infinite",
				"sendEth(address,uint256)": "infinite",
				"setInvestmentTimer()": "22122",
				"spendAllowance(address,address,uint256)": "infinite",
				"switchStatus(enum StakingContractLibrary.Status)": "infinite",
				"withdraw(address)": "infinite"
			}
		},
		"methodIdentifiers": {
			"allowance(address,address)": "dd62ed3e",
			"annualInterestRate()": "1a9703da",
			"approve(address,uint256)": "095ea7b3",
			"balanceOf(address)": "70a08231",
			"buyUserOffer(address)": "189b61e1",
			"claim(address)": "1e83409a",
			"claimAllowed()": "872f0b97",
			"claimPeriod()": "7dc2cd98",
			"claimedRewards(uint16,address)": "39c6ea16",
			"decimals()": "313ce567",
			"deposit()": "d0e30db0",
			"depositAllowed()": "c30ea2a2",
			"depositExpirationDays()": "9aceda7d",
			"depositToStakingContract(string,string,string,string)": "a3c8c880",
			"hasNodeColapsed()": "70e98410",
			"investmentPhase()": "4975521b",
			"investmentStartTime()": "dcd8bc41",
			"isAllowed(uint8)": "1796b78c",
			"isClaimPeriod()": "4213868b",
			"isDepositPeriod()": "392cf7ab",
			"isInvestmentPeriod()": "c55b1ab1",
			"isStatus(uint8)": "95f3a950",
			"lockedPeriod()": "b3d6e119",
			"manageClaimPeriod()": "c4ded0fa",
			"name()": "06fdde03",
			"offerTokens(uint256,uint256)": "50456bef",
			"refundFullInvestment()": "c51e1fce",
			"skimAddress()": "c1caed51",
			"skimEth()": "8da3aba3",
			"status()": "200d2ed2",
			"symbol()": "95d89b41",
			"toSell(address)": "92c51d3a",
			"totalSupply()": "18160ddd",
			"tradingAllowed()": "53371be0",
			"transfer(address,uint256)": "a9059cbb",
			"transferFrom(address,address,uint256)": "23b872dd",
			"withdrawAllowed()": "574eab01"
		}
	},
	"abi": [
		{
			"inputs": [
				{
					"internalType": "string",
					"name": "_name",
					"type": "string"
				},
				{
					"internalType": "string",
					"name": "_symbol",
					"type": "string"
				},
				{
					"internalType": "uint8",
					"name": "_decimal",
					"type": "uint8"
				},
				{
					"internalType": "uint32",
					"name": "_lockedPeriod",
					"type": "uint32"
				},
				{
					"internalType": "uint32",
					"name": "_annualInterestRate",
					"type": "uint32"
				},
				{
					"internalType": "uint8",
					"name": "_depositExpirationDays",
					"type": "uint8"
				},
				{
					"internalType": "uint8",
					"name": "_claimPeriod",
					"type": "uint8"
				},
				{
					"internalType": "address",
					"name": "_skimAddress",
					"type": "address"
				}
			],
			"stateMutability": "nonpayable",
			"type": "constructor"
		},
		{
			"anonymous": false,
			"inputs": [
				{
					"indexed": false,
					"internalType": "enum StakingContractLibrary.Status",
					"name": "_newStatus",
					"type": "uint8"
				},
				{
					"indexed": false,
					"internalType": "address",
					"name": "_contractAddress",
					"type": "address"
				}
			],
			"name": "StatusSwitched",
			"type": "event"
		},
		{
			"anonymous": false,
			"inputs": [
				{
					"indexed": false,
					"internalType": "address",
					"name": "from",
					"type": "address"
				},
				{
					"indexed": false,
					"internalType": "address",
					"name": "to",
					"type": "address"
				},
				{
					"indexed": false,
					"internalType": "uint256",
					"name": "value",
					"type": "uint256"
				}
			],
			"name": "Transfer",
			"type": "event"
		},
		{
			"anonymous": false,
			"inputs": [
				{
					"indexed": false,
					"internalType": "address",
					"name": "owner",
					"type": "address"
				},
				{
					"indexed": false,
					"internalType": "address",
					"name": "spender",
					"type": "address"
				},
				{
					"indexed": false,
					"internalType": "uint256",
					"name": "value",
					"type": "uint256"
				}
			],
			"name": "approval",
			"type": "event"
		},
		{
			"anonymous": false,
			"inputs": [
				{
					"indexed": false,
					"internalType": "uint256",
					"name": "_amount",
					"type": "uint256"
				},
				{
					"indexed": false,
					"internalType": "address",
					"name": "_contractAddress",
					"type": "address"
				},
				{
					"indexed": false,
					"internalType": "uint256",
					"name": "_investingStartTime",
					"type": "uint256"
				},
				{
					"indexed": false,
					"internalType": "string",
					"name": "_pubkey",
					"type": "string"
				}
			],
			"name": "ethersSentToTheStakingContract",
			"type": "event"
		},
		{
			"anonymous": false,
			"inputs": [
				{
					"indexed": false,
					"internalType": "address",
					"name": "sender",
					"type": "address"
				},
				{
					"indexed": false,
					"internalType": "uint256",
					"name": "amount",
					"type": "uint256"
				},
				{
					"indexed": false,
					"internalType": "address",
					"name": "_contractAddress",
					"type": "address"
				}
			],
			"name": "fundsReceived",
			"type": "event"
		},
		{
			"anonymous": false,
			"inputs": [
				{
					"indexed": false,
					"internalType": "address",
					"name": "seller",
					"type": "address"
				},
				{
					"components": [
						{
							"internalType": "uint256",
							"name": "amount",
							"type": "uint256"
						},
						{
							"internalType": "uint256",
							"name": "price",
							"type": "uint256"
						}
					],
					"indexed": false,
					"internalType": "struct StakingContractLibrary.SellStruct",
					"name": "_swapInfo",
					"type": "tuple"
				},
				{
					"indexed": false,
					"internalType": "address",
					"name": "_contractAddress",
					"type": "address"
				}
			],
			"name": "offered",
			"type": "event"
		},
		{
			"anonymous": false,
			"inputs": [
				{
					"indexed": false,
					"internalType": "address",
					"name": "_contractAddress",
					"type": "address"
				},
				{
					"indexed": false,
					"internalType": "uint256",
					"name": "_lockedPeriodInDays",
					"type": "uint256"
				}
			],
			"name": "readyToInvest",
			"type": "event"
		},
		{
			"anonymous": false,
			"inputs": [
				{
					"indexed": false,
					"internalType": "address",
					"name": "_user",
					"type": "address"
				},
				{
					"indexed": false,
					"internalType": "uint256",
					"name": "_claimedAmount",
					"type": "uint256"
				},
				{
					"indexed": false,
					"internalType": "address",
					"name": "_contractAddress",
					"type": "address"
				},
				{
					"indexed": false,
					"internalType": "uint256",
					"name": "_userBalance",
					"type": "uint256"
				},
				{
					"indexed": false,
					"internalType": "uint256",
					"name": "_time",
					"type": "uint256"
				}
			],
			"name": "sentRewards",
			"type": "event"
		},
		{
			"anonymous": false,
			"inputs": [
				{
					"indexed": false,
					"internalType": "address",
					"name": "seller",
					"type": "address"
				},
				{
					"indexed": false,
					"internalType": "address",
					"name": "buyer",
					"type": "address"
				},
				{
					"components": [
						{
							"internalType": "uint256",
							"name": "amount",
							"type": "uint256"
						},
						{
							"internalType": "uint256",
							"name": "price",
							"type": "uint256"
						}
					],
					"indexed": false,
					"internalType": "struct StakingContractLibrary.SellStruct",
					"name": "_swapInfo",
					"type": "tuple"
				},
				{
					"indexed": false,
					"internalType": "address",
					"name": "_contractAddress",
					"type": "address"
				},
				{
					"indexed": false,
					"internalType": "uint256",
					"name": "_sellerBalance",
					"type": "uint256"
				},
				{
					"indexed": false,
					"internalType": "uint256",
					"name": "_buyerBalance",
					"type": "uint256"
				}
			],
			"name": "sold",
			"type": "event"
		},
		{
			"anonymous": false,
			"inputs": [
				{
					"indexed": false,
					"internalType": "address",
					"name": "_contractAddress",
					"type": "address"
				},
				{
					"indexed": false,
					"internalType": "uint256",
					"name": "_lockedPeriodInDays",
					"type": "uint256"
				},
				{
					"indexed": false,
					"internalType": "uint256",
					"name": "_annualRate",
					"type": "uint256"
				},
				{
					"indexed": false,
					"internalType": "uint256",
					"name": "_depositExpirationDays",
					"type": "uint256"
				},
				{
					"indexed": false,
					"internalType": "uint256",
					"name": "_time",
					"type": "uint256"
				}
			],
			"name": "stakingInstanceCreated",
			"type": "event"
		},
		{
			"anonymous": false,
			"inputs": [
				{
					"indexed": false,
					"internalType": "address",
					"name": "_userAddress",
					"type": "address"
				},
				{
					"indexed": false,
					"internalType": "uint256",
					"name": "_amount",
					"type": "uint256"
				},
				{
					"indexed": false,
					"internalType": "address",
					"name": "_contractAddress",
					"type": "address"
				},
				{
					"indexed": false,
					"internalType": "uint256",
					"name": "_userBalance",
					"type": "uint256"
				},
				{
					"indexed": false,
					"internalType": "uint256",
					"name": "_time",
					"type": "uint256"
				}
			],
			"name": "tokenSwapedForEth",
			"type": "event"
		},
		{
			"anonymous": false,
			"inputs": [
				{
					"indexed": false,
					"internalType": "address",
					"name": "_userAddress",
					"type": "address"
				},
				{
					"indexed": false,
					"internalType": "uint256",
					"name": "_amount",
					"type": "uint256"
				},
				{
					"indexed": false,
					"internalType": "address",
					"name": "_contract",
					"type": "address"
				}
			],
			"name": "transferEth",
			"type": "event"
		},
		{
			"anonymous": false,
			"inputs": [
				{
					"indexed": false,
					"internalType": "uint256",
					"name": "_depositAmount",
					"type": "uint256"
				},
				{
					"indexed": false,
					"internalType": "address",
					"name": "_userAddress",
					"type": "address"
				},
				{
					"indexed": false,
					"internalType": "address",
					"name": "_contractAddress",
					"type": "address"
				},
				{
					"indexed": false,
					"internalType": "uint256",
					"name": "_userBalance",
					"type": "uint256"
				}
			],
			"name": "userDeposit",
			"type": "event"
		},
		{
			"inputs": [
				{
					"internalType": "address",
					"name": "_owner",
					"type": "address"
				},
				{
					"internalType": "address",
					"name": "_delegate",
					"type": "address"
				}
			],
			"name": "allowance",
			"outputs": [
				{
					"internalType": "uint256",
					"name": "",
					"type": "uint256"
				}
			],
			"stateMutability": "view",
			"type": "function"
		},
		{
			"inputs": [],
			"name": "annualInterestRate",
			"outputs": [
				{
					"internalType": "uint32",
					"name": "",
					"type": "uint32"
				}
			],
			"stateMutability": "view",
			"type": "function"
		},
		{
			"inputs": [
				{
					"internalType": "address",
					"name": "_delegate",
					"type": "address"
				},
				{
					"internalType": "uint256",
					"name": "_value",
					"type": "uint256"
				}
			],
			"name": "approve",
			"outputs": [
				{
					"internalType": "bool",
					"name": "",
					"type": "bool"
				}
			],
			"stateMutability": "nonpayable",
			"type": "function"
		},
		{
			"inputs": [
				{
					"internalType": "address",
					"name": "_owner",
					"type": "address"
				}
			],
			"name": "balanceOf",
			"outputs": [
				{
					"internalType": "uint256",
					"name": "",
					"type": "uint256"
				}
			],
			"stateMutability": "view",
			"type": "function"
		},
		{
			"inputs": [
				{
					"internalType": "address",
					"name": "_seller",
					"type": "address"
				}
			],
			"name": "buyUserOffer",
			"outputs": [],
			"stateMutability": "payable",
			"type": "function"
		},
		{
			"inputs": [
				{
					"internalType": "address",
					"name": "_claimer",
					"type": "address"
				}
			],
			"name": "claim",
			"outputs": [],
			"stateMutability": "nonpayable",
			"type": "function"
		},
		{
			"inputs": [],
			"name": "claimAllowed",
			"outputs": [
				{
					"internalType": "bool",
					"name": "",
					"type": "bool"
				}
			],
			"stateMutability": "view",
			"type": "function"
		},
		{
			"inputs": [],
			"name": "claimPeriod",
			"outputs": [
				{
					"internalType": "uint256",
					"name": "",
					"type": "uint256"
				}
			],
			"stateMutability": "view",
			"type": "function"
		},
		{
			"inputs": [
				{
					"internalType": "uint16",
					"name": "",
					"type": "uint16"
				},
				{
					"internalType": "address",
					"name": "",
					"type": "address"
				}
			],
			"name": "claimedRewards",
			"outputs": [
				{
					"internalType": "bool",
					"name": "",
					"type": "bool"
				}
			],
			"stateMutability": "view",
			"type": "function"
		},
		{
			"inputs": [],
			"name": "decimals",
			"outputs": [
				{
					"internalType": "uint8",
					"name": "",
					"type": "uint8"
				}
			],
			"stateMutability": "view",
			"type": "function"
		},
		{
			"inputs": [],
			"name": "deposit",
			"outputs": [],
			"stateMutability": "payable",
			"type": "function"
		},
		{
			"inputs": [],
			"name": "depositAllowed",
			"outputs": [
				{
					"internalType": "bool",
					"name": "",
					"type": "bool"
				}
			],
			"stateMutability": "view",
			"type": "function"
		},
		{
			"inputs": [],
			"name": "depositExpirationDays",
			"outputs": [
				{
					"internalType": "uint8",
					"name": "",
					"type": "uint8"
				}
			],
			"stateMutability": "view",
			"type": "function"
		},
		{
			"inputs": [
				{
					"internalType": "string",
					"name": "_pubkey",
					"type": "string"
				},
				{
					"internalType": "string",
					"name": "_withdrawalCredentials",
					"type": "string"
				},
				{
					"internalType": "string",
					"name": "_signature",
					"type": "string"
				},
				{
					"internalType": "string",
					"name": "_depositDataRoot",
					"type": "string"
				}
			],
			"name": "depositToStakingContract",
			"outputs": [],
			"stateMutability": "nonpayable",
			"type": "function"
		},
		{
			"inputs": [],
			"name": "hasNodeColapsed",
			"outputs": [
				{
					"internalType": "bool",
					"name": "",
					"type": "bool"
				}
			],
			"stateMutability": "view",
			"type": "function"
		},
		{
			"inputs": [],
			"name": "investmentPhase",
			"outputs": [
				{
					"internalType": "uint16",
					"name": "",
					"type": "uint16"
				}
			],
			"stateMutability": "view",
			"type": "function"
		},
		{
			"inputs": [],
			"name": "investmentStartTime",
			"outputs": [
				{
					"internalType": "uint256",
					"name": "",
					"type": "uint256"
				}
			],
			"stateMutability": "view",
			"type": "function"
		},
		{
			"inputs": [
				{
					"internalType": "enum StakingContract.pausers",
					"name": "_item",
					"type": "uint8"
				}
			],
			"name": "isAllowed",
			"outputs": [
				{
					"internalType": "bool",
					"name": "",
					"type": "bool"
				}
			],
			"stateMutability": "view",
			"type": "function"
		},
		{
			"inputs": [],
			"name": "isClaimPeriod",
			"outputs": [
				{
					"internalType": "bool",
					"name": "",
					"type": "bool"
				}
			],
			"stateMutability": "view",
			"type": "function"
		},
		{
			"inputs": [],
			"name": "isDepositPeriod",
			"outputs": [
				{
					"internalType": "bool",
					"name": "",
					"type": "bool"
				}
			],
			"stateMutability": "view",
			"type": "function"
		},
		{
			"inputs": [],
			"name": "isInvestmentPeriod",
			"outputs": [
				{
					"internalType": "bool",
					"name": "",
					"type": "bool"
				}
			],
			"stateMutability": "view",
			"type": "function"
		},
		{
			"inputs": [
				{
					"internalType": "enum StakingContractLibrary.Status",
					"name": "_passStatus",
					"type": "uint8"
				}
			],
			"name": "isStatus",
			"outputs": [
				{
					"internalType": "bool",
					"name": "",
					"type": "bool"
				}
			],
			"stateMutability": "view",
			"type": "function"
		},
		{
			"inputs": [],
			"name": "lockedPeriod",
			"outputs": [
				{
					"internalType": "uint32",
					"name": "",
					"type": "uint32"
				}
			],
			"stateMutability": "view",
			"type": "function"
		},
		{
			"inputs": [],
			"name": "manageClaimPeriod",
			"outputs": [
				{
					"internalType": "bool",
					"name": "",
					"type": "bool"
				}
			],
			"stateMutability": "nonpayable",
			"type": "function"
		},
		{
			"inputs": [],
			"name": "name",
			"outputs": [
				{
					"internalType": "string",
					"name": "",
					"type": "string"
				}
			],
			"stateMutability": "view",
			"type": "function"
		},
		{
			"inputs": [
				{
					"internalType": "uint256",
					"name": "_amount",
					"type": "uint256"
				},
				{
					"internalType": "uint256",
					"name": "_price",
					"type": "uint256"
				}
			],
			"name": "offerTokens",
			"outputs": [],
			"stateMutability": "nonpayable",
			"type": "function"
		},
		{
			"inputs": [],
			"name": "refundFullInvestment",
			"outputs": [],
			"stateMutability": "nonpayable",
			"type": "function"
		},
		{
			"inputs": [],
			"name": "skimAddress",
			"outputs": [
				{
					"internalType": "address",
					"name": "",
					"type": "address"
				}
			],
			"stateMutability": "view",
			"type": "function"
		},
		{
			"inputs": [],
			"name": "skimEth",
			"outputs": [],
			"stateMutability": "nonpayable",
			"type": "function"
		},
		{
			"inputs": [],
			"name": "status",
			"outputs": [
				{
					"internalType": "enum StakingContractLibrary.Status",
					"name": "",
					"type": "uint8"
				}
			],
			"stateMutability": "view",
			"type": "function"
		},
		{
			"inputs": [],
			"name": "symbol",
			"outputs": [
				{
					"internalType": "string",
					"name": "",
					"type": "string"
				}
			],
			"stateMutability": "view",
			"type": "function"
		},
		{
			"inputs": [
				{
					"internalType": "address",
					"name": "",
					"type": "address"
				}
			],
			"name": "toSell",
			"outputs": [
				{
					"internalType": "uint256",
					"name": "amount",
					"type": "uint256"
				},
				{
					"internalType": "uint256",
					"name": "price",
					"type": "uint256"
				}
			],
			"stateMutability": "view",
			"type": "function"
		},
		{
			"inputs": [],
			"name": "totalSupply",
			"outputs": [
				{
					"internalType": "uint256",
					"name": "",
					"type": "uint256"
				}
			],
			"stateMutability": "view",
			"type": "function"
		},
		{
			"inputs": [],
			"name": "tradingAllowed",
			"outputs": [
				{
					"internalType": "bool",
					"name": "",
					"type": "bool"
				}
			],
			"stateMutability": "view",
			"type": "function"
		},
		{
			"inputs": [
				{
					"internalType": "address",
					"name": "_delegate",
					"type": "address"
				},
				{
					"internalType": "uint256",
					"name": "_value",
					"type": "uint256"
				}
			],
			"name": "transfer",
			"outputs": [
				{
					"internalType": "bool",
					"name": "",
					"type": "bool"
				}
			],
			"stateMutability": "nonpayable",
			"type": "function"
		},
		{
			"inputs": [
				{
					"internalType": "address",
					"name": "_owner",
					"type": "address"
				},
				{
					"internalType": "address",
					"name": "_delegate",
					"type": "address"
				},
				{
					"internalType": "uint256",
					"name": "_value",
					"type": "uint256"
				}
			],
			"name": "transferFrom",
			"outputs": [
				{
					"internalType": "bool",
					"name": "",
					"type": "bool"
				}
			],
			"stateMutability": "nonpayable",
			"type": "function"
		},
		{
			"inputs": [],
			"name": "withdrawAllowed",
			"outputs": [
				{
					"internalType": "bool",
					"name": "",
					"type": "bool"
				}
			],
			"stateMutability": "view",
			"type": "function"
		},
		{
			"stateMutability": "payable",
			"type": "receive"
		}
	]
}